:020000040800F2
:1000000000500020D14D0008494400085344000826
:1000100000000000000000000000000000000000E0
:100020000000000000000000000000005B44000829
:100030000000000000000000654400086F44000854
:10004000214E0008214E000819450008214E0008E5
:10005000214E00087D440008A1440008AD4400087A
:10006000214E0008214E0008214E0008D14400080E
:10007000214E000801450008214E0008214E0008CD
:10008000214E0008214E0008214E0008000000000B
:10009000214E0008214E0008214E0008214E000884
:1000A000214E0008214E0008214E0008214E000874
:1000B000E9440008214E000800000000214E00081D
:1000C00010B5064C2378002B07D1054B002B02D02E
:1000D000044800E000BF0123237010BDD8010020B8
:1000E00000000000FCD30108044B10B5002B03D026
:1000F0000349044800E000BF10BDC04600000000F6
:10010000DC010020FCD301080023C25C0133002A7B
:10011000FBD1581E70470000002243088B4274D365
:1001200003098B425FD3030A8B4244D3030B8B42F8
:1001300028D3030C8B420DD3FF22090212BA030C01
:100140008B4202D31212090265D0030B8B4219D3E2
:1001500000E0090AC30B8B4201D3CB03C01A524102
:10016000830B8B4201D38B03C01A5241430B8B424A
:1001700001D34B03C01A5241030B8B4201D30B0333
:10018000C01A5241C30A8B4201D3CB02C01A52415A
:10019000830A8B4201D38B02C01A5241430A8B421D
:1001A00001D34B02C01A5241030A8B4201D30B0206
:1001B000C01A5241CDD2C3098B4201D3CB01C01A20
:1001C000524183098B4201D38B01C01A524143092A
:1001D0008B4201D34B01C01A524103098B4201D318
:1001E0000B01C01A5241C3088B4201D3CB00C01A85
:1001F000524183088B4201D38B00C01A52414308FD
:100200008B4201D34B00C01A5241411A00D2014621
:10021000524110467047FFE701B5002000F0F0F8AA
:1002200002BDC0460029F7D076E7704703460B436E
:100230007FD4002243088B4274D303098B425FD3DF
:10024000030A8B4244D3030B8B4228D3030C8B420B
:100250000DD3FF22090212BA030C8B4202D31212F1
:10026000090265D0030B8B4219D300E0090AC30BC6
:100270008B4201D3CB03C01A5241830B8B4201D373
:100280008B03C01A5241430B8B4201D34B03C01A5C
:100290005241030B8B4201D30B03C01A5241C30AD4
:1002A0008B4201D3CB02C01A5241830A8B4201D345
:1002B0008B02C01A5241430A8B4201D34B02C01A2F
:1002C0005241030A8B4201D30B02C01A5241CDD2D4
:1002D000C3098B4201D3CB01C01A524183098B421F
:1002E00001D38B01C01A524143098B4201D34B0108
:1002F000C01A524103098B4201D30B01C01A52416B
:10030000C3088B4201D3CB00C01A524183088B42F1
:1003100001D38B00C01A524143088B4201D34B00DA
:10032000C01A5241411A00D201465241104670474C
:100330005DE0CA0F00D04942031000D34042534051
:1003400000229C4603098B422DD3030A8B4212D311
:10035000FC22890112BA030A8B420CD38901921143
:100360008B4208D3890192118B4204D389013AD080
:10037000921100E08909C3098B4201D3CB01C01A55
:10038000524183098B4201D38B01C01A5241430968
:100390008B4201D34B01C01A524103098B4201D356
:1003A0000B01C01A5241C3088B4201D3CB00C01AC3
:1003B000524183088B4201D38B00C01A5241D9D2DB
:1003C00043088B4201D34B00C01A5241411A00D25C
:1003D0000146634652415B10104601D34042002B58
:1003E00000D54942704763465B1000D3404201B5D7
:1003F000002000F005F802BD0029F8D016E770478C
:100400007047C0468446100062468C461900634619
:1004100000E0C0461FB501F0C9FA002801D4002150
:10042000C8421FBD10B501F009FA4042013010BDAD
:1004300010B501F0BBFA002801DB002010BD01203F
:1004400010BDC04610B501F0B1FA002801DD002052
:1004500010BD012010BDC04610B501F033FA0028D0
:1004600001DC002010BD012010BDC04610B501F018
:1004700029FA002801DA002010BD012010BDC04675
:10048000002B15D1002A13D1002906DB01DC00283E
:1004900006D00020C043410802E080210906002068
:1004A00007B4024801A14018029003BD55FFFFFFA9
:1004B00003B4684601B5029800F03EF9019B9E46E0
:1004C00002B00CBC7047C046002B11D1002A0FD1DE
:1004D000002900D1002802D00021C943080007B438
:1004E000024802A14018029003BDC04615FFFFFF5D
:1004F00003B4684601B5029800F052F8019B9E468D
:1005000002B00CBC7047C046F0B5CE469946030C0D
:100510009C46130447461B0C1D000E006146040454
:10052000240C80B50700100C4B43654341436043E6
:100530002C0CC01824188C46A34203D980235B02DC
:100540009846C444494679435643230C2D042D0C48
:100550008919634424046019C918C0BCB946B0465F
:10056000F0BDC04670B500220C4B04000D00FFF733
:100570007DFF002804D12000290002F0EDF870BDB5
:10058000064B00222000290001F04AFD02F0E4F8A9
:1005900080231B069C466044F1E7C0460000E04112
:1005A000F0B557464E464546DE46E0B504000D0020
:1005B0009246994683B08B4230D82DD0494650465A
:1005C00002F0BEF929000600200002F0B9F9331A42
:1005D0009846203B34D49B4653465A469340424665
:1005E0001F00534693401E00AF423BD8AF4200D19C
:1005F00079E05B46A41BBD41002B00DA76E00022C7
:1006000000230092019301235A4693400193012352
:1006100042469340009329E08242CFD90022002332
:10062000009201930C9B002B01D01C605D60009830
:10063000019903B0F0BCBB46B246A946A046F0BD46
:1006400042469B4620239B1A5246DA4041461300FD
:100650004A468A40170042461F43534693401E00B5
:10066000AF42C3D900220023009201934346002BDE
:10067000D8D0FB0772081A4346467B080EE0AB420F
:1006800001D1A2420CD8A41A9D41012024196D4128
:100690000021013E24184D41002E06D0AB42EED978
:1006A000013E24196D41002EF8D1009801995B4656
:1006B00000196941002B24DB2B005A464446D340E5
:1006C0002A00E2401C005B461500002B2ADB2600B6
:1006D0009E40330026004746BE403200801A9941B2
:1006E000009001919EE7A342BCD882E742462023B6
:1006F00000219B1A0022009101920122DA4001920E
:1007000085E7424620239B1A2A0046469A4023004A
:10071000F340444613432A00E2401C005B461500A8
:10072000002BD4DA42462F002023260097409B1A44
:10073000DE403B003343CDE7F8B5CE46474680B5B3
:100740009146984604000D0002F006F907000E00DD
:1007500002000B0048464146FFF7D6FE241A8D41A1
:10076000089B380031001C605D60C0BCB946B046D3
:10077000F8BDC046F8B54746CE464E024302450096
:10078000720AC40F480080B594465F0A2D0E9B097B
:10079000000EC90FB609FF2824D0012251402A1AA1
:1007A0008C420FD0002A00DC6AE1002835D1002EEF
:1007B00000D1A2E0511E012A00D124E1FF2A21D05C
:1007C0000A002FE0002A00DC67E100285ED0FF2D40
:1007D00018D08021C9040E431B2A00DC76E02A00D1
:1007E000013332E02A00FF3A9146002E42D08C427B
:1007F00055D04A46002A00D19CE0002D00D177E078
:100800000C003300DB08002B00D16EE08022D20305
:1008100013435B02FF205B0A24E0FF2DF2D080210E
:10082000C9040E4301211B2A08DC31002020D140DD
:10083000821A96403200501E824111435B1A5A01BF
:1008400060D407212A00194057D00F2119400429EC
:1008500000D00433590150D5501CFE2A45D09B01CD
:10086000C0B25B0AC0051843E4072043C0BCB946C8
:10087000B046F8BD012251408C42BAD14A46002A06
:1008800010D0002D00D198E00023BBE7002E34D01B
:10089000511E012A6ED0FF2AB4D00A009CE7002A1C
:1008A00000D088E0FE206A1C104200D092E0002DAB
:1008B00000D0A4E0002B00D1CBE0002E00D0CAE095
:1008C0000022DB085B025B0AD0B2CBE731002020BC
:1008D000D140821A96403200501E82410A439B1832
:1008E0005A01AED56A1CFE2D4AD1FF200023B9E77C
:1008F000FF22002B4BD10C003300DB08FF2A00D174
:1009000081E7DFE79F01BF09380001F0FBFF0538F1
:100910008740854221DC3B002021421B0132D3402D
:100920008A1A97407A1E974100223B43590700D00C
:100930008BE78FE7FE206A1C104212D1002D52D1A6
:10094000002B7CD0002EBBD09A1B500100D48BE032
:1009500001240022F31A0C40E8E7564B2A1A3B40C8
:10096000E4E79F1B7A0146D4002FCDD1002400205C
:10097000002377E79B1901250132590100D460E774
:1009800001214D4819405B0803400B43CEE7571E39
:10099000012A5AD00C00FF2A33D001221B2F07DC7A
:1009A0002021C91B1A008B40FA40591E8B411A4363
:1009B0000500B31A43E7002D23D1FF22002B9BD063
:1009C000511E012AD6D0FF2A1BD01B292CDD020084
:1009D000731C3AE7FF2A88D09B195B08590700D09F
:1009E00033E7DB086EE7002B10D1002E43D0012443
:1009F00033000C4006E70124F71A0C4084E7002B73
:100A000004D13300FEE601259B1B18E7002E00D120
:100A1000F8E68022D203974204D3944502D20124FF
:100A200033000C40DB08F1E61A002025CA40691AA1
:100A30008B40591E8B41134305009B1950E7002E34
:100A400094D0012433000C403AE70C000125F31A3E
:100A5000F5E6330034E79B1900225901C1D5154A48
:100A60001340DB0801222DE7002A00D17EE71300A6
:100A70000022DB0826E780230024FF20DB03F1E6C9
:100A8000002A00D156E7471B3A00002D00D130E77D
:100A90008022D2040C0013437FE7002A00D101E733
:100AA000411B002D01D10A0088E78022D2041343A4
:100AB0008BE7C046FFFFFFFBFFFFFF7D70B5041E05
:100AC0000ED001F01FFF9E2301001B1A962B0CDC99
:100AD00008282FD008398C406402640AD8B201E09B
:100AE00000200024C005204370BD992B16DC421F56
:100AF000052800D09440220010480240650709D024
:100B00000F252C40042C05D00432540102D59F231C
:100B100002405B1A9201540AD8B2E3E702002000B7
:100B20001B3290400200501E82410520401AC440F2
:100B30001443E0E764029620640AD3E7FFFFFFFB5B
:100B4000F0B557464E464546DE46E0B583B00090C8
:100B500001910C034F00CE0F610A009C1D03640F2E
:100B60000C43009900920193C80059004B0D99461F
:100B7000009A019B6D0AD90F530F2B439A46009B95
:100B80007F0DDA0094464A46B046BA1A8E4200D12A
:100B9000B0E0002A00DC78E04946002900D1E9E015
:100BA000C9498F4200D195E10125382A16DC802100
:100BB000534609040B439A461F2A00DDE7E1202132
:100BC00055468B1A61469D40D1400D436146994080
:100BD0004B1E99415346D3400D43E41A451BA8428E
:100BE00080414042241A230200D40FE16402640AC7
:100BF000002C00D139E1200001F084FE0300083B05
:100C000020212800CA1AD0409C4002009D40224367
:100C10009F4200DD73E1D81B0130091A2C008D4082
:100C2000C4406B1E9D411300C2408B4025430027EA
:100C300014001D436B0709D00F232B40042B05D054
:100C40002B1DAB42AD416D4264191D00230200D43F
:100C50002DE19D4A0137974200D1D3E046469B499A
:100C6000ED0821404A072A437C054D022D0B640DF7
:100C700024052C43F60734431000210003B0F0BCD8
:100C8000BB46B246A946A046F0BD002A00D184E08A
:100C90004A46D21B002F00D06DE12500054300D14C
:100CA00027E1561E012A00D13BE2874DAA4200D11E
:100CB0006AE20125382E12DC32001F2A00DDF8E13D
:100CC00020262500B61A07005346B040D440B54050
:100CD000D740461EB0411B1B9A463D430543624622
:100CE000551BAC459241534652420E004F46884632
:100CF0009C1A78E7002A00DC8EE04946002975D16D
:100D000061465346194300D1F6E0511E012A00D135
:100D100091E16D4DAA4200D1DCE00125382914DCB7
:100D20000A001F2A00DDA2E120215346891A8B40C8
:100D30001D006346D3401D4363468B4019004B1E84
:100D400099415346D3400D43E4182D188542804104
:100D500040422418230259D55B4B01379F4251D0A2
:100D600001215A4B6A081C4029400A43E5071543F4
:100D700064085FE761465346194300D1BCE0511E49
:100D8000012A00D164E1504DAA4200D16AE1012557
:100D9000382900DD22E70A000EE74D4A7D1C154286
:100DA00000D0D0E025006246534605431A43002F89
:100DB00000D037E1002D00D1A8E1002A00D16AE17E
:100DC0006346C51A5346E21AA8429B415B42D31AB6
:100DD0001A0200D403E263461D1AAC459241534601
:100DE00052421C1B0E008846A41A23E736498F4244
:100DF00070D00125382AA8DC8021534609040B4312
:100E00009A468EE73C000025002231E707232B405D
:100E1000002B00D010E793E0002A74D04A46D21B82
:100E2000002F00D1C7E02849894500D185E101257F
:100E3000382A12DC802109040C431F2A00DDABE1B3
:100E400020212500891A070088408D40D740411E87
:100E50008841D4403D430543A244654465459241E1
:100E60005242524414004F4674E7280001F04AFDF4
:100E7000030018331F2B00DCC2E62A00083882402A
:100E80009F4200DDA9E0DB1B581C1F2800DCACE101
:100E900015001F3BDD40202805D040231B1A9A4037
:100EA000531E9A411543072300272B40B0E7ED0856
:100EB000054B62072A43E4089F420FD02403250B09
:100EC0007C05640DD4E6C046FF070000FFFF7FFFEE
:100ED000FE070000C00862070243E4081300234332
:100EE00000D186E180252D0325432D03C34C2D0B16
:100EF000BEE6604654460E001700C508D8E7C04C51
:100F0000FF1A144096E6BF4A791C11426BD12200A9
:100F10000243002F00D0DBE0002A00D12DE1624621
:100F200053461A4300D1B6E06346C5188542804156
:100F3000544440422418230202D50F00B04B1C40F9
:100F40003A002800D8E76246851AA84292415346E3
:100F500052429146E31A1A004B46D21A13009146A8
:100F60001A0254D44A464C462A4300D040E6002692
:100F7000002400257CE6A14DA94500D190E0012583
:100F8000382A00DDABE680252D042C4395E61100C0
:100F900055462039CD40A946202A06D04021534647
:100FA0008A1A934062461A43944665466B1E9D41D9
:100FB0004B461D4312E62100014300D1C4E0511EFF
:100FC000012A00D1FBE08D4DAA4200D1B5E00125F8
:100FD000382900DD41E70A002FE7894CFF1A144049
:100FE0006207E4086AE7854A914200D1E3E063467C
:100FF000C218824280412300404253441B18DD073F
:101000005C080723520815430F002B4000E7634696
:101010001D1AAC459241534652421C1B0E00884695
:10102000A41AE5E5002D00D091E0002A38D18024F3
:101030000026240356E76346C51885428041544480
:10104000404224180127230200D4DFE6022787E666
:101050006346C51AA842804153464042E41A01271C
:10106000241AC0E56207C0080243E40836E711000D
:1010700053462039CB409946202A06D0402153467A
:101080008A1A934062461A43944665466B1E9D41F8
:101090004B461D4359E66207C0080243E4080DE7CA
:1010A00053465A076346D80853460E000243DC08ED
:1010B00014E715002600203DEE40202A03D04025ED
:1010C000AA1A94402043421E90410500354306E68B
:1010D000002A7CD062465346C0081A4300D1FAE683
:1010E000620710438022E4081203144208D0D90892
:1010F000114205D16346D80853460C005B071843DC
:10110000420FC000C00852070243E7E6002A00D1A0
:101110002DE76346D80853465A070E000243DC0801
:10112000CCE663461D1AAC459241534652421C1B05
:101130000E008846A41A013755E56346D908534680
:101140005A070A43DC08C9E660465446D4E6C0089C
:10115000002A00D1BFE6620710438022E408120390
:101160001442CDD0DD081542CAD16346D808534693
:101170005B070E002C001843C2E76346D9085346AC
:101180005A070A43DC0899E66346D80853465A07CB
:101190000E000243DC08A1E6110027002039CF40F1
:1011A000202A03D040218A1A94402043421E9041B5
:1011B00005003D4351E60C000025002258E560443F
:1011C00060459241544452420500A4183AE7534600
:1011D0005A076346D90853460A43DC087EE61A00DC
:1011E0001C002A4300D0ABE6C1E620210025091AE5
:1011F00019E500220025014C3AE5C046FF07000032
:10120000FFFF7FFFFE070000F0B5DE46454657466C
:101210004E46E0B587B0009201930B031B0B9B4633
:10122000CA0F4B00040080465B0D029200D16AE1B8
:10123000D44A934200D18CE15946420FC9000A4377
:10124000802109041143C2009046CF4A8946924644
:101250009A44002300240393009E019F3B031B0B31
:101260009B467B0030005B0DFD0F002B00D128E179
:10127000C44A934200D177E15946720FC9000A432C
:101280008021090411438B46BF49F2008C46514628
:101290006344CB1A9A460023029E6E400F2C27D837
:1012A000BA49A40009598F46CB464246029E039B89
:1012B000022B16D0032B00D1A6E2012B00D0DFE0D9
:1012C00000220023002490461B052343F6073343E6
:1012D0004046190007B0F0BCBB46B246A946A0463E
:1012E000F0BD002200249046A64BEDE72E00DFE77C
:1012F000CB4500D2D4E100D1CFE101235B429C4633
:10130000444648460027E2445B46150E1B021D4337
:10131000190C2B04120200951D0C914602910395A5
:10132000FEF780FF02006A430B04210C804619433C
:101330008A4209D9009D0123AC465B4261449C4628
:10134000E0448D4200D8FBE1881A0299FEF76AFF5B
:10135000039A240442430904240C03000C43A242D0
:1013600006D90099013B8C466444A14200D8E1E1D2
:10137000A01A424612041A4393464B4659461B0C88
:101380001D0004930B0449460904090C0C001B0CB6
:101390005C43120C6B43884651436A43250CAC46B0
:1013A0005B186344994203D9802149028C46624408
:1013B000190C24041B04240C8A181C19904202D313
:1013C00016D1A74214D25B46009D013B4F440593C2
:1013D0004F459B41AC465B426344C018854200D3F5
:1013E000A1E1824200D9F6E100D1F1E1059B9B46E3
:1013F0003C1BA742BF41009D801A7F42C01B854213
:1014000000D1D0E10299FEF70DFF039A0B0442438D
:10141000210C070019438A4200D978E1881A029901
:10142000FEF700FF039A240442430904240C03003E
:101430000C43A24200D95DE14146A41A3A041A4382
:10144000049D13041B0C594347466B439C46100CE8
:1014500047430B0CBC44634468439F4203D9802537
:101460006D02AC4660441F0C09041B04090C3F18B4
:101470005B18BC4200D202E100D1FDE001231A4317
:10148000434B5344002B00DCAEE0510700D098E101
:101490005946C90106D559463E4B194080238B4613
:1014A000DB0053443C498B4200DD1AE75946D20821
:1014B000490711435A465B0554028846240B5B0DCD
:1014C00002E75A46009B1A4300D17EE05B46002BA0
:1014D00000D100E1584601F015FA020003000B3A72
:1014E0001D27009EBA1A19005846D6400839884070
:1014F000320002439346009A8A40284953448A4660
:101500009A440023C8E65B460343994656D05B469F
:10151000002B00D1CDE0584601F0F4F90B235B42DB
:101520009C460200844466461D239B1B2600110036
:101530005846DE400839884033000343994623006B
:101540008B409846164B00249B1A9A46002303931F
:1015500082E65A46024391462AD100229A46022345
:1015600090460824039377E65A46009B1A430D4B96
:101570009C46E244002A17D102231C4300239B46C9
:10158000023389E6FF07000001FCFFFF88E801083D
:10159000FF030000FFFFFFFEFE070000F303000053
:1015A0000DFCFFFF01F8FFFF032332001C4373E62D
:1015B0009A460323D9460C2403934DE6002398460C
:1015C0009A4601330424039346E601231C43002377
:1015D0009B46013360E60023802498460026924B08
:1015E000240371E6012252420121C91A382900DD83
:1015F00066E61F2900DCABE01F204042C31A5846B4
:10160000D8400300202904D05846884951448840D6
:101610000243511E8A411A43072319000024114036
:1016200013420CD00F231340042B00D1F9E0111DFD
:1016300091429B410A005B4259075B021C0BD20896
:101640000A43904600233FE680244B46240323426E
:1016500009D05B46234206D11C4324032E0090464A
:10166000714B240B30E680244B4624031C43240397
:10167000029E6D4B240B27E6002B00D100E700985B
:10168000511E84466444844200D284E0BC4200D2AD
:10169000AEE000D1C1E00A00F0E6424500D92CE6F8
:1016A0004B46DC07580843465B081C434346DF07AC
:1016B0002AE601F027F915239C468444020063467C
:1016C00020321C2B00DC2EE723000838834099468B
:1016D0000023984636E701F015F9020003001532A1
:1016E00020331C2A00DCFBE60099083881400022E8
:1016F0008B4602E70099013B8C466444A14200D925
:101700009AE6A24200D897E6831E644494E6AC466B
:101710006144013F8D4200D980E68A4200D87DE6CF
:10172000871E61447AE6854200D05FE6B94500D95C
:101730005CE656E6A24200D81AE6831E644417E629
:101740008A4200D800E6AC46831E98466144FBE519
:1017500037481400504482405B4617008340CC4019
:101760007A1E974123433B431A005B46CB40510707
:1017700009D00F211140042905D0111D9142924139
:1017800052429B180A00190200D455E70022012397
:101790000024904698E50A00BC4200D06EE64B4516
:1017A00000D06BE66CE6234B234A5344924500DAA3
:1017B00018E7012149420A1D8A42894149428B4466
:1017C00066E60F211140042900D161E61100F2E71D
:1017D000BC4200D80AE602235B429C4600994F4473
:1017E0004F459B41E3448C465B426344C018FFE590
:1017F0004946009D480048458941AC4649426144FC
:101800008146023A6418C7E780245B4624031C43E0
:1018100024039046044B240B56E59945E8D30A006F
:10182000BDE7002308E7C046FF0700003E040000B4
:101830001E040000FF03000002FCFFFFF0B5574646
:10184000DE464E464546E0B50D000400E80F8346EF
:101850000903D80F090B824619488C461F036900FB
:101860005E00490D3F0B760D814218D086420FD0A5
:101870000120B1420DD1BC450BD1944209D1D345D1
:101880001CD0002905D160462043431E984100E04A
:101890000120F0BCBB46B246A946A046F0BD0120DF
:1018A0008E42F6D1614639430F0017432743F0D1EA
:1018B0005B465246981A431E9841EAE70020E8E743
:1018C000FF070000F0B557464E464546DE46E0B5F8
:1018D0000D000F03390B83B00400804601915800BE
:1018E000E90F314F400D8C466E0019038246914638
:1018F000760D090BD80FBE421FD0BA450FD0002E6F
:101900002FD15546019E3443002D27D10A433AD0AA
:10191000002C45D100281AD10120404217E0114384
:101920003BD1002E02D1019F2743F3D0844509D13A
:101930006346002BF0D0604609E0019F27432CD17D
:10194000B24524D063460220013B1840013803B061
:10195000F0BCBB46B246A946A046F0BD002CD9D08B
:10196000E4E75446002CEDD08445EBD15645E9DC44
:10197000DEDB019B8B42E5D8DAD1C845E2D80020F6
:10198000C845E4D2D4E70020002CE0D0DAE71143C8
:1019900003D18445D6D10020D9E702204042D6E7C2
:1019A0008445E6D0CEE7C046FF070000F0B55746B5
:1019B0004E464546DE46E0B50D000F030400804666
:1019C000E80F390B844683B05800304F400D019129
:1019D0001E03690082469146490D360BD80FB94265
:1019E00020D0BA450FD000292BD101990C43514684
:1019F000002937D1324338D0002C44D1002819D1E6
:101A00000120404216E0164313D1002902D1019F64
:101A10002743F3D0844520D063460220013B184081
:101A2000013807E0019F274303D18A45F4D11643CB
:101A30001FD0022003B0F0BCBB46B246A946A04668
:101A4000F0BD5446002CE7D08445E5D15145E3DC98
:101A500003DB019BB342DFD80FD06346002BCFD00E
:101A60006046E7E7002CC9D0D4E70020002CE1D085
:101A7000D2E78445D0D10020DCE7C845CCD800208F
:101A8000C845D7D2E9E78445E3D0C5E7FF070000A2
:101A9000F0B55746DE464E464546E0B51F000B03FF
:101AA0001B0B16009A46CA0F4B000400934687B0E2
:101AB0005B0D00D1D5E0BB4A934200D1F8E051461E
:101AC000420FC9000A43802109041143C200914614
:101AD000B54A8A469D180023984602933C037B0032
:101AE000FA0F3000240B5B0D009200D196E0AD4A56
:101AF000934231D0720FE400224380242404144323
:101B0000A94AF000944663445B195A1C019242466C
:101B100000260A2A42DC5A4600994A409346424629
:101B2000022A32DC013A012A00D949E1022E00D111
:101B3000CAE0012E3DD100230024002210005A46A5
:101B40001B052343D2071343190007B0F0BCBB4663
:101B5000B246A946A046F0BD924B2643EB18002E94
:101B600000D1BBE00322414611435A468846009902
:101B70004A40802109018C46290061440191414677
:101B80000A2900DD33E293460326424601279740A7
:101B9000A6213A00C9000A400F4231D0029E022E0F
:101BA00000D135E2032E00D1D2E154464846012E41
:101BB000C1D0019A7D4B94466344002B00DCC0E009
:101BC000420709D00F220240042A05D0021D82429A
:101BD0008041404224181000E20106D5744B019A5E
:101BE0001C4080239446DB006344724A93426BDCC2
:101BF0006207C00864025B050243240B5B0D9DE78E
:101C0000902189000F4263D188223A4200D1D7E067
:101C1000009BA2469B4681460296BFE723003343C2
:101C200000D17FE0002C00D1ADE1200000F06AFE81
:101C3000020003000B3A1D201900821A30000839F7
:101C4000D0408C400443300088405B4AEB1A9446F5
:101C500063445A1C0192424600260A2A00DC5AE7D5
:101C60009CE753460343994654D05346002B00D17A
:101C700077E1504600F046FE0B235B429C46020093
:101C8000844411005046083988401D238046604630
:101C90001B1A2000D8400300404603439A46230005
:101CA0008B4099460023444D9846AD1A029315E7A0
:101CB00052460243914626D100221D00022392463D
:101CC00008329046029309E700240022354B35E79D
:101CD000002380249B462403324B2FE702224146F7
:101CE00011438022120194462A00624488460192E0
:101CF0000A2900DD52E75A460020009904004A40B4
:101D0000934602260BE70C221D00032381469046D2
:101D10000293E3E600239A4604339846033B0025EA
:101D20000293DBE6424601331A432B0090465A1CCD
:101D3000019242460024002001260A2A00DCEAE63D
:101D40002CE70122D21A382A00DDF4E61F2A00DC33
:101D50002AE11F214942CB1A2100D9400B00202A39
:101D600005D0164A019D94466544AC402043421E6E
:101D700090411843072319000024014003420CD06E
:101D80000F230340042B00D140E1031D8342A441F3
:101D90001800644261076402240BC20800230A434E
:101DA000CCE6C046FF07000001FCFFFFFF03000078
:101DB000FFFFFFFEFE0700000DFCFFFF3E040000DA
:101DC00049464A460904090C0D00160C020C000491
:101DD000000C4543AC4605007543A84615000F00AE
:101DE0007543009202952A00009D6F4365462D0CB5
:101DF000A94647444F44B84505D9150080225202F0
:101E00009046454402953D0C039565462D043F04DC
:101E10002D0CAC463D0065440495250C2404240C8F
:101E2000AC4625007543A84665460F00694341440A
:101E300089466743390C49446E43884503D980225B
:101E40005202904646440D0CA8463500454405957F
:101E5000039D3F04A8463F0C0904C9198844454620
:101E6000039555462E04360C2F0C35004543784318
:101E700081463800A8462D0CAA46009A504372436A
:101E80004A445244914503D980256D02A9464844ED
:101E9000150CA94645462D042D0CA84665467D43E4
:101EA000120448449044A9463200654662436E439A
:101EB0007C43170C3619BF19BC4203D98024640235
:101EC000A446E144029C039EA446059D66448E42BE
:101ED0008941AC4612043C04120CA21862444942E7
:101EE00054184644A4464645A44182466442A0464E
:101EF000AA4292418C458941E244D044494252422F
:101F00000A43A045A44182458941644249420C43A9
:101F100041463F0CD2191219CC0D049970020843A6
:101F2000411E884141464A44F60D5202304349025F
:101F300014430843D20135D501224308024013431C
:101F4000E0071843640834E6009BA2469B4681469E
:101F50008024534624031C4324034A462E4B240B5F
:101F6000ECE500F0CFFC15239C4684440200634658
:101F700020321C2B00DC84E600239946230008381D
:101F800083409A468EE600F0BDFC02000300153245
:101F900020331C2A00DC4EE602003400083A002000
:101FA000944052E6019304E61C4B21009C4603003A
:101FB000019DD3406544A94019430300AB40581E1E
:101FC000834119430800D4404B0709D00F230B402D
:101FD000042B05D00B1D8B42804140422418180071
:101FE000230200D4D6E6012300240022A6E50F290F
:101FF000AAD1802352461B031A42A9D01C42A7D162
:102000001C43009B02009B46034B97E50024C1E65E
:102010000024014B220091E5FF0700001E04000090
:10202000F0B54E464546DE465746E0B585B00090D1
:1020300001910C034F00CE0F610A009CB046640F63
:102040000C4300997F0DC80011001A001B039C4629
:102050000091019251004B0D9946019B009DD90FB3
:1020600063466A0F5B0A1343EA0094469346C14AEB
:1020700003900293914500D1CDE0012569404D4682
:102080007D1BAA468E4200D180E0002D00DC35E3A6
:102090004946002900D1DFE0974200D194E1524641
:1020A0000125382A19DC8022029B12041343029373
:1020B00052461F2A00DDE3E1534620226146029D7D
:1020C000D21A9540D9400D43614691400A00511EF5
:1020D0008A411543029ADA40A41A451BA84280415E
:1020E0004042241A230200D43DE16402640A002C19
:1020F00000D147E1200000F005FC0300083B20214F
:102100002800CA1AD0409C4002009D4022439F42B2
:1021100000DD77E1D81B0130091A2C008D40C44046
:102120006B1E9D411300C2408B40254300271400C5
:102130001D436B0709D00F232B40042B05D02B1D0B
:10214000AB42AD416D4264191D00230200D440E151
:10215000884A0137974200D101E10126434686496A
:10216000ED0821404A072A437C054D022D0B640DE2
:102170001E4024052C43F60734431000210005B00F
:10218000F0BCBB46B246A946A046F0BD002D00DC1F
:10219000D0E24946002900D0D4E06146029B1943B1
:1021A00000D12BE1691E012D00D1D9E1954200D16A
:1021B0000AE10125382917DC8A4653461F2B00DD2A
:1021C000E7E12022D21A029B614693401D0053464C
:1021D000D940634693401A000D43511E8A4153462D
:1021E0001543029ADA40A4182D18854280414042D6
:1021F0002418230200D4B6E05E4B01379F4200D181
:10220000ADE001215C4B6A081C4029400A43E50708
:10221000154364088DE7594A029B92466246BA44C8
:102220001A432CD08E422ED05246002A60D0002F66
:1022300000D1DBE063460E00029CD808620702432F
:10224000E4081300234300D154E280252D032543E5
:102250002D03484C2D0B8CE76146029B194300D19E
:10226000CCE029000139012D00D188E1954200D14F
:10227000AAE00125382900DD2FE78A4618E7012268
:1022800051408E42D0D15346002B00D1BEE0002FEA
:1022900000D038E1CA462200024300D1E2E15346B1
:1022A000591E012B00D10DE2324A924500D1D2E1F4
:1022B0000127382913DC1F2900DDEEE12022029BD3
:1022C000521A250007009A46CC4090409540CF40D6
:1022D000A244421E904153462F43074302933D00C0
:1022E000654465459241029B52424F46D41880E7AF
:1022F000234A7D1C154200D0AAE062462500029BBD
:1023000005431A43002F00D0F5E0002D00D16BE10A
:10231000002A00D152E16346C51A029BE21AA84284
:102320009B415B42D31A1A0200D4D5E163461D1AC1
:10233000AC4592410126029B52421C1B8846A41ABE
:102340000E40F6E697423FD052460125382A00DD7E
:102350004AE78022029B1204134302932DE73C00BC
:102360000025002205E707232B40002B00D0E2E6E2
:102370006BE0C046FF070000FFFF7FFF01F8FFFF93
:10238000FE070000280000F0BDFA030018331F2BE1
:1023900000DCB4E62A00083882409F4200DDB9E044
:1023A000DB1B581C1F2800DCA0E115001F3BDD4093
:1023B000202805D040231B1A9A40531E9A411543EA
:1023C000072300272B40D0E7C00862070243E40838
:1023D00037E7EA0863071A43D34BE4089F4200D16A
:1023E0002FE72403250B7C05640DC2E6CA462200B4
:1023F000024358D163460E00029C0393039B574649
:10240000DA08E7E7C94CFF1A144092E6C84D7A1C77
:102410002A4200D084E022000243002F00D0EFE0E7
:10242000002A00D1E5E0624602990A4300D1C5E0E6
:102430006346C5188C468542804164444042241856
:10244000230202D5B94B01371C40BA460395D5E7A4
:102450006246851AA842924152429146029BE31A73
:102460001A004B46D21A130091461A026CD44A46FF
:102470004C462A4300D03AE600260024002578E6A0
:10248000029953460D00203AD540202B06D0402219
:10249000D21A0B00934062461A4393465B465A1E7B
:1024A00093411D4319E653465A1E012B00D1C6E045
:1024B0009D4EB24500D1BDE688460E000125382A62
:1024C00010DC1F2A7FDC20212500891A07008840A4
:1024D0008D40D740D440411E8841029B3D431B1B89
:1024E000054302936246551BAC459241029B524202
:1024F0004F469C1AF6E5002D00D0B7E0002A00D127
:10250000F0E001260E4063460298D90842070A43CC
:10251000C40896E6854CFF1A14406207E40860E799
:1025200081498A4200D1C9E06346C1188142804195
:10253000029B4042E3181B18DD075C08072349088B
:102540000D4317002B4010E763461D1AAC4592411E
:102550000126029B52421C1B8846A41A0E40C6E567
:102560006346C518029B854280419C4640426444B4
:1025700024180127230200D4F5E6022741E663462A
:10258000C51AA8428041029B4042E41A0127241A3E
:10259000A8E5029D52462B00203AD340190053462D
:1025A000202B06D04022D21A2B00934062461A43B9
:1025B00093465D466B1E9D410D4315E66207C008BC
:1025C0000243E4080DE7110027002039CF40202AFC
:1025D00005D040218A1A9440250005430395039DA8
:1025E0006A1E95413D437DE7002A00D144E701265C
:1025F0000E406346D908029B5A070A43DC08F0E6FE
:10260000002A28D06246029FC0083A4300D1DCE687
:10261000620710438022E4081203144209D0FD0827
:10262000154206D1634601262C00D8087B071843C3
:102630000E40420FC000C0085207024301E6634645
:102640001D1AAC459241029B52421C1B0E0088464B
:102650000127A41A46E56346D908029B5A070A4394
:10266000DC08EEE56346029C0393C7E6C008002A37
:1026700000D1AAE6620710438022E4081203144244
:10268000D7D0029FFD081542D3D163460126D80852
:102690007B072C0018430E40CBE70A002700203AA6
:1026A000D740202905D04022521A944025000543E6
:1026B0000395039D6A1E95412F4310E614000025E3
:1026C000002256E5029B60449946604592414C4485
:1026D00052420500A4184CE71A001C002A4300D0FF
:1026E000B3E6C9E6802400262403AEE520210025B8
:1026F000091A17E5002200250B4C3AE5002D00D100
:10270000F6E54B46DA1B9246002F00D16FE6382AD9
:1027100005DC80263604344388460E00D1E6884620
:102720000E000125DEE6C046FF070000FFFF7FFF29
:10273000FE070000002D00D168E64B46D91B002F94
:1027400001D18A46A7E50127382900DDC7E58022A7
:1027500012041443AFE5C0460B00020070B5164DDD
:102760000C0382B04900002000920193240B490D14
:10277000DE0FA94204DD1148814203DD104BF01841
:1027800002B070BD8020400320430E4C641A1F2C01
:1027900008DD0D4B5B1AD84003005842002EEFD1E4
:1027A0001800EDE7094B009A9C46030061448B40FA
:1027B000E2401343F1E7C046FE0300001D040000A1
:1027C000FFFFFF7F3304000013040000EDFBFFFF59
:1027D00070B5002816D0C317C5185D40C40F280077
:1027E00000F090F8104B1B1A5B055B0D0A2814DCF7
:1027F00002002E00153296400B22121AD5402D03EE
:102800002D0B03E000240023002500261B052B438D
:10281000E40723433000190070BD0B3885402D03B9
:1028200000262D0BF2E7C0461E04000010B5041E62
:1028300010D000F067F80E4B1B1A5B055B0D0A28E1
:102840000FDC0B222100121AD14015300A038440FC
:10285000120B01E0002300221B0513432000190086
:1028600010BD22000B38824012030024120BF3E744
:102870001E04000070B542024300C40FFE201B0E70
:10288000591C550A08420CD0E02189008C466D077E
:10289000120B63441B051343E4072343280019006C
:1028A00070BD002B14D1002D1BD0280000F02AF899
:1028B0000A281CDC0B232A001B1ADA4003001533FC
:1028C0009D400E4B12031B1A5B05120B5B0DE1E7DB
:1028D000002D09D0130B802212031A436D07084BF9
:1028E000D8E700230022D5E70022054BD2E70300FA
:1028F0002A000B3B9A400025E3E7C046890300000D
:10290000FF0700001C2101231B04984201D3000C87
:1029100010391B0A984201D3000A08391B09984252
:1029200001D30009043902A2105C40187047C04668
:102930000403020201010101000000000000000088
:1029400010B5002903D1FFF7DDFF203002E00800B9
:10295000FFF7D8FF10BDC046F0B5D6464F464646F5
:10296000C0B504000D001000190082B0002D00DA7F
:1029700087E0002B0BDB16001F00AB4219D90020AB
:10298000002102B0E0BCBA46B146A846F0BD00271F
:1029900046428F41AF4204D800D082E0A64200D820
:1029A0007FE0002000218FE0002746428F419F42B8
:1029B000E5D8AF4200D198E00023994639003000B5
:1029C000FFF7BEFF804629002000FFF7B9FF43460E
:1029D0001B1A9846203B00D57CE0310099409A466E
:1029E0000B003100404681400A00AB425FD85CD00A
:1029F0005146A41A9D41002900DA93E000210020ED
:102A000001260090019151468E40019641460126D3
:102A10008E4041460096002950D0D90756080E43F3
:102A20005F084146012200230CE0AF4201D1A642DB
:102A30000AD8A41BBD4124196D410139A4185D4178
:102A4000002906D0AF42F0D9013924196D4100297F
:102A5000F8D100980199534600196941002B48DBD1
:102A60002E002C00DE404346DC405346002B50DB5A
:102A700034009C4023004446A6403200801A99410D
:102A80001EE000236242AB4114001D0000298BDBD5
:102A900006000F00994200D971E702D1904200D997
:102AA0006DE701235B42994688E7A142A0D9002146
:102AB00000200090019141460029AED10098019973
:102AC0004B46002B00D15CE703000C00002158426C
:102AD000A14156E7424638009A46202331009040F3
:102AE0009B1AD94003000B437BE7A64200D863E75B
:102AF00045E7424620239B1A2A009A4026001300ED
:102B00004246D6402C001E434346DC405346002B31
:102B1000AEDA42462023350094409B1ADD40230064
:102B20002B43A8E7414620260127761A00200021E2
:102B3000F74000900191019768E7C04680B500AF6B
:102B400001F0F6FC00F00EF8C046BD4680BD80B531
:102B500000AF01235B42180018F002FFC046BD46DB
:102B600080BD000080B586B004AF022002F09EFB5D
:102B7000012002F09BFB032002F098FB3E4B002259
:102B800002920022019201220092002200210220E2
:102B900018F024FB394B012251423948002200929F
:102BA000002219F0A7F9374B012251423648002282
:102BB0000092002219F09EF9344B01225142344810
:102BC00000220092012219F095F9FA235A002C4BA9
:102BD0001100180019F0B6FAFA235A002A4B110016
:102BE000180019F0AFFAFA235A00294B1100180007
:102BF00019F0A8FA274B1A000021012018F092FFC3
:102C0000254B1A000021022018F08CFF00F044FB35
:102C1000224B18000AF02EFB214B18000AF070FB23
:102C20001B4B180019F09EF91E4B1B7818000AF078
:102C3000ADFC1D4B1B78002B15D11C4B7B601C4B36
:102C4000012251421B4800220092002219F052F941
:102C50007A68184B1100180019F074FA154B180017
:102C600019F080F903E00121002002F0E1FBC046E9
:102C7000BD4602B080BDC04624D40108FD30000826
:102C80000003002013310008180300202931000838
:102C900030030020D1D40008E92D00080C000020EA
:102CA0002C00002008000020E70200201027000070
:102CB000D9300008E8020020F0B589B006AF78608E
:102CC00039607B68002B00D17DE03B68002B00D190
:102CD00079E0022002F058FB3D4B00220021022047
:102CE00018F07CFA3B689B683A68127B52B211007C
:102CF000384A89008A5879680978080039688978DB
:102D000049B20C003968C97849B20D0039680979AF
:102D100049B20E0030490596049503940290019241
:102D200000930B0000220021032018F057FA7B6863
:102D30001B78022B1ED0032B40D17B685B78012BC4
:102D40003ED17B685B681B78022B0DD010DC002B1A
:102D500002D0012B04D00BE000200AF071FD08E046
:102D600001200AF06DFD04E002200AF069FD00E098
:102D7000C04625E07B685B78012B23D17B685B68CC
:102D80001B7801221340DAB2144B1A70134B1B78D4
:102D9000002B09D1124B00220021032018F01EFA4B
:102DA000012002F00DFB0DE00E4B0022002103205C
:102DB00018F014FA012002F0E7FA03E0C04602E03E
:102DC000C04600E0C046C046BD4603B0F0BDC046A8
:102DD00058D40108340000208CD40108E6020020F9
:102DE000D0D40108DCD40108F0B5E1B004AFB723BA
:102DF0005B00FB1800221A80B6235B00FB18002240
:102E00001A800023BB639E4BB82252009B18DB192B
:102E100000221A80B5235B00FB1800221A800023D1
:102E2000B2225200BA1813600023B0225200BA181E
:102E300013600023AE225200BA181360AD235B006A
:102E4000FB1800221A808F4B02221A7002F0E6F85B
:102E500000F058FA00F012FA8B4B180019F01AFD26
:102E60008A4B76229A84894B894A9A62864A874B92
:102E70001100180019F0A2FEFA23DB00180001F07F
:102E800014FD844B844A854980481AF097F9834B96
:102E90001B6864211800FDF7AFFA0B00AA2252004C
:102EA000BA181360794B1B88002B06D07C4B00228C
:102EB0000021022018F092F905E07A4B002200214F
:102EC000022018F08BF9754B1B68632B0BDD734BDD
:102ED0001B68754A934206DC744B002200210220D5
:102EE00018F07CF905E0724B00220021022018F056
:102EF00075F9704B01221A606F4B01221A806F4BDB
:102F00000A221A806E4B01221A606B4B0020185E59
:102F10005C4B5A68B22464003B191B68591C3D196C
:102F20002960D318C2B21A705C4B1B686421180068
:102F3000FDF77CF9030064211800FDF75DFA0B0032
:102F40001800504B5A683B191B68591C3D192960E1
:102F5000D318C2B21A704F4B1B68FA2291001800A6
:102F6000FDF764F903001800464B5A683B191B68CB
:102F7000591C3D192960D318C2B21A704F4B00205A
:102F8000185E404B5A683B191B68591C26003C19B7
:102F90002160D318C2B21A7001F0F6FA03001AB217
:102FA000484B1A80474B0020185E364B5A68BB19B5
:102FB0001B68591CBC192160D318C2B21A70C820F2
:102FC00001F073FC3C4B00229B5E1C00334B1B68E2
:102FD00064211800FDF72AF903001D002D4B1B6822
:102FE000FA2291001800FDF721F90300364A0393F5
:102FF000AA235B00FB181B68029301950094130041
:1030000000220021022018F0E9F82C4B00229B5EE0
:103010001A002C4B00215B5E19002C4B0191009291
:1030200000220021022018F0D9F8BB191B68DAB27F
:10303000144B5A703823FA181248002301210AF061
:103040002DFB031E06D1224B00220021012018F087
:10305000C5F811E0BB6B002B0ED0BB6BFA229100C0
:103060001800FDF759F803001A001A4B00920022CD
:103070000021012018F0B2F8C046BD465DB0F0BD99
:1030800092FEFFFF00000020740300204803002090
:1030900044070020B8040020BC040020B404002031
:1030A000E8D4010820D501081B0C000078D50108E0
:1030B000C4D50108A8040020A4040020A604002010
:1030C000AC040020C004002028D60108B4D60108B2
:1030D00008D701084CD7010880B582B000AF7860EE
:1030E0000021022018F042FD034B180018F03AFFAF
:1030F000C046BD4602B080BDE802002080B582B067
:1031000000AF7860032002F05BF9C046BD4602B014
:1031100080BD80B582B000AF7860022002F050F927
:10312000C046BD4602B080BD80B582B000AF7860B9
:10313000012002F061F9C046BD4602B080BD00002A
:1031400080B586B004AF78607B68002B42D07B6886
:103150001B78002B3ED0032002F016F91F4B1800FD
:1031600018F000FF1E4B00220021022018F036F854
:103170007B689B687A68127B11007A68527D100028
:10318000184A0290019100931300002200210220AE
:1031900018F024F8144B00220021032018F01EF828
:1031A0007B689B78012B0FD17B68DB78002B01D0EB
:1031B0000E4B00E00E4B0F4A00931300002200213B
:1031C000032018F00BF805E00B4B00220021032030
:1031D00018F004F8C046BD4602B080BD00030020D0
:1031E000A8D70108D0D7010824D8010834D801088D
:1031F00038D8010840D8010854D8010880B582B0F9
:1032000000AF78607B68002B29D07B685B785BB26D
:10321000002B1ED1144B180018F01CFF012002F0E7
:10322000CFF8124B00220021022017F0D7FF7B6855
:103230009B78022B06D10E4B00220021022017F0B2
:10324000CDFF0CE00B4B00220021022017F0C6FF3F
:1032500005E0094B00220021022017F0BFFFC04605
:10326000BD4602B080BDC0463003002068D80108CA
:10327000A0D80108C8D80108F0D8010880B500AF6F
:10328000C046BD4680BD80B500AF0021012018F0CA
:103290006DFCC046BD4680BD80B500AF134B00221B
:1032A0001A60124B00225A60104B00229A600F4B9A
:1032B0000022DA600D4B5B6820221A430B4B5A60E8
:1032C0000A4B5B68002B07D1094B0022002100202C
:1032D00017F084FFC046FDE7044B0022DA60034B81
:1032E00003221A60C046BD4680BDC046C40400200B
:1032F0008CD9010880B500AF014B1800BD4680BDD8
:10330000C404002080B500AF224B234A1A60214B31
:103310000022DA631F4B802212065A601D4B0022E6
:10332000DA611C4B01225A631A4B00229A61194B35
:1033300000229A60174B07229A63164B01221A61EA
:10334000144B0022DA60134B202200219954114BB8
:103350002122002199540F4B00229A620D4B042226
:103360005A610C4B2C22002199540A4B180002F090
:10337000BDFC031E01D000F047FA064B00211800E7
:1033800003F0A6F9031E01D000F03EFAC046BD4688
:1033900080BDC046D40400200024014090B589B00F
:1033A00000AF78607B681B68124A93421ED10C24E0
:1033B0003B19180014231A00002119F06CFF0E4B62
:1033C0005A6B0D4B802189000A435A633B19102226
:1033D0001A603B1903225A603B1900229A603A197D
:1033E000A023DB051100180003F0DEFDC046BD463A
:1033F00009B090BD002401400010024080B582B0A9
:1034000000AF78607B681B680F4A934218D10F4B5E
:103410005A6A0E4B802189000A435A620B4B5A6A42
:103420000A4B0B490A405A62084B5A6B074B084932
:103430000A405A63A023DB051021180003F032FF75
:10344000C046BD4602B080BD0024014000100240CD
:10345000FFFDFFFF80B500AF024B034A1A60C04674
:10346000BD4680BDD404002000240140B0B584B026
:1034700000AF0E257B1900221A800023BB60BC1D03
:1034800000F03CF803002380184B180000F064F8AB
:103490000300BB60BB1D1B88BA6853431449180066
:1034A000FCF73AFE03001A00124B1B88D21A1300D5
:1034B0009B009B181B011B020F4A128811000D4A2A
:1034C00012888A1A11001800FCF7B0FE03009BB2A4
:1034D000F0225201944663449AB27B191A807B19F8
:1034E00000229B5E1800BD4604B0B0BD0000044839
:1034F000B80B00007A00F81F7E00F81F80B582B07C
:1035000000AFBB1D00221A8000233B600F4B180048
:1035100000F022F803003B603B68002B03D1BB1D89
:1035200000221A800CE00A4B1B881A00094B5343F7
:1035300039681800FCF7F0FD03001A00BB1D1A8063
:10354000BB1D1B881800BD4602B080BD00000244B0
:103550007800F81FB80B000090B587B000AF786016
:1035600000237B610C23FB18180008231A0000219C
:1035700019F091FEFFF7C6FEC0462C4B5B6808228F
:103580001340082BF9D12A4B5A6B294B8021890013
:103590000A435A63274B0021180003F099F80C24C2
:1035A0003B19254A1A603B19244A5A603A19214BA3
:1035B0001100180002F0E0FE21007B187A681A6002
:1035C0007B18802252015A607A181A4B1100180099
:1035D00002F0D2FE031E01D000F016F9154B1800C0
:1035E00002F094FD031E01D000F00EF901235A42AF
:1035F000104B1100180002F01DFE0E4B180002F0D7
:10360000D9FD0C4B180002F0ABFE03007B61094BA7
:10361000180002F0DFFC064B5A6B054B08490A40C4
:103620005A637B691800BD4607B090BD007000402A
:1036300000100240D4040020FFFF0700011000002A
:10364000FFFDFFFF80B582B000AF0C4B1A6B0B4B38
:1036500001210A431A63094B1B6B012213407B6053
:103660007B68002200210B2003F072F90B2003F08D
:1036700084F9C046BD4602B080BDC046001002407D
:1036800080B582B000AF02F0B7FA00F027F8FFF77C
:1036900055FA3B00104A1188198092789A70FB1DE8
:1036A0000A221A70BB1D01221A707B1D00221A709B
:1036B0003B1D02221A707A1DFB1D12781B789A425C
:1036C00003D13B1D64221A7002E03B1D00221A70D8
:1036D000FFF73DFAFCE7C046DCD9010890B59DB084
:1036E00000AF38243B19180038231A00002119F0C4
:1036F000D2FD2423FB18180014231A00002119F00E
:10370000CAFD3B00180024231A00002119F0C3FD54
:1037100021007B1802221A607B1800225A607B1855
:103720000122DA607B1801225A617B1810221A618B
:103730007B1802229A627B180022DA627B188022B0
:1037400012031A637B18802212045A637B18180034
:1037500004F0A0FD031E01D000F056F8274B9A6B31
:10376000264B802149050A439A63254B1B68254A4D
:103770001A40234B802109010A431A60C046204B9E
:103780005B6810221340102BF9D024217B180F22E4
:103790001A607B1803225A607B1800229A607B18FB
:1037A0000022DA607B1800221A617B1801211800C0
:1037B00005F044F9031E01D000F026F83B00AB22CF
:1037C0001A603B0000229A603B000022DA603B0056
:1037D00000225A613B00802292025A603B00002284
:1037E000DA613B00180005F04DFB031E01D000F02C
:1037F0000BF8C046BD461DB090BDC046001002404B
:1038000000700040FFE7FFFF80B500AFC046FDE756
:1038100080B590B000AF2C23FB18180014231A00B9
:10382000002119F038FD2823FB1800221A603B0004
:10383000180028231A00002119F02DFD414B424A9F
:103840001A60404B00225A603E4B1F229A603D4B4B
:103850003E4ADA603B4B00221A613A4B00225A6121
:10386000384B00229A61374B0022DA61354B180041
:1038700005F05EFC031E01D0FFF7C6FF2C217B186C
:1038800000221A707B1800225A707B1800229A704E
:103890007B180022DA607B1800221A617918294B04
:1038A0000022180005F0E2FC031E01D0FFF7ACFF78
:1038B00028217B1801221A707B1801225A707B186C
:1038C00001229A707B180022DA7079181D4B0022B1
:1038D000180005F0EBFD031E01D0FFF795FF3B003C
:1038E00000221A703B0000225A703B0000229A709E
:1038F0003B0000225A603B000022DA603B000022BD
:103900001A613B0000225A613B00A02212059A6115
:103910003B000022DA613B0020221E2199543B002B
:10392000802252005A623900064B0022180005F02E
:10393000B9FE031E01D0FFF767FFC046BD4610B0B9
:1039400080BDC046A805002000280040FF030000FD
:1039500090B591B000AF786008243B191800382367
:103960001A00002119F097FC7B681B68164A9342E5
:1039700026D13B1904221A603B19802252009A601A
:103980003B1900225A613B1900225A603B19002260
:103990009A623B19180004F07DFC031E01D0FFF76A
:1039A00033FF0A4B1A6D094B8021C9020A431A657D
:1039B00000220021022002F0CBFF022002F0DDFFF6
:1039C000C046BD4611B090BD002800400010024026
:1039D00080B582B000AF78607B689B6A1B041B0CCB
:1039E0001800BD4602B080BD80B58AB000AF164B4E
:1039F0001B7801225340DBB2002B20D03B1D20223C
:103A00001A603B1D802252025A603B1D180005F0CF
:103A100039FA031E01D0C046FDE7FFF7F9FE802307
:103A20005A000A4B1100180005F088FF074B1800D8
:103A300006F032F900F058F8034B01221A70002307
:103A40001800BD460AB080BDCC050020A8050020A6
:103A500090B583B000AF7860144B00229B5E0333B7
:103A60001C0000F061F802007B689B1A9C4204D2A3
:103A70000021022017F06AFE03E00121022017F066
:103A800065FE17F0C3FE0300012B06D1074B002291
:103A90009B5E1A007B689B1A7B607B68180000F0B5
:103AA00059F900231800BD4603B090BDCE05002093
:103AB00080B500AF0A4B1B68DB68FF221A40084B39
:103AC0001B6808490A43DA6080235A00044B11003E
:103AD000180005F033FF00231800BD4680BDC04626
:103AE000A80500207FFEFFFF80B500AF064A074B08
:103AF0001100180000F092FA0200054B1A60044B06
:103B00001B681800BD4680BDFC0500201006002083
:103B1000F805002080B500AF024B1B681800BD46B9
:103B200080BDC046F805002080B588B000AF0823EE
:103B3000FA183B1D1100180000F070FA0300FB6139
:103B4000034B1B68FA69D31A1800BD4608B080BD44
:103B5000F805002080B588B000AF0023FB61094B59
:103B60001B78002B08D00823FA183B1D1100180001
:103B700000F054FA0300FB61FB691800BD4608B071
:103B800080BDC046CC05002080B500AF03231800DF
:103B9000BD4680BDB0B582B000AF786079680A00DC
:103BA00000210B00510EDD010D43D4017D220023C5
:103BB00020002900FCF788FC02000B00130018000D
:103BC000BD4602B0B0BDF0B589B000AFF861FB6989
:103BD0003B6100237B613A697B69D10E5801F86033
:103BE000F8680843F8605301BB60BB68FC6839693A
:103BF0007A695B1A94411A002300910F980078604B
:103C000078680843786093003B603A697B6938685C
:103C1000796812184B415906D0090500280008435D
:103C20000500DB091E002B001800BD4609B0F0BDE1
:103C300080B584B000AF78600023FB600023BB60D8
:103C40007B681800FFF7A6FF0300FB60FFF782FF09
:103C50000300BB6000E0C046FFF77CFF0200BB68CA
:103C6000D31AFA689A42F6D8C046C046BD4604B098
:103C700080BD80B582B000AF786018F097FAC0467A
:103C8000BD4602B080BDB0B58CB000AF78600C23EB
:103C9000FA180823FB181100180000F0BFF9030000
:103CA000BB620023FB62FB6A9B05BA6A940A1C4351
:103CB000FB6A9D0A23007B62BB6A9B059B0D3B62EE
:103CC0003B6A1800FFF77FFF03009AB27B681A80F7
:103CD0007B6A1800BD460CB0B0BD000080B582B054
:103CE00000AF78607A68044B0021180005F0AAFF45
:103CF000C046BD4602B080BDA805002080B582B098
:103D000000AF78607A68044B0121180005F09AFF33
:103D1000C046BD4602B080BDA805002080B500AFFA
:103D2000044B0021180005F0A3FF03001800BD4656
:103D300080BDC046A805002080B500AF044B01211E
:103D4000180005F095FF03001800BD4680BDC04671
:103D5000A8050020F0B58DB000AF78602E257B1946
:103D600000221A802C23FB1800221A802A23FB1819
:103D700000221A802823FB1800221A802626BB194D
:103D800000221A801023FA189A4B043313CB13C263
:103D900003CB03C20C243B19964A92691A60FFF7C1
:103DA00087FE1023FB185B689AB27B1992498A1A26
:103DB0001A807B689BB29B059B0D99B27B197A197F
:103DC00012888A181A807B689B0A7B603B199A7854
:103DD000BB191A800AE07B68884A944663447B607A
:103DE00026217B181A887B1801321A807B68844A46
:103DF0009342F0D81023FB181A782823FB181A8056
:103E00000AE07B687F4A944663447B6028217B18E4
:103E10001A887B1801321A807A68E1231B019A42C2
:103E2000EFD21023FB185A782A23FB181A8008E0D7
:103E30007B683C3B7B602A217B181A887B18013207
:103E40001A807B683B2BF3D81023FB189B78190052
:103E50007B689AB22C23FB188A181A800DE02E2258
:103E6000BB18BA18128868498C4662441A802C2103
:103E70007B181A887B1801321A802E23FB181A88A7
:103E80008023DB009A42EAD20BE02C22BB18BA183E
:103E900012883C3A1A802A217B181A887B18013232
:103EA0001A802C23FB181B883B2BEED80BE02A2210
:103EB000BB18BA1812883C3A1A8028217B181A8835
:103EC0007B1801321A802A23FB181B883B2BEED863
:103ED0000BE02822BB18BA181288183A1A8026213B
:103EE0007B181A887B1801321A802823FB181B883C
:103EF000172BEED80C217B18DB7803221340DBB2A2
:103F0000002B19D17B185B78013B404AD35C1A0027
:103F100026243B191B88934228D93B1918887B1803
:103F20005B78013B394AD35C1900FCF765FA0B005A
:103F30001A003B191A8019E00C217B185B78013BB1
:103F4000334AD35C1A0026243B191B8893420DD9AF
:103F50003B1918887B185B78013B2D4AD35C19000C
:103F6000FCF74AFA0B001A003B191A802E23FB18A3
:103F70001B88214AD31A1A00264B5A60254BA022CF
:103F800012059A612C23FB181B88DAB2214B9A7018
:103F90002A23FB181B88DAB21E4B5A702823FB1801
:103FA0001B88DAB21B4B1A702623FB181B88D9B268
:103FB000184B202299541023FB18DA78154BDA702D
:103FC000144B0022DA61134B00225A61114B8022FC
:103FD00052005A620F4B0022DA600E4B00221A6127
:103FE0000C490D4B0022180005F05CFBC046BD4695
:103FF0000DB0F0BDF8050020FF03000080AEFEFF0D
:104000007F510100F0F1FFFF00FCFFFFECD9010838
:10401000E0D90108D0050020A805002080B586B0B1
:1040200000AF7860396000237B613968424B002221
:10403000180005F0DFF9414B1800FFF7C9FC030039
:104040003B6179683C4B0022180005F0DDFA3968C5
:10405000394B0022180005F0CDF9384B1800FFF756
:10406000B7FC02003B699342E5D17B68DB781A001C
:10407000334B534303339B087B617B68DB7803221C
:104080001340DBB2002B01D12E4B00E02E4BFB6026
:104090007B685B785A1E13001B019B1A9B009B18C0
:1040A0000133002B00DA01335B1019007B685B7869
:1040B000013B5B00FA68DA40130003221340CB1A7D
:1040C0007A69D3187B617B689B781A007B69D31867
:1040D000013B7B617A6913005B009B181A01D21ABD
:1040E00013019B1ADB017B613B689B7819003B68DD
:1040F0001B781A0013001B019B1A1A01D21A130114
:104100001A0010003B685B781A0013001B019B1A11
:104110009B00C318CB187A69D3187B617B699A021C
:104120003B685B68D31A094A944663447B617B69A8
:104130001800BD4606B080BDA8050020002800403C
:10414000B505000050554400A0AA9900FF030000E7
:1041500080B500AFC046BD4680BD80B500AFC0464B
:10416000BD4680BD80B584B000AFEFF310837B60A7
:104170007B68FB6072B6C04601F0EEFA0B4B18008C
:10418000FFF73CF90A4B1A68094B04210A431A60ED
:10419000FB68BB60BB6883F31088C0460121012027
:1041A00004F000F8C046BD4604B080BDD404002031
:1041B0000070004080B584B000AFEFF31083BB60A7
:1041C000BB68FB6072B6C046194B1A68184B0121D8
:1041D0000A431A60C046164B1B6804221340FAD0EB
:1041E000134B1A68124B802149040A431A60C046D7
:1041F0000F4B1A6880239B041340F9D00C4BDA68EC
:104200000B4B03210A43DA60C046094BDB680C22E2
:1042100013400C2BF9D101F099F9FB687B607B68A6
:1042200083F31088C046C046BD4604B080BDC0467A
:104230000010024080B500AF0121002003F05AFFBA
:10424000C046BD4680BD80B500AFC046BD4680BDFE
:1042500080B582B000AF78607B681B681B68012264
:104260001340012B0ED17B681B689B680122134011
:10427000012B07D17B681B6801225A607B681800FC
:1042800000F088F87B681B681B6802221340022B31
:104290000ED17B681B689B6802221340022B07D15A
:1042A0007B681B6802225A607B68180000F07AF86D
:1042B0007B681B681B6804221340042B0ED17B68AB
:1042C0001B689B6804221340042B07D17B681B6882
:1042D00004225A607B68180000F06CF87B681B6849
:1042E0001B6808221340082B0ED17B681B689B6853
:1042F00008221340082B07D17B681B6808225A60EC
:104300007B68180000F05EF87B681B681B68102251
:104310001340102B0ED17B681B689B681022134042
:10432000102B07D17B681B6810225A607B6818002D
:1043300000F050F87B681B681B6820221340202B7C
:104340000ED17B681B689B6820221340202B07D16D
:104350007B681B6820225A607B68180000F042F8D6
:104360007B681B681B6840221340402B0ED17B6882
:104370001B689B6840221340402B07D17B681B6859
:1043800040225A607B68180000F034F8C046BD46F1
:1043900002B080BD80B582B000AF7860C046BD4637
:1043A00002B080BD80B582B000AF7860C046BD4627
:1043B00002B080BD80B582B000AF7860C046BD4617
:1043C00002B080BD80B582B000AF7860C046BD4607
:1043D00002B080BD80B582B000AF7860C046BD46F7
:1043E00002B080BD80B582B000AF7860C046BD46E7
:1043F00002B080BD80B582B000AF7860C046BD46D7
:1044000002B080BD80B500AF0D4B9A6B0C4B802184
:1044100049050A439A6303F05FFE03F02DFF094B41
:104420001A68084B08210A431A60064B1A68054BA4
:1044300008218A431A6003F011FFC046BD4680BDC3
:10444000001002400020024080B500AFC046BD46CB
:1044500080BD80B500AFC046FDE780B500AFC04667
:10446000BD4680BD80B500AFC046BD4680BD80B5AD
:1044700000AF01F0E1FBC046BD4680BD80B500AF96
:10448000054B180002F06CFD044B180002F068FDAB
:10449000C046BD4680BDC046A40700209C07002042
:1044A00080B500AFC046BD4680BD000080B500AFFE
:1044B000054B180002F054FD044B180002F050FDAB
:1044C000C046BD4680BDC04694070020AC07002012
:1044D00080B500AF034BDB6E180002F032FCC04623
:1044E000BD4680BD1406002080B500AF034B180008
:1044F00006F084F8C046BD4680BDC04614060020C4
:1045000080B500AF034B1800FFF7A2FEC046BD46C2
:1045100080BDC0467805002080B500AF034B180071
:1045200005F0ACFAC046BD4680BDC046A8050020D7
:1045300080B500AF17F0CEFC00F0F6F800F0C2F93D
:1045400016F02CFE0B4B180016F0E0FE022016F0C1
:10455000EBFEFEF77FFF01F02DFA00F0F7FF00F011
:1045600055FA17F0E3F80121012017F01FF9C046B2
:10457000BD4680BDDD46000880B500AF17F078F974
:10458000C046BD4680BD0000F0B585B000AF0F2528
:104590007B1900221A700C26BC19FEF7AFFF03002E
:1045A0002380BB191B88184A934203D97B196422C4
:1045B0001A7021E00C23FB181A88E123DB009A42D1
:1045C00004D20F23FB1800221A7015E09623DB009B
:1045D000BB600C23FB181B880C4A944663447B6029
:1045E0007B6864225343B9681800FBF795FD03000C
:1045F0001A000F23FB181A700F23FB181B781800E2
:10460000BD4605B0F0BDC046B80B0000F8F8FFFF8E
:1046100080B582B000AFBB1D00221A80FEF726FFD6
:10462000031E00DAFF331B121AB2BB1D1A80BB1D1A
:104630001B881800BD4602B080BD90B585B000AFA4
:10464000786001F00BFB040001F01CFB0300E31891
:10465000FB6001F00DFB0300BB60FB681A0E7B687A
:104660000733D2B21A70FB681A0C7B680633D2B2D9
:104670001A70FB681A0A7B680533D2B21A707B681D
:104680000433FA68D2B21A70BB681A0E7B6803331F
:10469000D2B21A70BB681A0C7B680233D2B21A709D
:1046A000BB681A0A7B680133D2B21A70BB68DAB2EF
:1046B0007B681A70C046BD4605B090BDB0B500AF6E
:1046C00001F0CCFA040001F0D3FA03005C4001F0E1
:1046D000D9FA030063401800BD46B0BD90B587B05D
:1046E00002AF7860396008243B19180017F090FB7E
:1046F0002200BB181968BB1804229B5E094A78681F
:1047000000930B00102100F0A9F87B681800FBF75C
:10471000FBFC03009AB23B681A80C046BD4605B058
:1047200090BDC04650DA010890B58BB000AF14249C
:104730003B19180014231A00002118F0ACFD384B67
:10474000DA6A374B01210A43DA62354BDB6A012210
:1047500013403B613B69324BDA6A314B02210A4319
:10476000DA622F4BDB6A02221340FB60FB682C4BA2
:10477000DA6A2B4B04210A43DA62294BDB6A0422F2
:104780001340BB60BB68264BDA6A254B80210A4385
:10479000DA62234BDB6A802213407B607B683B1923
:1047A00003225A603B1900229A603B191D4A1A6085
:1047B0003A19A023DB051100180002F0F5FB3B19A4
:1047C000194A1A603B19194A1900100002F0ECFB53
:1047D0003B19174A1900100002F0E6FB3B19154A75
:1047E0001900100002F0E0FB0D4BDA6A0C4B0121BE
:1047F0008A43DA620A4BDA6A094B02218A43DA6297
:10480000074BDA6A064B04218A43DA62044BDA6A00
:10481000034B80218A43DA62C046BD460BB090BD8F
:1048200000100240FF9F0000FFFF00000004005046
:1048300000080050001C005080B500AF012104208A
:1048400016F084FFC046BD4680BD80B500AF002194
:10485000042016F07BFFC046BD4680BD0CB480B579
:1048600084B000AF786039601C23FB18FB603968A6
:10487000FB68BA69786817F0F7FEC046BD4604B019
:1048800080BC08BC02B0184780B582B000AF786029
:1048900000231800BD4602B080BD80B500AFFFF711
:1048A00059F903001800BD4680BD80B582B000AF45
:1048B00078607B681800FFF7BBF9C046BD4602B0C0
:1048C00080BD000090B58BB000AF14243B191800D8
:1048D00014231A00002118F0DEFC4A4BDA6A494B17
:1048E00002210A43DA62474BDB6A022213403B6132
:1048F0003B69444BDA6A434B02210A43DA62414B7B
:10490000DB6A02221340FB60FB683E4BDA6A3D4BD8
:1049100002210A43DA623B4BDB6A02221340BB608E
:10492000BB68384BDA6A374B02210A43DA62354BEF
:10493000DB6A022213407B607B6821007B18012226
:104940005A607B1801229A607B180322DA607B1878
:10495000802252011A600C007B182B4A19001000AB
:1049600002F022FB21007B18802292011A600C00C9
:104970007B18254A1900100002F016FB21007B1855
:104980008022D2011A600C007B181F4A1900100007
:1049900002F00AFB21007B18802212021A607B18A9
:1049A000194A1900100002F0FFFA80235B01164833
:1049B0000022190002F075FD80239B01124800229D
:1049C000190002F06EFD8023DB010F480022190060
:1049D00002F067FD80231B020B480022190002F041
:1049E00060FD084B5A6B074B8021C9030A435A6389
:1049F00001F052F901F05EF901F06AF9C046BD46D6
:104A00000BB090BD001002400004005080B500AF14
:104A1000C046BD4680BD000080B500AF104B114AB6
:104A20001A600F4BE12252025A600D4B00229A602D
:104A30000B4B0022DA600A4B00221A61084B082255
:104A40005A61074B00229A61054B180005F098FC4B
:104A5000031E01D0FEF7D8FEC046BD4680BDC0464D
:104A6000140600200044004090B595B000AF786077
:104A70003C23FB18180014231A00002118F00BFC2B
:104A800018243B19180024231A00002118F003FCF5
:104A90007B681B68574A934200D0A6E0564BDA6AFF
:104AA000554B01210A43DA62534BDB6A0122134062
:104AB0007B617B69504BDA6A4F4B01210A43DA6212
:104AC0004D4BDB6A012213403B613B694A4B9A6BB9
:104AD000494B802189020A439A63474B1A6B464B24
:104AE00001210A431A63444B1B6B01221340FB60F4
:104AF000FB68414B9A6B404B802189020A439A63C1
:104B00003B1902221A603B190422DA603B19180093
:104B100004F0B8F9031E01D0FEF776FE3C243B19E1
:104B200004221A603B1902225A603B1900229A6043
:104B30003B190322DA603B1904221A613A19A023B7
:104B4000DB051100180002F02FFA21007B18082263
:104B50001A607B1802225A607B1800229A607B1828
:104B60000322DA607B1804221A617A18A023DB057D
:104B70001100180002F018FA204B214A1A601F4B4E
:104B800004225A601D4B10229A601C4B0022DA60EE
:104B90001A4B80221A61194B00225A61174B0022CE
:104BA0009A61164B0022DA61144B00221A62134BF1
:104BB000180001F003FF031E01D0FEF725FE7B68FD
:104BC0000E4ADA660D4B7A689A62012200210B20A8
:104BD00001F0BEFE0B2001F0D0FE012200211C20BE
:104BE00001F0B6FE1C2001F0C8FEC046BD4615B05F
:104BF00090BDC046004400400010024098060020CE
:104C00008000024080B582B000AF78607B681B688E
:104C10000D4A934213D10D4B9A6B0C4B0C490A4031
:104C20009A63A023DB050C21180002F03BFB7B6894
:104C3000DB6E180001F03AFF1C2001F0AEFEC0460A
:104C4000BD4602B080BDC046004400400010024096
:104C5000FFFFFDFF80B582B000AF7860054B7A683A
:104C60001A60FEF7EFFCFFF7D7FE00231800BD46E1
:104C700002B080BDE406002080B500AF0B4B9A6AFD
:104C80000A4B802189020A439A62084B9A6A074BB1
:104C900007490A409A62074B1800FFF7B3FF0B2041
:104CA00001F07BFE00231800BD4680BD00100240CD
:104CB000FFFFFDFF1406002080B582B000AF7860D2
:104CC0000A00BB1C1A80BB1C1A887968044B1800A8
:104CD00005F002FC00231800BD4602B080BDC046AE
:104CE0001406002080B584B000AF78601D4B7A6850
:104CF0001A6008217B18802292031A607B181A48D8
:104D000019685A6806F022FDC046174B1B68DA691D
:104D100080235B021A4080235B029A42F5D0C04692
:104D2000114B1B68DA698023DB031A408023DB0305
:104D30009A42F5D10C4B1B689A680B4B1B6880217B
:104D4000C9030A439A60084B180006F065FD07493D
:104D5000054B0122180005F067FB00231800BD4633
:104D600004B080BDE806002014060020E006002004
:104D700080B582B000AF7860034B1B680020984775
:104D8000C046BD4602B080BDE406002080B582B0BA
:104D900000AF78600C4B1B68002B0AD07B68802228
:104DA0009B58002B05D1084B1B68084800220121A5
:104DB000984706497B680122180005F035FBC0467C
:104DC000BD4602B080BDC046E8060020E0060020D7
:104DD0000D4885460D480E490E4A002302E0D4587E
:104DE000C4500433C4188C42F9D30B4A0B4C002333
:104DF00001E013600432A242FBD300F0BFFE18F0C2
:104E000053FAFEF73DFCFEE70050002000000020B2
:104E1000D8010020D8E80108D8010020AC190020F2
:104E2000FEE7000080B582B000AF00237B600D4B31
:104E30000D4A1A600B4B180005F0C1F9031E0CD186
:104E4000084B180000F07EF8064B180000F030F810
:104E5000031E02D008235B427B607B681800BD46BE
:104E600002B080BDEC0600200030014090B589B052
:104E700002AFF860B960BB1D1A8006235B427B61FC
:104E8000BB1D1C88BA68F9680848FA239B00009388
:104E9000230004F0D9FF031E02D1BB1D1B887B61D8
:104EA0007B691800BD4607B090BDC046EC060020E7
:104EB00090B585B000AF78600F243B1900221A70BE
:104EC0007B681E4A1A607B68822252005A607B68A7
:104ED00000229A607B680022DA607B6800221A61F7
:104EE0007B6800225A617B68802292009A6103F0FD
:104EF000B3FF0300124A1100180000F067F8020027
:104F00007B68DA617B6800221A627B6800225A6241
:104F10007B6800229A627B680722DA627B6818004D
:104F200004F0F6FE031E02D03B1901221A700F2373
:104F3000FB181B781800BD4605B090BD003001403D
:104F40008096980090B589B000AF78601D4B5A6B81
:104F50001C4B802149010A435A630C243B1902224D
:104F60005A603B1900229A603B190322DA603B1910
:104F700000221A613B1980221A603A19A023DB052E
:104F80001100180002F010F83B1900221A613B19B9
:104F900040221A603A19A023DB051100180002F024
:104FA00003F83B1900221A613B1908221A603B19C9
:104FB000054A1900100001F0F7FFC046BD4609B0D0
:104FC00090BDC046001002400004005080B586B07D
:104FD00000AF7860396000237B617B683B61002310
:104FE000FB600DE00C4B7A699200D358FB607B6943
:104FF00001337B617B69072B07D83B695B083B6109
:105000003A693B689A42EDD800E0C046FB68180058
:10501000BD4606B080BDC0466CDA010880B582B0DE
:1050200000AF00237B60194B194A1A60194B1B68AB
:10503000591C184A1160002B23D1144B180002F0A0
:1050400069FD031E1DD1114B180000F073F87B6839
:10505000002B16D10D4B180000F01EF8031E03D0D4
:1050600008235B427B600CE0084B0021180002F033
:105070009BFF031E03D008235B427B6001E00023FB
:105080007B607B681800BD4602B080BD44070020ED
:10509000005400409007002090B585B000AF7860C4
:1050A0000F243B1900221A707B68204A1A607B6823
:1050B0001F4A5A607B6800229A607B680122DA608E
:1050C0007B6800221A617B6800225A617B6800229B
:1050D0009A617B680022DA617B6800221A627B6831
:1050E000180002F017FA031E02D03B1901221A70B1
:1050F0007B680021180002F057FF031E03D00F2326
:10510000FB1801221A707B680021180002F098FF3A
:10511000031E03D00F23FB1801221A700F23FB1864
:105120001B781800BD4605B090BDC0460054004035
:10513000BB7C700090B589B000AF7860224BDA6A12
:10514000214B02210A43DA621F4BDB6A0222134021
:10515000BB60BB680C217B18802252001A600C00D7
:105160003B1912225A603B1901229A603B19032213
:10517000DA603B1904221A613B19144A1900100025
:1051800001F012FF21007B18802292001A607B1828
:1051900012225A607B1801229A607B180322DA607F
:1051A0007B1804221A617B18084A1900100001F0CC
:1051B000FBFE054B9A6B044B802189030A439A63DB
:1051C000C046BD4609B090BD00100240000400502A
:1051D00090B583B000AF02003960FB1D1A70FB1D53
:1051E0001B787F2B28D82F4AFB1D1B785BB29B08AE
:1051F000C0339B009B58FA1D1278110003220A400D
:10520000D200FF2191400A00D2431A4011003B68AE
:105210009B01FF221A40FB1D1B781800032303404B
:10522000DB009A401F48FB1D1B785BB29B080A43BA
:10523000C0339B001A5031E01B4AFB1D1B7819003C
:105240000F230B40083B9B0806339B00D318043305
:105250001B68FA1D1278110003220A40D200FF21B8
:1052600091400A00D2431A4011003B689B01FF2283
:105270001A40FB1D1B78180003230340DB009A40F3
:105280000948FB1D1B781C000F232340083B9B088B
:105290000A4306339B00C31804331A60C046BD4658
:1052A00003B090BD00E100E000ED00E080B58CB0FF
:1052B00000AF0200FB1D1A70FB1D1B78032B2FD0C3
:1052C0003BDC022B1FD038DC002B02D0012B0DD091
:1052D00033E02A4BDA6A294B02210A43DA62274B70
:1052E000DB6A02221340BB61BB6926E0234BDA6A0A
:1052F000224B01210A43DA62204BDB6A0122134070
:105300007B617B6919E01D4BDA6A1C4B02210A4361
:10531000DA621A4BDB6A022213403B613B690CE004
:10532000164BDA6A154B02210A43DA62134BDB6A29
:1053300002221340FB60FB68C046FB1D1A78104B2D
:105340005200D35A1A001C217B181A607B180122C4
:105350005A607B1800229A607B180322DA60FB1DDA
:105360001A78084B9200D3587A181100180001F0EF
:105370001BFEC046BD460CB080BDC04600100240BA
:105380008CDA01084C00002080B582B000AF02002A
:10539000FB1D1A70FB1D1A78074B9200D058FB1D9D
:1053A0001A78064B5200D35A0122190002F079F8FC
:1053B000C046BD4602B080BD4C0000208CDA01081A
:1053C00080B582B000AF0200FB1D1A70FB1D1A7879
:1053D000074B9200D058FB1D1A78064B5200D35A47
:1053E0000022190002F05DF8C046BD4602B080BD43
:1053F0004C0000208CDA010880B582B000AF0200BA
:10540000FB1D1A70FB1D1A78074B9200D058FB1D2C
:105410001A78064B5200D35A190002F05FF8C046C2
:10542000BD4602B080BDC0464C0000208CDA0108A9
:1054300080B588B000AF0200FB1D1A70BB1D0A1CAE
:105440001A702B4BDA6A2A4B02210A43DA62284B84
:10545000DB6A02221340BB60BB68254B5A6B244BAE
:1054600001210A435A63BB1D1B78002B17D104236B
:105470001A000C217B181A607B1800225A607B18D6
:1054800002229A607B180322DA60FB1D1A78194BFE
:105490009200D3587A181100180001F085FDBB1D49
:1054A0001B78012B1FD104231A000C217B181A60D2
:1054B0007B1800229A607B180F4A5A60FB1D1A78ED
:1054C0000C4B9200D3587A181100180001F06CFDB3
:1054D00006235BB203211800FFF77AFE06235BB2B6
:1054E000180001F04AFAC046BD4608B080BDC0466B
:1054F000001002405C0000200000111080B500AFD9
:1055000005231800BD4680BD80B582B000AF020003
:10551000FB1D1A70FB1D1B78012B0BD18023590139
:10552000A023DB050122180001F0BBFF0520FFF7D7
:10553000BCF907E080235901A023DB0500221800F5
:1055400001F0AFFFC046BD4602B080BD90B5A7B028
:1055500000AF80243B19180014231A00002117F013
:105560009AFE784BDA6A774B02210A43DA62754B6E
:10557000DB6A022213407B627B6A724BDA6A714BF0
:1055800002210A43DA626F4BDB6A022213403B625C
:105590003B6A6C4BDA6A6B4B02210A43DA62694B55
:1055A000DB6A02221340FB61FB69664BDA6A654BDA
:1055B00004210A43DA62634BDB6A04221340BB61B5
:1055C000BB693B1902229A603B190322DA6000236F
:1055D0009422BA18136020E05B4B94217A18126869
:1055E0009200D25880203B185A60584B7A181268A3
:1055F0005200D35A1A003B181A60554B0C007A1807
:1056000012689200D3583A181100180001F0CCFC2F
:105610003B191B6801333A1913609423FB181B686C
:10562000032BD9D92823FB18180000F007FA80248F
:105630003B19802212021A603B1901225A603B1961
:1056400001229A603F4BDA6A3E4B01210A43DA623B
:105650003C4BDB6A012213407B617B693A19A02332
:10566000DB051100180001F09FFC80231902A02324
:10567000DB050122180001F014FF324BDA6A314BCE
:1056800001210A43DA622F4BDB6A012213403B619E
:105690003B692C4BDA6A2B4B01210A43DA62294B16
:1056A000DB6A01221340FB60FB68264BDA6A254B5C
:1056B00004210A43DA62234BDB6A04221340BB60F5
:1056C000BB68204BDA6A1F4B04210A43DA621D4B88
:1056D000DB6A042213407B607B683B1901225A601D
:1056E0003B1900229A603B190322DA603B198022A1
:1056F00052011A603A19A023DB051100180001F0CD
:1057000053FC3B1902221A603A19A023DB05110051
:10571000180001F049FC3B1902221A603B190D4A9E
:105720001900100001F040FC3B1904221A603B19DB
:10573000084A1900100001F037FCC046BD4627B0EA
:1057400090BDC04600100240C8DA0108C0DA010866
:10575000600000200008005080B586B000AF3B001C
:10576000180014231A00002117F095FD3B000222B7
:105770009A6000237B6118E0104B7A699200D2583E
:105780003B005A600E4B7A695200D35A1A003B0014
:105790001A600C4B7A699200D3583A001100180035
:1057A00001F002FC7B6901337B617B69032BE3D948
:1057B00000F0A4F9C046BD4606B080BDC8DA0108B5
:1057C000C0DA01086000002080B586B000AF7860C4
:1057D000EFF31083FB60FB683B6172B6C0460023A9
:1057E0007B612FE07B69DA001D4BD0181D4B7A6975
:1057F0009200D358190001F0A1FB7B69DA00184B25
:10580000D0187B699B007A68D3181B681A000021A6
:1058100001F073FB144A7B69D31800201856134B10
:105820007A699200D3580022190001F091F80E4ACB
:105830007B69D3181B785BB2180001F09EF87B6976
:1058400001337B617B69032BCCD93B69BB60BB68AF
:1058500083F31088C046C046BD4606B080BDC04632
:10586000940700209CDA0108BCDA0108ACDA0108D0
:1058700080B582B000AF786000231800BD4602B04A
:1058800080BD000080B582B000AF0200FB1D1A7021
:10589000FB1D1B78042B2ED89A00234BD3181B68B2
:1058A0009F46A023DB0501220221180001F0F9FD2B
:1058B00036E01E4B01220421180001F0F2FD2FE01A
:1058C0001A4B01220221180001F0EBFD28E0A02371
:1058D000DB0500220221180001F0E3FD134B00223A
:1058E0000421180001F0DDFD104B002202211800F8
:1058F00001F0D7FD14E0A023DB05002202211800EF
:1059000001F0CFFD094B00220421180001F0C9FD70
:10591000064B00220221180001F0C3FD00E0C04642
:10592000C046BD4602B080BDD8DA0108000800506C
:1059300080B582B000AF786001231800BD4602B088
:1059400080BD000080B586B000AF3B1D1800142359
:105950001A00002117F09FFC3B1D01225A603B1DDD
:1059600000229A603B1D0322DA603B1D01221A606F
:105970003B1D0F4A1900100001F016FB0C4B0022D2
:105980000121180001F08DFD0120FEF78EFF3B1D67
:1059900000225A603B1D064A1900100001F004FB6A
:1059A0000620FEF782FFC046BD4606B080BDC04659
:1059B0000008005080B500AFFFF734FAC046BD467E
:1059C00080BD90B585B000AF0200BB1D1A800E24CB
:1059D0003919BB1D01221800FFF748FA3B191B8833
:1059E0001800BD4605B090BD80B582B000AF7860AC
:1059F0007B68002B08D180231902A023DB0500223D
:105A0000180001F04EFD07E080231902A023DB05FA
:105A10000122180001F045FDC046BD4602B080BD20
:105A200080B500AF044B0221180001F01DFD0300FA
:105A30001800BD4680BDC0460004005090B58BB034
:105A400000AF78602B4BDA6A2A4B02210A43DA62F4
:105A5000284BDB6A022213403B613B69254BDA6A23
:105A6000244B01210A43DA62224BDB6A01221340F4
:105A7000FB60FB681F4BDA6A1E4B01210A43DA62A6
:105A80001C4BDB6A01221340BB60BB6814243B192A
:105A900002225A603B1902229A603B190322DA6003
:105AA0003B1900221A613B1980221A603A19A0237F
:105AB000DB051100180001F077FA3B1900221A618A
:105AC0003B1940221A603A19A023DB051100180087
:105AD00001F06AFA3B1900221A613B1908221A6088
