:020000040800F2
:100000000050002019500008894600089346000857
:1000100000000000000000000000000000000000E0
:100020000000000000000000000000009B460008E7
:100030000000000000000000A5460008AF460008D0
:1000400069500008695000085947000869500008C5
:1000500069500008BD460008E1460008ED4600086A
:1000600069500008695000086950000811470008ED
:1000700069500008414700086950000869500008AD
:10008000695000086950000869500008000000002D
:10009000695000086950000869500008695000085C
:1000A000695000086950000869500008695000084C
:1000B0002947000869500008000000006950000846
:1000C00010B5064C2378002B07D1054B002B02D02E
:1000D000044800E000BF0123237010BD3C02002053
:1000E00000000000E8E20108044B10B5002B03D02B
:1000F0000349044800E000BF10BDC04600000000F6
:1001000040020020E8E201080023C25C0133002A1B
:10011000FBD1581E7047000003B4714649084000E7
:100120004900095E49008E4403BC70470022430821
:100130008B4274D303098B425FD3030A8B4244D3AF
:10014000030B8B4228D3030C8B420DD3FF220902F1
:1001500012BA030C8B4202D31212090265D0030BB0
:100160008B4219D300E0090AC30B8B4201D3CB03A6
:10017000C01A5241830B8B4201D38B03C01A5241E8
:10018000430B8B4201D34B03C01A5241030B8B42EA
:1001900001D30B03C01A5241C30A8B4201D3CB02D5
:1001A000C01A5241830A8B4201D38B02C01A5241BA
:1001B000430A8B4201D34B02C01A5241030A8B42BD
:1001C00001D30B02C01A5241CDD2C3098B4201D3D5
:1001D000CB01C01A524183098B4201D38B01C01A53
:1001E000524143098B4201D34B01C01A52410309CA
:1001F0008B4201D30B01C01A5241C3088B4201D379
:10020000CB00C01A524183088B4201D38B00C01A25
:10021000524143088B4201D34B00C01A5241411A4C
:1002200000D20146524110467047FFE701B5002059
:1002300000F0F0F802BDC0460029F7D076E770471D
:1002400003460B437FD4002243088B4274D3030937
:100250008B425FD3030A8B4244D3030B8B4228D3D8
:10026000030C8B420DD3FF22090212BA030C8B42FE
:1002700002D31212090265D0030B8B4219D300E09E
:10028000090AC30B8B4201D3CB03C01A5241830B23
:100290008B4201D38B03C01A5241430B8B4201D3D3
:1002A0004B03C01A5241030B8B4201D30B03C01AFC
:1002B0005241C30A8B4201D3CB02C01A5241830A76
:1002C0008B4201D38B02C01A5241430A8B4201D3A5
:1002D0004B02C01A5241030A8B4201D30B02C01ACF
:1002E0005241CDD2C3098B4201D3CB01C01A524136
:1002F00083098B4201D38B01C01A524143098B42BF
:1003000001D34B01C01A524103098B4201D30B01A7
:10031000C01A5241C3088B4201D3CB00C01A5241CC
:1003200083088B4201D38B00C01A524143088B4291
:1003300001D34B00C01A5241411A00D2014652412A
:10034000104670475DE0CA0F00D04942031000D349
:100350004042534000229C4603098B422DD3030A9E
:100360008B4212D3FC22890112BA030A8B420CD3AE
:10037000890192118B4208D3890192118B4204D3D7
:1003800089013AD0921100E08909C3098B4201D357
:10039000CB01C01A524183098B4201D38B01C01A91
:1003A000524143098B4201D34B01C01A5241030908
:1003B0008B4201D30B01C01A5241C3088B4201D3B7
:1003C000CB00C01A524183088B4201D38B00C01A64
:1003D0005241D9D243088B4201D34B00C01A52413B
:1003E000411A00D20146634652415B10104601D3C8
:1003F0004042002B00D54942704763465B1000D352
:10040000404201B5002000F005F802BD0029F8D0F7
:1004100016E770477047C0468446101C62468C46FB
:10042000191C634600E0C0461FB501F02DFD0028F1
:1004300001D40021C8421FBD10B501F077FC404235
:10044000013010BD10B501F01FFD002801DB0020B8
:1004500010BD012010BDC04610B501F015FD0028EB
:1004600001DD002010BD012010BDC04610B501F017
:1004700099FC002801DC002010BD012010BDC04601
:1004800010B501F08FFC002801DA002010BD01201A
:1004900010BDC0468446081C6146FFE71FB500F04A
:1004A0003FFB002801D40021C8421FBD10B500F059
:1004B000C3FA4042013010BD10B500F031FB0028F6
:1004C00001DB002010BD012010BDC04610B500F0BA
:1004D00027FB002801DD002010BD012010BDC04613
:1004E00010B500F0D1FA002801DC002010BD012079
:1004F00010BDC04610B500F0C7FA002801DA002090
:1005000010BD012010BDC046002B15D1002A13D10B
:10051000002906DB01DC002806D00020C04341088A
:1005200002E080210906002007B4024801A140181A
:10053000029003BDE1FEFFFF03B4684601B50298D7
:1005400000F050F9019B9E4602B00CBC7047C046BB
:10055000002B11D1002A0FD1002900D1002802D090
:100560000021C943081C07B4024802A140180290A8
:1005700003BDC046A1FEFFFF03B4684601B5029863
:1005800000F064F8019B9E4602B00CBC7047C04668
:10059000F0B515042D0C0F0001002E00C646844650
:1005A0000004140C000C090C46434D4360436143A6
:1005B0004019340C241800B5A54203D9802040020C
:1005C00080464144250C6D18614659437A433004F6
:1005D00049192404000C2018891880BCB846F0BDC5
:1005E0009E2110B5C905041CFFF784FF002803D124
:1005F000201C00F0A7FC10BD9E21201CC90500F0A6
:10060000D9FA00F09FFC80231B069C466044F2E769
:1006100070B500220C4B04000D00FFF731FF0028DD
:1006200004D12000290002F09DFA70BD064B002283
:100630002000290001F004FF02F094FA80231B0639
:100640009C466044F1E7C0460000E041F0B55746E3
:100650004E464546DE46E0B504000D0092469946FA
:1006600083B08B4230D82DD04946504602F06CFB07
:1006700029000600200002F067FB331A9846203B51
:100680009B4633D45A465346934042461F00534636
:1006900093401E00AF423AD8AF4200D178E05B46AB
:1006A000A41BBD41002B00DA75E00022002300925C
:1006B000019301235A4693400193012342469340FC
:1006C000009328E08242CFD90022002300920193B8
:1006D0000C9B002B01D01C605D600098019903B059
:1006E000F0BCBB46B246A946A046F0BD4246202318
:1006F0009B1A5246DA40414613004A468A40170088
:1007000042461F43534693401E00AF42C4D90022C5
:100710000023009201934346002BD9D0FB077208B7
:100720001A4346467B080EE0AB4201D1A2420CD8E8
:10073000A41A9D41012024196D410021013E241875
:100740004D41002E06D0AB42EED9013E24196D4139
:10075000002EF8D1009801995B4600196941002BE1
:1007600024DB2B005A464446D3402A00E2401C00BA
:100770005B461500002B2ADB26009E403300260036
:100780004746BE403200801A9941009001919FE790
:10079000A342BCD883E74246202300219B1A0022B3
:1007A000009101920122DA40019286E7424620231D
:1007B0009B1A2A0046469A402300F34044461343BE
:1007C0002A00E2401C005B461500002BD4DA4246AA
:1007D0002F002023260097409B1ADE403B00334326
:1007E000CDE7C046F8B5CE46474680B59146984617
:1007F00004000D0002F0B4FA07000E0002000B0026
:1008000048464146FFF7C4FE241A8D41089B380034
:1008100031001C605D60C0BCB946B046F8BDC04642
:10082000F0B54F464646D6464502C0B547000C1CBB
:100830006D0A3F0EC60F002F66D0FF2F6CD000232D
:10084000EA00802599469A46ED0415437F3F6002F1
:100850006100430A9846090EE40F002948D0FF2999
:1008600010D08022D800D2040243904600207F3965
:100870004A4633007F1A02436C4992008A5863400B
:10088000DBB29746002B6DD10220FF3F33E00023FF
:1008900098462600454682465346022B00D17FE00B
:1008A000032B00D194E0012B17D038007F300028B3
:1008B0005FDD6B0704D00F232B40042B00D00435E1
:1008C0002B0103D538005A4B80301D40FE2867DCD1
:1008D000AD016D0AC0B202E01E0000200025C00577
:1008E0002843F6073043E0BCBA46B146A846F0BDFF
:1008F000002B2BD101204A4633004E49024392007F
:100900008A586340DBB29746002D13D104239946E1
:10091000033B00279A469AE7002D05D10823994604
:10092000063BFF279A4692E70C239946093BFF278F
:100930009A468CE7280002F0E9F97627431F9D408C
:1009400000237F4299469A463F1A80E7180002F03A
:10095000DDF94246431F76219A404942091A9046E2
:10096000002085E7FF21032082E71E00FF200025ED
:10097000B5E701231B1A1B2BAFDC9E372900BD40B6
:10098000D9406A1E95410D436B0704D00F232B40BD
:10099000042B00D004356B0144D5012000259EE7CF
:1009A000FF2000259BE780250026FF20ED0396E72A
:1009B000002398468020C003054209D043460342E5
:1009C00006D1454605436D022600FF206D0A86E7E5
:1009D0008020C00305436D02FF206D0A7FE741467A
:1009E0006A014801824219D21B210025013F0126DC
:1009F00014006D005200002C01DB904201D8121A45
:100A0000354301390029F3D1501E824138007F302F
:100A10001E001543002800DD4BE7AAE71A21012537
:100A2000121AE4E7AD0100206D0A58E7B4F5010899
:100A3000FFFFFFF7F4F5010870B542004E024C00CD
:100A400045026D0A120EC30F760A240EC90FFF2A43
:100A50000FD0FF2C11D00120A24200D070BDB542B2
:100A6000FCD18B420DD0002AF8D12800451EA841A8
:100A7000F4E70120002DF1D1EBE70120002EEDD1AC
:100A8000E9E70020EAE7C046F0B5420046024D0221
:100A90004C00C30F760A120E6D0A240EC80FFF2AEF
:100AA0001FD0FF2C10D0002A1FD171427141002CA1
:100AB00001D1002D1ED000290ED183421ED002216B
:100AC000581E08400138F0BD002D26D1002AF4D16F
:100AD000714271410029F0D00028F4D10120404238
:100AE000F1E7002E19D1FF2CEED0002CE5D1002D1E
:100AF000E3D1E4E70020002EE5D0E0E7A24205DCE8
:100B0000EADBAE4202D8E7D30020DCE741424141B4
:100B10004842022108400138D5E702204042D2E78E
:100B2000F0B5420046024D024C00C30F760A120E89
:100B30006D0A240EC80FFF2A0DD0FF2C0FD0002AFB
:100B400023D171427141002C0FD1002D0DD1002015
:100B5000002E14D00DE0002E10D1FF2C15D1002D49
:100B60000CD1002A03D171427141002908D183427E
:100B700010D00221581E0840013800E00220F0BDCC
:100B80000028FCD101204042F9E7002CEFD1002DD4
:100B9000EDD1EEE7A24205DCF2DBAE4202D8EFD3A4
:100BA0000020ECE74142414148420221084001381F
:100BB000E5E7C046F0B54646D6464F4643025B0AD7
:100BC000DA0094464A02C0B54400560A051CB046F5
:100BD000240E4E0092091F0020009246ED0F360EA3
:100BE000C90FFF2E00D17FE0012251408D4251D02C
:100BF000A21B9146002A00DC7EE0002E00D199E085
:100C0000FF2C00D18CE080235246DB041A4392462D
:100C10004A4601231B2A08DC53462021D340891A67
:100C200052468A40511E8A4113436246D31A5A01E2
:100C300000D4F3E09B019E09300002F067F805380C
:100C40008640844200DDF7E03200041B202001349E
:100C5000E240041BA64033005E1EB3410024134350
:100C60005A0704D00F221A40042A00D004335A0134
:100C700000D4D6E0621CFE2C00D1DAE09B015F0AB2
:100C8000D0B2C0053843ED072843E0BCBA46B146B0
:100C9000A846F0BDA21B9146002A63DD002E00D1BC
:100CA00099E0FF2C3CD080235246DB041A43924645
:100CB0004A4601231B2A08DC53462021D340891AC7
:100CC00052468A40511E8A41134363445A0100D45C
:100CD000A4E00134FF2C00D1ABE0012297491A4077
:100CE0005B080B401343BBE7002A32D08D4235D05E
:100CF000FF2252429146A1444A46002A51D0301B5D
:100D0000002C00D09CE06346002B00D1DFE00138CE
:100D1000002800D1F7E0FF2E00D099E00D004346F7
:100D2000002B00D185E08027FF031F437F02FF20B7
:100D30007F0AA6E75246002A74D00122524290460A
:100D4000C1444A46002A00D1C8E0FF2C00D05FE72A
:100D5000E6E701225140A94200D049E7FF22524272
:100D60009146A1444A46002A43D0311B002C00D1B1
:100D70008CE0FF2E00D192E080236246DB041A4310
:100D8000944601231B2909DC202063466246CB40A0
:100D9000411A8A401100481E81410B4334005344DC
:100DA00094E7FE22661C324264D1002C00D082E01F
:100DB0006346002B00D1ABE05346002B00D160E727
:100DC000634652469B1A5A0100D4AAE06346524633
:100DD0000D00D31A44E75246002A23D00122524282
:100DE0009046C1444A46002A75D0FF2C00D05FE7E8
:100DF00096E7FE260134264253D1002872D163467D
:100E0000002B00D193E05346002B00D139E7634417
:100E100000245A0102D54A4A013413405A0700D02F
:100E200020E7DB08FF2C00D17AE75B025F0AE0B223
:100E300027E7FF20002724E7414B241A33400FE720
:100E4000FF2E00D16AE780236246DB041A439446F2
:100E500001231B2809DC202463466246C340201A74
:100E600082401000441EA041034352460D0034004E
:100E7000D31ADCE6634652469E1A730117D4002E3D
:100E800000D0D9E6002500200027FAE66346002BB3
:100E900044D0013900294CD0FF2E00D071E74346E1
:100EA0003EE7FF2CC5D0524662445308B6E763467E
:100EB0000D00D61AC0E66246002A16D15346002B12
:100EC00000D02BE780270025FF20FF03D9E60D0087
:100ED00043463400A6E753466344F7E6634652466A
:100EE0009B1AA4E66246002AD9D05246002A00D1B5
:100EF00016E78022D203134200D111E74046104288
:100F000000D00DE70AE752460D003400D31A8EE6F2
:100F10005346002B08D00D004746B2E64346340046
:100F200080E7002B00D079E700250027A9E6474697
:100F3000A7E6534634006344C8E6C046FFFFFF7D82
:100F4000FFFFFFFB41024200C30F490A0020120EBF
:100F50007E2A03D99D2A02D9094A98187047802011
:100F600000040143952A07DC9620821AD1404842AA
:100F7000002BF3D10800F1E7963A9140F7E7C0461D
:100F8000FFFFFF7F70B5002813D0C317C5185D4061
:100F9000C40F280001F0BAFE9E2301001B1A962BF5
:100FA0000FDC082801DD08398D406D026D0AD8B2CA
:100FB00002E0002400200025C0052843E407204368
:100FC00070BD992B0BDD05222E00121AD6400200AF
:100FD0001B3295402800451EA841350005430529D0
:100FE00001DD4A1F95402A00084E3240680709D0AB
:100FF0000F202840042805D00432500102D59F2339
:1010000032405B1A9201550AD8B2D5E7FFFFFFFBC9
:1010100070B5051E0ED001F079FE9E2304001B1A48
:10102000962B0CDC082801DD083CA5406D026D0AFA
:10103000D8B201E000200025C005284370BD992BDF
:1010400009DD020029001B3291404A1E9141052210
:10105000121AD5400D43052C01DD621F9540290071
:10106000084E31406A0709D00F202840042805D0D7
:1010700004314A0102D59F2331401B1B89014D0ACF
:10108000D8B2D9E7FFFFFFFBF0B54F46D64646463C
:101090000D0001001800C0B517002B035A0A4B0FB2
:1010A0001343CA00914602036E004100520AEC0F3E
:1010B0007D0F1543760D490DC00F8246AC46FF00EB
:1010C000721A844200D198E0002A00DC81E00029F5
:1010D00000D1B6E0C9498E4200D172E180212800DA
:1010E000090408438446382A00DD5EE11F2A00DD3A
:1010F000EEE1202039006546801A8740D1408540C6
:101100000D4339004F1EB9416746D7402943DB1BC9
:101110004A46551AA945894149425B1A98464346B1
:101120001B0200D4CCE043465B025B0A9846434670
:10113000002B00D12CE1404601F0E8FD0100083908
:10114000202228004346521A8B40D0408D40034352
:101150008E4200DD17E18E1B721C1F2A00DDA7E105
:10116000202118002E00891A8D408840D640D34097
:10117000691E8D4130439846002605436B0709D010
:101180000F232B40042B05D02B1DAB42AD416D42EC
:10119000A8441D0043461B0200D494E0974B721CE8
:1011A0009A4200D19DE04146954BED0819400B0055
:1011B000520549075B0229431B0B520D12051343CD
:1011C000E407234308001900E0BCBA46B146A8462C
:1011D000F0BD002A43D08A1B002E00D02AE14C46E5
:1011E0001C4300D1D1E1541E012A00D11FE2834DDE
:1011F000AA4200D172E2220023E1002A00DC98E03A
:10120000002942D07D498E4200D1DAE080212800B9
:10121000090408438446382A00DD29E11F2A00DC3E
:1012200087E1110065462039CD40202A04D04020B6
:101230006146821A91400F4339004F1EB9410D4358
:101240001BE12900394300D1B5E0511E012A00D12C
:10125000ABE16A48824200D1B2E10A0043E7694942
:10126000751C0D4200D0CFE0002E00D093E149461E
:10127000194300D1D1E16146394300D0E3E1494649
:101280005807C9080143DB0826E02900394300D18B
:1012900091E0511E012A05D05848824200D18FE1C9
:1012A0000A00B8E73D004D444D45894163449846E6
:1012B00049428844434602261B0200D5EBE0013E2A
:1012C0006B0700D05CE74346E9085A071143320038
:1012D000DB084A48824221D01B0352051B0B520DEA
:1012E0006CE70023002169E72A003A4369D04A46A7
:1012F0005807D108DA0880231B0308431A4207D095
:101300002900ED081D4203D12A00FF084807384391
:10131000430FC1005B07C908194313000A001A43B1
:1013200000D113E28022120313431B03334A1B0B29
:1013300044E7002A4BD08A1B002E00D1E7E02F485B
:10134000814200D195E1802000040343382A00DD6A
:1013500043E11F2A00DDDBE120201D004E46801AFC
:101360008540D64035434E4686403000D340461E29
:10137000B0419C440543ED19BD429B415B4263442F
:1013800098460E007FE01E4A761A13409846F5E60E
:10139000280001F0BBFC010018311F2900DCCFE65A
:1013A0002B00083883400025D2E662463A431100FC
:1013B0004F1EB941ACE649465807C9080143DB084E
:1013C00087E749465A07C9081143DB08A6E70D49D4
:1013D000701C084200D0BBE0002E00D014E149464A
:1013E000194300D175E12900394300D07EE1494617
:1013F0005807C9080143DB086EE7C046FF07000035
:10140000FFFF7FFFFE0700004946CD1B6146581ACB
:10141000A94589414942884601004046091A884643
:10142000090200D5A6E04146294300D07FE600230B
:10143000002451E7C74CA14200D1C7E08024240416
:101440002343382A54DC1F2A00DDCCE02024484600
:10145000A41A1D004E46A040D640A5400400D3402B
:1014600062463543661EB441D31A9C46254344E088
:1014700062463A4315006F1EBD414D444D458941BA
:1014800049428846984443461B0200D418E7B14BB2
:1014900001369E4249D04246AF4B01211A4013000B
:1014A0006A080D401543D9075B0898460D4365E669
:1014B00018001F3EF040202A03D040218A1A934092
:1014C0001D43691E8D410023002698460543F7E61B
:1014D000110065462039CD40202A04D040206146C5
:1014E000821A91400F4339004F1EB94129430FE63C
:1014F0004A4613431D006B1E9D417D1BAF429B411D
:1015000062465B42D31A984654460E0007E64846A8
:10151000184300D1B3E0501E012A00D10DE18D4DDA
:10152000AA4200D1A5E0020010E73200002300210A
:1015300044E620213800891A65468F408D40D0400E
:10154000791E8F4105433D436746D740DB1994E739
:10155000804A904200D1ECE039004944494592412B
:10156000634452429B18DD0749085B089846060011
:101570000D43A5E64A46BD1AAF428941624649423B
:10158000D31A5B1A98465446D1E56C07F9082143F3
:10159000EB0804009DE64A461A4375D1614639437B
:1015A00014D1802300241B03BCE64A46D51BA94561
:1015B0008941624649429B1A5B1A98460126AEE56C
:1015C0004A46D1085A071143DB08A7E66346F908E3
:1015D0005A0754461143DB08A0E64A4613431D0050
:1015E0006B1E9D41C7E614001E00203CE640202AE9
:1015F00005D04024A21A93404A461A4391464D46CC
:101600006B1E9D41354378E74A461A4300D06BE68E
:101610006B07F9081943EB0880E66146394354D05B
:101620006346F9085C072143DB08040054E64A4698
:10163000BD1AAF42894162464942D31A5B1A9846A5
:10164000040001266BE54A46D51BA945894162463F
:1016500049429A1A521A9046120232D54A46BD1A87
:10166000AF42894162464942D31A5B1A9846040048
:1016700084E56346F9085A071143DB084EE6F9088A
:1016800068070143EB0824E662463A4300D198E636
:101690004A46D1085A071143DA0880231B031A422D
:1016A00008D06046C5081D4204D154462A00F908F6
:1016B000430719434B0FC9005B07C90819431300BF
:1016C0002CE64146294300D0FAE500230A00002415
:1016D00002E66B07F9081943EB08FDE56346F908D4
:1016E0005B07194363460400DB0817E63D004D44E1
:1016F00063444D45894198464942884443461B020C
:1017000000D4DDE54246144B01261A409046D7E549
:1017100010001E002038C640202A05D04020821A22
:1017200093404A461A4391464D466B1E9D413543B0
:1017300021E602000023002140E54A46D519BD42BA
:1017400089416344984649428844B3E50021014AEF
:101750000B0033E5FF070000FFFF7FFFF0B55746A2
:101760004E464546DE46E0B5814605000C0348007E
:1017700092461F0085B0240B400DCE0F002859D093
:10178000874B984200D198E06B0FE4001C43802304
:101790001B0423439846834BED009B460023994648
:1017A000834400933C037B005046240B5B0DFF0FEA
:1017B000002B67D07A4A934218D07A49420F8C4660
:1017C000E40059461443802263441204CB1A1443A4
:1017D0009B46C200002033007B409A464B460F2BAD
:1017E00000D9EFE070499B00CB589F466F4B5246A3
:1017F0009C462243E344002A00D095E04946022358
:101800001943894600240220E5E70023002400252F
:1018100052461B052343D20713432800190005B085
:10182000F0BCBB46B246A946A046F0BD0024002548
:101830005B4BEDE74B462343984600D189E0002CF3
:1018400000D1E0E1200001F061FA010002000B3953
:101850001D235B1A49461000D940083884400B000C
:101860004D4623439846854051483C03831A9B4686
:101870000023994600937B005046240B5B0DFF0F1D
:10188000002B97D15246224355D0002C00D1CAE1FB
:10189000200001F03BFA02000B3A1D2301009B1AC5
:1018A00052460839DA408C40144352468A40414B34
:1018B00058449B46834400208DE74B46234398467B
:1018C00040D108239946063B00258346009369E7EB
:1018D000B246009B022BA9D0032B00D111E2012BB1
:1018E00093D0354A5A44002A00DC3CE16B0700D013
:1018F000A7E1ED084346DB0106D542462F4B1A40CF
:1019000090468022D2005A442D4B9A428EDC4346A8
:10191000520558075C020543240B530D78E7BA467D
:10192000A04615000090D4E74A4603231A43914687
:10193000032052464FE749460123194389460024B4
:10194000012048E70C239946093BA04683460093B3
:1019500028E70423994600239B4601330025009382
:1019600020E7002380249A4600250D4B24034FE7EF
:10197000802341461B03194208D01C4206D11C4358
:101980002403BA461500064B240B41E78024434646
:1019900024031C432403B246014B240B38E7C04602
:1019A000FF07000001FCFFFF34F6010801F8FFFF0C
:1019B0000DFCFFFFF3030000FF030000FFFFFFFE2D
:1019C000FE070000444500D216E100D111E10123D9
:1019D0005B429C462E0040460025E3442302140E41
:1019E0001C431B0C994623041F0C1202494600920B
:1019F0000197FEF721FC02007A430B04310C80466C
:101A000019438A420BD901235B429C460919E044E1
:101A10008C4204D88A4202D9831E98460919881A32
:101A20004946FEF709FC09048C4631046646019AD2
:101A3000090C4243030031438A4204D90919013B8E
:101A40008C4200D811E1891A4246009E12041A43C2
:101A5000330C1F00100C9046029313043204160C32
:101A600032001B0C5A4303967B4346437843170CC2
:101A7000BC469B1963449E4203D980267602B44635
:101A800060441E0C301816041B04360C9E1981424B
:101A900000D29CE000D197E0AE1B091AB54280410C
:101AA0004042081A844200D111E14946FEF7C4FBC6
:101AB000019A0B044243310C050019438A4207D9AD
:101AC0000919013D8C4203D88A4201D9851E0919A2
:101AD000881A4946FEF7B0FB09048C463104664675
:101AE000019A090C4243030031438A4207D909197C
:101AF000013B8C4203D88A4201D9831E0919039EF7
:101B0000891A32002D041D43029F2B041B0C5A43DB
:101B10007B439C46280C4643130CB44463447843EF
:101B20009E4203D980267602B44660441E0C1204FD
:101B30001B04120C30189B18814206D302D00123DB
:101B40001D43CEE6002B00D1CBE661186E1EA142EC
:101B500000D2A4E0814200D2C9E000D1D9E0350032
:101B6000EDE701256D420121891A382900DD4CE697
:101B70001F2900DC7FE01F235B429A1A4346D340B3
:101B8000202904D04446654A5A44944025436A1E9D
:101B9000954107222B43150000241D401A4200D115
:101BA000A1E00F2200241A40042A00D198E01A1D57
:101BB0009A429B415B42E4181300220200D48FE05A
:101BC00001230024002523E6B54200D364E7434601
:101BD0005A1E009B9C4665441F009D429B415B42F0
:101BE0001B19C9188C423AD2884263D860D09046FB
:101BF00052E7AA4200D9EAE64346DE0758086B08D6
:101C00001E43ED07EAE6484601F080F801000200B5
:101C1000153120321C2900DC1AE64B460838834077
:101C20000025984620E601F071F803001A001532ED
:101C300020301C2A00DC30E65446083B00229C4041
:101C400035E60F232B40042B00D152E605235B42DF
:101C5000AB429B4104355B42ED0898444AE68C4216
:101C6000C5D1AF42C0D9904616E78A4200D8EAE60D
:101C7000831E0919E7E62A4A28005A44434695403C
:101C80009340C8406A1E9541444603432B43CC40D1
:101C90005A0792D00F221A40042A88D18DE73500C6
:101CA000814200D04BE7009A934200D047E718E604
:101CB000AE429CD902235B429C46009BE0449C467A
:101CC00065449D429B415B421B19C918E4E6154AD5
:101CD0005A44002A00DC44E701230025984409E621
:101CE00065076402240BDB081D43002390E5009E7A
:101CF000023D7200B242BF417F423C190919009275
:101D0000CEE78024434624031C432403064B240BC4
:101D10007EE5009A9A42EAD33500C4E73E0400000B
:101D20001E040000FF030000FF070000F0B54F464F
:101D30004646D646944691461A03120B184DC0B536
:101D40004C000F0392465A00060080463F0B0120CC
:101D5000640DC90F520DDB0FAC420AD0AA4203D06A
:101D6000944201D157450DD0E0BCBA46B146A846D1
:101D7000F0BD3D003543F7D1A242F5D1524665464C
:101D80002A43F1D10120C845EED1994206D0002C5A
:101D9000EAD13E433000461EB041E5E70020E3E7CC
:101DA000FF070000F0B54E4645465746DE460400A4
:101DB0001800E0B516001B031B0B324D0F034A0041
:101DC00099464300A446B0463F0B520DC90F5B0D28
:101DD000C00FAA4229D0AB4218D0002A2AD13C43D6
:101DE000A34665426541002B02D14C46264327D0CD
:101DF000002D15D1814228D0022001390840013838
:101E0000F0BCBB46B246A946A046F0BD4D462E43A7
:101E10002FD1002AEED13C4365426541002DE9D027
:101E20000028EDD101204042EAE73D00254320D1C2
:101E30009342EBD0002BDDD14C462643DAD1DBE7D1
:101E40005B460020002BDBD0D6E79A420ADCE7DBBA
:101E50004F45D1D810D000204F45D1D20029E1D034
:101E60000800CDE743425841022340421840013860
:101E7000C6E702204042C3E7C445BDD80020C445A0
:101E8000BED2EBE7FF070000F0B54E464546574689
:101E9000DE4604001800E0B516001B031B0B314D95
:101EA0000F034A0099464300A446B0463F0B520D2B
:101EB000C90F5B0DC00FAA4211D0AB4214D0002A4B
:101EC0002FD13C43A34665426541002B14D14C46BB
:101ED000264311D15B460020002B17D010E03D00B7
:101EE000254312D193421CD14D462E430DD1002AD9
:101EF00004D13C4365426541002D0DD1814216D08D
:101F0000022001390840013800E00220F0BCBB4645
:101F1000B246A946A046F0BD0028F7D101204042B4
:101F2000F4E7002BEAD14C462643E7D1E8E79A4292
:101F300006DD434258410223404218400138E5E79C
:101F40009A42E9DB4F45DBD806D000204F45DDD271
:101F50000029E3D00800D9E7C445D1D80020C44502
:101F6000D4D2F5E7FF070000F0B557464E46454688
:101F7000DE46E0B598460C034B000600924687B05B
:101F8000240B5B0DCF0F002B6CD0DD4A934200D1A8
:101F900086E0420FE4001443802212041443D94A1D
:101FA000C500944663440093002399469B464346EC
:101FB00042461E03D20F5B0050469046360B5B0D27
:101FC00000D178E0CE4A93421DD0CE49420F8C46D4
:101FD00000996344F6008C46164380229C44120408
:101FE00063461643C2000020009300994346013126
:101FF0008C4649467B4001930F2900D97EE0C24BB5
:10200000890059588F465246009B324300D056E112
:10201000BB4900268C46634449460093022319437A
:1020200089460220E1E743460193340015008346C8
:102030005B46022B5ED0032B00D1F3E1012B00D0D5
:1020400018E1002200240025019B12052243DB0732
:102050001A432800110007B0F0BCBB46B246A9469F
:10206000A046F0BD2500054300D141E1002C00D180
:10207000ADE1200000F04AFE010002000B391D23F3
:1020800010005B1A3100350008388440D940854083
:102090000C439E48831A0093002399469B4686E78B
:1020A0000500254300D01CE10822009302230024F0
:1020B00091469B467BE75246324300D10AE1002E0F
:1020C00000D176E1300000F021FE02000B3A1D2322
:1020D00001009B1A52460839DA408E401643524698
:1020E0008A40009B8949181A03008C4663440020EB
:1020F00000937AE700240025814AA5E72F0C2D04E0
:102100002D0C2B00110C1204120C53439846130093
:1021100028007B43994648434844834640460B0089
:10212000000C824658467B4350440293814506D9B1
:102130009A4680235B029946CA4453460293030C95
:102140009B4643461B0400041B0C98460300434473
:102150000493330C99462B003604360C734398468F
:1021600033007B439A464B465D435F4343465544A9
:10217000180C4019824503D980235B029A465744C4
:10218000050CEB19059343461D042D0C0004401962
:10219000250C2404240C270057436A4390462A0048
:1021A0003B0C9A464A436143414451448344884529
:1021B00003D980235B02984642443F040B0C3F0C3A
:1021C0000904C919270098464B4677435C436E4380
:1021D0005D433B0C9946A4194C4442440395A642E6
:1021E00004D980235B02984645440395029B3F0433
:1021F0005B441E008342804123049846059B3F0CAC
:102200004744984676188E428941474440423D18DB
:10221000A846934649428A46C3449F42BF418045EF
:102220008041039BDA449846534640427F4207432D
:10223000240C934592418A4589413F19DC0D049B4A
:1022400075021D43681E85415346524249420A4366
:10225000BF184744F60D7F0235435A023C431543ED
:10226000FB0100D4C1E001216A080D401543E207DB
:102270001543640826496144002956DD6B0709D0DF
:102280000F222A40042A05D02A1DAA42AD416D42E0
:1022900064191500E30104D580211E4AC9001440C9
:1022A00061441D4A914200DD24E76207ED086402A3
:1022B00049051543240B4A0DC6E60197B8E6104AB6
:1022C0000320944663444A46009303231A439146ED
:1022D00052468AE6494601231943894600260120D1
:1022E00083E60C2200930323050091469B465EE69D
:1022F0000423994600230093013300249B4656E6AD
:10230000FF07000001FCFFFF74F601080DFCFFFF52
:10231000FF030000FFFFFFFEFE07000000238024F4
:102320000025444A019324038EE60120401A3828F0
:1023300000DD86E61F285BDD1F2223005242511A72
:10234000CB401900202803D03B4A624494402543E7
:102350006A1E95412A000A4307210D0000241540FA
:1023600011425BD00F2100241140042953D0111DCC
:10237000914292415242A4180A0023024BD50122F5
:102380000024002560E680231B031C4209D01E4266
:1023900007D133431C0343461500240B254A019300
:1023A00052E68022120314432403224A240B01978D
:1023B0004AE600F0ABFC03001A00153220301C2A5C
:1023C00000DC84E65646083B00229E4089E600F089
:1023D0009DFC01000200153120321C2900DC4EE674
:1023E000340008380025844053E6009B9C4641E7B2
:1023F0001249220061442E008D408A40C640691E69
:102400008D4132432A43C4405307B6D00F211140B7
:102410000429ACD1B1E765076402240BD208154347
:10242000002211E68022120314432403014A240BE4
:102430000AE6C046FF0700003E0400001E0400003C
:10244000F8B557464E464546DE460400E0B51F0047
:1024500010000B03620F4E00CD0F5B0A39031343CC
:10246000490AE200440F2143C24C91469246C00003
:102470007A008046760D520DFF0FA24200D1B4E0E3
:1024800001246740BB46BD4200D188E0B41AA4468F
:10249000002C00DCB2E0002A00D1C5E0B54A96422B
:1024A00000D18BE28022120411436246382A00DDFB
:1024B000A1E11F2A00DD16E220270C00BF1ABC4054
:1024C0000200A0466446B840E2404446144302007D
:1024D000501E82416046C14022435B1A49468C1A15
:1024E000A145924152429B1A984643461B0200D492
:1024F00017E143465B025B0A98464346002B00D136
:102500006CE1404600F002FC0200083A2021200065
:102510004346891A9340C84094400343964200DDE5
:1025200057E1961B711C1F2900DDCBE1202218000A
:102530002600521A94409040CE40CB40621E9441F7
:102540003043984600260443630709D00F232340F5
:10255000042B05D0231DA342A4416442A0441C00C7
:1025600043461B0200D4DFE0824B01369E4200D17D
:10257000FBE04246804BE4081A4013007105520705
:102580005B0222431B0B490D0905ED071943294343
:102590001000F0BCBB46B246A946A046F8BDB41A2E
:1025A000A446002C58DD002A00D19EE0714A9642D4
:1025B00000D13BE18022120411436246382A00DD3B
:1025C000C1E01F2A00DCBBE10C00203AD44022000D
:1025D0006446202C04D040273F1BB9400843804666
:1025E0004446611E8C411443B1E00C0004432AD0E0
:1025F000BB46BD422DD0614CA446B4446446002C79
:102600005CD0941BA446002E00D015E14D461D431E
:1026100000D1C3E1651E012C00D10CE2554EB4423D
:1026200000D1F8E1AC460EE10A00024300D136E1E8
:102630002200013A012C00D1C6E14E4CA44500D144
:10264000F4E0944631E701246740BB46BD4200D028
:102650001CE74A4CA446B4446446002C00D1CFE0A9
:10266000941BA446002E00D15CE1424EB24200D140
:10267000ECE18026360433436446382C00DDB3E1B8
:102680001F2C00DD38E22026361B1C00B4404F46CC
:10269000A0466446E74044463C434F46B7403E00B0
:1026A000771EBE4134436646F340C918241884425D
:1026B0009B415B429846160088444EE0304A741CA9
:1026C000144200D0D6E04A461A43002E00D05BE107
:1026D000002A00D1A5E10A00024300D0BBE14A462E
:1026E0005907D2080A43DB0827E00A00024300D159
:1026F00074E12200013A012C05D01E4CA44500D102
:1027000094E0944659E74844484592415B189846FE
:10271000040052429044434602261B0200D5C4E006
:10272000013E630700D011E74346B4465907E2086B
:102730000A43DB080F498C4540D061461B0349051D
:102740001B0B490D20E701430C00611E8C414C44DA
:102750004C45924152429046984443461B02E0D574
:10276000044B01369E4200D09FE03100002300223E
:102770000AE7C046FF070000FFFF7FFF01F8FFFFE9
:10278000FE070000002A00D160E10A0002434DD09C
:102790004A465C07D20822438024DB0824032342F4
:1027A00007D0CE08264204D15D463300C20849074F
:1027B0000A43510FD200D20849070A4311001943B6
:1027C00000D1C8E1802109030B431B03D5491B0B32
:1027D000DAE6D549B61A0B409846B5E6200000F077
:1027E00095FA020018321F2A00DC8FE62300083811
:1027F0008340002492E608430200501E82416DE6A9
:10280000CA4C721C224200D0ADE04A461A43002E48
:10281000B8D1002A00D158E10A00024300D059E1A2
:102820004A465907D2080A43DB0886E74A46590751
:10283000D2080A43DB08C1E7BA4DAA4200D11EE123
:1028400080252D042B436446382C5DDC1F2C00DDD5
:10285000D0E0202567462D1B4E461C00FE40AC40B4
:1028600034434E46AE403500FB406E1EB541C91A9A
:102870002C434EE04A46141AA145924152429046DA
:102880005F1A3A004746D21B9046120200D58BE0F1
:102890004246224300D030E6002300254DE74A4659
:1028A0005907D2080A43DB0844E742469E4B6108B9
:1028B0001A401300012214400C43DA075B089846C3
:1028C000144341E61A001F3EF2401600202903D0AF
:1028D0004022511A8B401C43621E94410023344312
:1028E000984600261DE70C00203AD440220064469A
:1028F000202C04D040273F1BB94008438046444663
:10290000611E8C412243E9E54C4623431C00631EB3
:102910009C41041BA0429B415B42CB1A98465D46FA
:102920001600E2E54E461E4300D1AEE0661E012CC5
:1029300000D1FDE07B4FBC4200D107E1B4469BE6ED
:1029400064462022121B0C00944007009040A046D1
:102950006446421E90416246E7404446D1403C43B3
:1029600004435B18F3E66F4CA24200D1D5E0484423
:102970005B184845894149425B18DC0740085B0801
:10298000984616000443CCE6002A00D082E00A00F4
:10299000024340D1802300251B0313E74B07C208E5
:1029A0001A435D46CB08C5E64A46841AA0429241C6
:1029B000CB1A52429B1A98465D469EE54A465907F5
:1029C000D2080A43DB08F9E64A46141AA1459241A7
:1029D0005B1A52429B1A9846012686E54A465907D9
:1029E000D2080A43DB08A5E64C4623431C00631EBD
:1029F0009C415BE665461E00203DEE40202C05D044
:102A000040252D1BAB404C461C43A2465446631E3A
:102A10009C4134437DE74B07C2081A435D46CB080F
:102A2000CCE60A00024300D136E74B07C2081A433E
:102A30005D46CB0881E64A46841AA0429241CB1AF1
:102A400052429B1A98465D4601264EE54B07C20846
:102A50001A43CB08B2E64A46141AA14592415F1ABE
:102A60005242BA1A904612026BD54A46841AA042C4
:102A70009241CB1A52429B1A98465D4664E54B0739
:102A8000C2081A435D46CB0898E64B07C2081A43B2
:102A9000CB084FE60A00024390D04A465C07D208B2
:102AA00014438022DB081203134208D0CE081642DA
:102AB00005D1C0084907084304005D463300610F93
:102AC000E2004907D2080A4378E64B07C2081A43D6
:102AD000CB0832E648445B1848459241984652423A
:102AE0009044434604001B0200D41AE642460E4BB3
:102AF00001261A40904614E666461F00203EF74025
:102B0000202C05D04026361BB3404C461C43A24621
:102B10005446631E9C413C43C8E51100002300223B
:102B200032E5C046FF070000FFFF7FFFFE07000001
:102B30004A461418844292415B1898465242904487
:102B4000E9E54246224300D1A6E6EAE54B07C20882
:102B50001A43CB0832E600220149130014E5C046AF
:102B6000FF0700000A0030B5134C530009030500AD
:102B7000090B00205B0DD20FA34204DD0F488342F6
:102B800002DD0F4BD01830BD8020400301430D48BB
:102B9000C01A1F2808DD0C48C31AD9400B00584240
:102BA000002AF0D11800EEE7084CC540A446634463
:102BB00099400B002B43F2E7FE0300001D040000C8
:102BC000FFFFFF7F3304000013040000EDFBFFFF55
:102BD00070B5002816D0C317C5185D40C40F280073
:102BE00000F094F8114A121A0A2816DC03002E008D
:102BF00015339E400B23181AC54053052D032D0B8A
:102C00005B0D03E000240023002500261B052B4359
:102C1000E40723433000190070BD0B38854053058D
:102C20002D0300262D0B5B0DF0E7C0461E040000AF
:102C300010B5041E10D000F069F80F4B1B1A0A28BB
:102C400011DC0B222100121AD14015300A035B055A
:102C50008440120B5B0D01E0002300221B0513438F
:102C60002000190010BD22000B3882405B051203C2
:102C70000024120B5B0DF1E71E04000070B5430049
:102C80004602C40FFE201B0E591C750A08420CD0C8
:102C9000E022920094466D07360B63441B053343D4
:102CA000E40723432800190070BD002B14D1002D28
:102CB0001BD0280000F02AF80A281CDC0B232A006D
:102CC0001B1ADA40030015339D400E4B12031B1AEA
:102CD0005B05160B5B0DE1E7002D09D0320B80265A
:102CE0003603094B6D071643D8E700230026D5E7C6
:102CF0000026054BD2E703002A000B3B9A40002533
:102D0000E3E7C04689030000FF0700001C21012300
:102D10001B04984201D3000C10391B0A984201D3BE
:102D2000000A08391B09984201D30009043902A29C
:102D3000105C40187047C046040302020101010103
:102D4000000000000000000010B5002903D1FFF7CB
:102D5000DDFF203002E0081CFFF7D8FF10BDC046A1
:102D6000F0B557464E464546DE46E0B50F00190021
:102D7000002306009846100083B0002F07DA3300C6
:102D80003C0000275E42A74101235B429846002990
:102D900007DA4346DB430C00984603000021584203
:102DA000A14134003D0082468946B9426AD867D0C5
:102DB00049465046FFF7C8FF834639003000FFF709
:102DC000C3FF5B461B1A9C46203B9B466BD4584670
:102DD0005146814060460B00514681400A00BB428B
:102DE00000D972E0BB4200D179E034003D00594681
:102DF000A41A9D41002900DA74E000210020012678
:102E00000090019159468E400196614601268E4000
:102E10006146009600295FD0D90756080E435F0827
:102E20006146012200230CE0AF4201D1A6420AD83C
:102E3000A41BBD4124196D410139A4185D4100292D
:102E400006D0AF42F0D9013924196D410029F8D1DB
:102E5000009801995B4600196941002B4DDB2E005B
:102E60002C00DE406346DC405B46002B55DB340023
:102E70009C4023006446A6403200801A994103E03A
:102E8000B04295D9002000214346002B04D0030016
:102E90000C0000215842A14103B0F0BCBB46B24631
:102EA000A946A046F0BD62464846202351469040C0
:102EB0009B1AD94003000091009960460B4351468C
:102EC00081400A00BB4200D88CE70021002000901E
:102ED0000191614600299FD100980199D4E7B14240
:102EE000F3D882E7614620260127761A00200021C8
:102EF000F74000900191019787E7624620239B1AD3
:102F00002A009A40260013006246D6402C001E4339
:102F10006346DC405B46002BA9DA6246202335007D
:102F200094409B1ADD4023002B43A3E780B500AFFC
:102F300001F01EFC00F00EF8C046BD4680BD80B515
:102F400000AF01235B42180018F0F8FFC046BD46F1
:102F500080BD000080B584B004AF022002F0F6FA14
:102F6000012002F0F3FA032002F0F0FA484B0022AD
:102F700002920022019201220092002200210220EE
:102F800018F01AFC434B0122029202220192022203
:102F9000009200220021022018F00EFC3E4B01227C
:102FA00002920022019200220092002200210220BF
:102FB00018F002FC394B012251423948002200929C
:102FC000002219F08DFA374B012251423648002277
:102FD0000092002219F084FA344B01225142344805
:102FE00000220092012219F07BFAFA235A002C4B9E
:102FF0001100180019F09CFBFA235A002A4B11000B
:10300000180019F095FBFA235A00294B11001800FB
:1030100019F08EFB274B1A000021012019F070F8DF
:10302000254B1A000021022019F06AF800F0ACFAD2
:10303000224B18000AF054FB214B18000AF096FBB3
:103040001B4B180019F084FA1E4B1B7818000AF06D
:10305000FDFC1D4B1B78002B13D11C4B0122514250
:103060001B4800220092002219F03AFA194A184B24
:103070001100180019F05CFB154B180019F068FAE4
:1030800003E00121002002F023FBC046BD4680BDC5
:1030900010E3010830E3010850E30108D1330008D0
:1030A00064030020E73300087C030020FD330008A0
:1030B0009403002091D900080D3200080C00002074
:1030C0002C000020080000204B030020AD33000836
:1030D0004C03002010270000F0B589B006AF7860DF
:1030E00039607B68002B00D17AE03B68002B00D16F
:1030F00076E0022002F098FA3E4B002200210220E6
:1031000018F05AFB3B689B683A68127B52B2110078
:10311000394A89008A5879680978080039688978B5
:1031200049B20C003968C97849B20D00396809798B
:1031300049B20E003149059604950394029001921C
:1031400000930B0000220021032018F035FB7B6860
:103150001B78022B20D0032B44D17B685B78012B9A
:1031600016D17B685B681B78022B0DD012DC002B1C
:1031700002D0012B04D00DE000200AF0C1FD0AE0CE
:1031800001200AF0BDFD06E002200AF0B9FD02E0D0
:10319000C0462AE0C04628E07B685B78012B23D13B
:1031A0007B685B681B7801221340DAB2144B1A70FB
:1031B000134B1B78002B09D1124B00220021032056
:1031C00018F0FAFA012002F04BFA0DE00E4B002243
:1031D0000021032018F0F0FA012002F025FA03E0A4
:1031E000C04602E0C04600E0C046C046BD4603B04F
:1031F000F0BDC04670E3010834000020A4E30108DC
:103200004A030020ECE30108F8E30108F0B5D7B069
:1032100000AFAB235B00FB1800221A80AA235B00DF
:10322000FB1800221A800023A8225200BA1813604B
:10323000A7235B00FB1800221A800023A4256D0041
:103240007A1913600023A2225200BA1813600023D7
:10325000A0225200BA1813609F235B00FB180022C3
:103260001A804C4B02221A7002F028F84A4B1800C0
:1032700019F00AFE494B76229A84484B484A9A62D2
:10328000454A464B1100180019F092FF922676002D
:10329000BB1996225200BA189421490079183F4868
:1032A0001AF0F4FAFE239B059C225200B818036022
:1032B0003C4B9A2040003C182360BB191B689924A2
:1032C00064003C19181CFDF78BF903002380364A73
:1032D0000C23FB18110018001AF060FB020099245F
:1032E00064003B191A802B4B5A687B191B68591CC8
:1032F0007C192160D4189C225200BB181868FDF775
:103300006FF90300DBB22370942149007B18186821
:10331000204B5A687B191B68591C7C192160D418F2
:10332000FDF75EF90300DBB22370BB191868194B77
:103330005A687B191B68591C7C192160D418FDF749
:103340004FF90300DBB22370124B5A687B191B68DC
:10335000591C7C192160D4189A2040003B18186829
:10336000FDF73EF90300DBB223700A4B5A687B1964
:103370001B68591C78190160D41801F025FA030064
:1033800023707B191B68DAB2024B5A70C046BD46E7
:1033900057B0F0BD000000200C140020E013002006
:1033A000601600200000204104E4010880B582B0CE
:1033B00000AF78600021022018F0C6FE034B180011
:1033C00019F0C6F8C046BD4602B080BD4C030020CF
:1033D00080B582B000AF7860032002F041F9C046AA
:1033E000BD4602B080BD80B582B000AF78600220DB
:1033F00002F036F9C046BD4602B080BD80B582B04D
:1034000000AF7860012002F047F9C046BD4602B027
:1034100080BD0000B0B588B006AF78607B68002B37
:1034200052D07B681B78002B4ED0032002F0FCF8B2
:10343000274B180019F08CF8264B0022002102209F
:1034400018F0BAF97B689B687A68127B11007A6879
:10345000127952B210007A68127D52B214007A6862
:10346000527D15001C4A049503940290019100932B
:10347000130000220021032018F09EF9174B0022B0
:103480000021032018F098F9154B0022002102209A
:1034900018F092F97B689B78012B0FD17B68DB7861
:1034A000002B01D00F4B00E00F4B104A009313008C
:1034B00000220021032018F07FF905E00C4B0022C8
:1034C0000021032018F078F9C046BD4602B0B0BD17
:1034D0006403002024E401085CE401089CE4010882
:1034E000ACE40108B4E40108B8E40108C0E4010850
:1034F000D4E4010880B582B000AF78607B68002B0F
:1035000029D07B685B785BB2002B1ED1144B18006E
:1035100019F096F8012002F0A3F8124B00220021C6
:10352000022018F049F97B689B78022B06D10E4BDC
:1035300000220021022018F03FF90CE00B4B002282
:103540000021022018F038F905E0094B0022002183
:10355000022018F031F9C046BD4602B080BDC04619
:1035600094030020E4E40108FCE401081CE50108E0
:103570003CE5010880B500AF0021012018F0E4FD12
:10358000C046BD4680BD000080B500AF124B002292
:103590001A60114B00225A600F4B00229A600E4BAA
:1035A0000022DA600C4B5B6820221A430A4B5A60F7
:1035B000094B5B68002B06D1084B0022002100203C
:1035C00018F0FAF8FEE7044B0022DA60024B0322FF
:1035D0001A60C046BD4680BDAC030020A4E50108CA
:1035E00080B500AF014B1800BD4680BDAC03002084
:1035F00080B500AF224B234A1A60214B0022DA63C8
:103600001F4B802212065A601D4B0022DA611C4BB0
:1036100001225A631A4B00229A61194B00229A60C8
:10362000174B07229A63164B01221A61144B002292
:10363000DA60134B202200219954114B21220021E2
:1036400099540F4B00229A620D4B04225A610C4B85
:103650002C22002199540A4B180002F097FC031EFB
:1036600001D000F0EFF9064B0021180003F080F9BB
:10367000031E01D000F0E6F9C046BD4680BDC0463D
:10368000981400200024014080B582B000AF78601B
:103690007B681B68064A934206D1064B5A6B054B62
:1036A000802189000A435A63C046BD4602B080BDEE
:1036B000002401400010024080B582B000AF786065
:1036C0007B681B680C4A934212D10C4B5A6A0B4B15
:1036D000802189000A435A62084B5A6A074B0849FD
:1036E0000A405A62054B5A6B044B05490A405A631B
:1036F000C046BD4602B080BD00240140001002401B
:10370000FFFDFFFF80B500AF024B034A1A60C046C1
:10371000BD4680BD9814002000240140B0B586B09D
:1037200002AF0E257B1900221A800023BB60BC1D4E
:1037300000F04CF8030023801F4B180000F074F8D1
:103740000300BB60BB1D1B88BA6853431B491800AC
:10375000FCF7ECFC03001A00194B1B88D21A13006B
:103760009B009B181B011B02164A12881100144A69
:1037700012888A1A11001800FCF762FD03009BB240
:10378000F0225201944663449AB27B191A807B1945
:1037900000229B5E1B121BB21A000B4B00920122EF
:1037A0000021012018F008F87B1900229B5E180008
:1037B000BD4604B0B0BDC04600000448B80B0000D0
:1037C0007A00F81F7E00F81FF4E5010880B582B08A
:1037D00000AFBB1D00221A8000233B600F4B180076
:1037E00000F022F803003B603B68002B03D1BB1DB7
:1037F00000221A800CE00A4B1B881A00094B534325
:1038000039681800FCF792FC03001A00BB1D1A80EF
:10381000BB1D1B881800BD4602B080BD00000244DD
:103820007800F81FB80B000090B587B000AF786043
:1038300000237B610C23FB18180008231A000021C9
:103840001AF0A3F8FFF7D4FEC0462C4B5B680822A1
:103850001340082BF9D12A4B5A6B294B8021890040
:103860000A435A63274B0021180003F081F80C2407
:103870003B19254A1A603B19244A5A603A19214BD0
:103880001100180002F0C8FE21007B187A681A6047
:103890007B18802252015A607A181A4B11001800C6
:1038A00002F0BAFE031E01D000F0CCF8154B180050
:1038B00002F07CFD031E01D000F0C4F801235A423F
:1038C000104B1100180002F005FE0E4B180002F01C
:1038D000C1FD0C4B180002F093FE03007B61094B05
:1038E000180002F0C7FC064B5A6B054B08490A400A
:1038F0005A637B691800BD4607B090BD0070004058
:103900000010024098140020FFFF07000110000083
:10391000FFFDFFFF80B582B000AF0C4B1A6B0B4B65
:1039200001210A431A63094B1B6B012213407B6080
:103930007B68002200210B2003F05AF90B2003F0D2
:103940006CF9C046BD4602B080BDC04600100240C2
:1039500080B500AF02F0A0FA00F006F8FFF7E6FA33
:10396000FFF7EDFAFCE7000090B595B000AF182422
:103970003B19180038231A0000211AF006F83B1DE5
:10398000180014231A00002119F0FFFF21007B18F2
:1039900002221A607B1800225A607B180122DA602A
:1039A0007B1810221A617B1802229A627B1800226F
:1039B000DA627B18802212031A637B1880221204B9
:1039C0005A637B18180004F0B5FD031E01D000F007
:1039D00039F8194B9A6B184B802149050A439A63B1
:1039E000164B1B68164A1A40144B802109010A43E2
:1039F0001A60C046114B5B6810221340102BF9D09F
:103A00003B1D0F221A603B1D03225A603B1D002202
:103A10009A603B1D0022DA603B1D00221A613B1DAB
:103A20000121180005F05AF9031E01D000F00AF830
:103A3000C046BD4615B090BD001002400070004069
:103A4000FFE7FFFF80B500AFFEE7000080B590B054
:103A500000AF2C23FB18180014231A00002119F0C2
:103A600094FF2823FB1800221A603B00180028232B
:103A70001A00002119F089FF414B424A1A60404B5D
:103A800000225A603E4B1F229A603D4B3E4ADA604C
:103A90003B4B00221A613A4B00225A61384B0022FC
:103AA0009A61374B0022DA61354B180005F090FC23
:103AB000031E01D0FFF7C6FF2C217B1800221A70CD
:103AC0007B1800225A707B1800229A707B18002203
:103AD000DA607B1800221A617918294B002218003D
:103AE00005F014FD031E01D0FFF7ACFF28217B1861
:103AF00001221A707B1801225A707B1801229A70D9
:103B00007B180022DA7079181D4B0022180005F08E
:103B10001DFE031E01D0FFF795FF3B0000221A7027
:103B20003B0000225A703B0000229A703B000022AA
:103B30005A603B000022DA603B0000221A613B0021
:103B400000225A613B00A02212059A613B0000222C
:103B5000DA613B0020221E2199543B008022520052
:103B60005A623900064B0022180005F0EBFE031ED6
:103B700001D0FFF767FFC046BD4610B080BDC0460C
:103B80006C15002000280040FF03000090B591B0A4
:103B900000AF786008243B19180038231A00002170
:103BA00019F0F3FE7B681B68164A934226D13B1935
:103BB00004221A603B19802252009A603B190022AD
:103BC0005A613B1900225A603B1900229A623B1944
:103BD000180004F0AFFC031E01D0FFF733FF0A4BBF
:103BE0001A6D094B8021C9020A431A65002200217F
:103BF000022002F0FDFF022003F00FF8C046BD4690
:103C000011B090BD002800400010024080B582B085
:103C100000AF78607B689B6A1B041B0C1800BD46D4
:103C200002B080BD80B58AB000AF164B1B78012270
:103C30005340DBB2002B1FD03B1D20221A603B1DDE
:103C4000802252025A603B1D180005F06BFA031ED9
:103C500000D0FEE7FFF7FAFE80235A000A4B11005E
:103C6000180005F0BBFF084B180006F065F900F0DE
:103C700059F8044B01221A7000231800BD460AB0FF
:103C800080BDC046BC0300206C15002090B583B0F9
:103C900000AF7860144B00229B5E03331C0000F0E1
:103CA00061F802007B689B1A9C4204D2002102202A
:103CB00018F03AF803E00121022018F035F818F066
:103CC00093F80300012B06D1074B00229B5E1A00DC
:103CD0007B689B1A7B607B68180000F059F9002311
:103CE0001800BD4603B090BDBE03002080B500AFF4
:103CF0000A4B1B68DB68FF221A40084B1B68084907
:103D00000A43DA6080235A00044B1100180005F0C2
:103D100065FF00231800BD4680BDC0466C1500201D
:103D20007FFEFFFF80B500AF064A074B1100180069
:103D300000F094FA0200054B1A60044B1B6818004F
:103D4000BD4680BDEC03002000040020E8030020F5
:103D500080B500AF024B1B681800BD4680BDC04651
:103D6000E803002080B588B000AF0823FA183B1D97
:103D70001100180000F072FA0300FB61034B1B688E
:103D8000FA69D31A1800BD4608B080BDE8030020C8
:103D900080B588B000AF0023FB61094B1B78002B76
:103DA00008D00823FA183B1D1100180000F056FA3D
:103DB0000300FB61FB691800BD4608B080BDC0462A
:103DC000BC03002080B500AF03231800BD4680BDB2
:103DD000B0B582B000AF786079680A0000210B00AE
:103DE000510EDD010D43D4017D2200232000290066
:103DF000FCF7AEFB02000B0013001800BD4602B03A
:103E0000B0BDF0B589B000AFF861FB693B6100233C
:103E10007B613A697B69D10E5801F860F868084304
:103E2000F8605301BB60BB68FC6839697A695B1A4A
:103E300094411A002300910F980078607868084335
:103E4000786093003B603A697B693868796812183A
:103E50004B415906D0090500280008430500DB093D
:103E60001E002B001800BD4609B0F0BD80B584B01F
:103E700000AF78600023FB600023BB607B68180004
:103E8000FFF7A6FF0300FB60FFF782FF0300BB60A4
:103E900000E0C046FFF77CFF0200BB68D31AFA6857
:103EA0009A42F6D8C046C046BD4604B080BD80B533
:103EB00082B000AF786018F06FFCC046BD4602B01B
:103EC00080BDB0B58CB000AF78600C23FA18082321
:103ED000FB181100180000F0C1F90300BB620023B9
:103EE000FB62FB6A9B05BA6A940A1C43FB6A9D0A43
:103EF00023007B62BB6A9B059B0D3B623B6A1800FB
:103F0000FFF77FFF03009AB27B681A807B6A180074
:103F1000BD460CB0B0BD000080B582B000AF786087
:103F20007A68044B0021180005F0DCFFC046BD464E
:103F300002B080BD6C15002080B582B000AF786003
:103F40007A68044B0121180005F0CCFFC046BD463D
:103F500002B080BD6C15002080B500AF044B00217D
:103F6000180005F0D5FF03001800BD4680BDC0460F
:103F70006C15002080B500AF044B0121180005F03E
:103F8000C7FF03001800BD4680BDC0466C15002069
:103F9000F0B58DB000AF78602E243B1900221A8056
:103FA0002C23FB1800221A802A23FB1800221A80D7
:103FB0002823FB1800221A8026257B1900221A804C
:103FC0001026BA199B4B043323CB23C203CB03C265
:103FD0000C231D00FB18974A92691A60FFF786FEB2
:103FE000BB195B689AB23B1993498A1A1A807B689D
:103FF0009BB29B059B0D99B23B193A1912888A18FE
:104000001A807B689B0A7B602B00FB189A78262518
:104010007B191A800AE07B68884A944663447B6077
:1040200026217B181A887B1801321A807B68844A03
:104030009342F0D81023FB181A782823FB181A8013
:104040000AE07B687F4A944663447B6028217B18A2
:104050001A887B1801321A807A68E1231B019A4280
:10406000EFD21023FB185A782A23FB181A8008E095
:104070007B683C3B7B602A217B181A887B180132C5
:104080001A807B683B2BF3D81023FB189B7899B2DE
:104090007B689AB22C23FB188A181A800DE02E2216
:1040A000BB18BA18128868498C4662441A802C21C1
:1040B0007B181A887B1801321A802E23FB181A8865
:1040C0008023DB009A42EAD20BE02C22BB18BA18FC
:1040D00012883C3A1A802A217B181A887B180132F0
:1040E0001A802C23FB181B883B2BEED80BE02A22CE
:1040F000BB18BA1812883C3A1A8028217B181A88F3
:104100007B1801321A802A23FB181B883B2BEED820
:104110000BE02822BB18BA181288183A1A802621F8
:104120007B181A887B1801321A802823FB181B88F9
:10413000172BEED80C217B18DB7803221340DBB25F
:10414000002B19D17B185B78013B404AD35C9BB2B2
:1041500026243A1912889A4228D93B1918887B18C4
:104160005B78013B394AD35C1900FCF74FF90B002F
:104170001A003B191A8019E00C217B185B78013B6F
:10418000334AD35C9BB226243A1912889A420DD93D
:104190003B1918887B185B78013B2D4AD35C1900CA
:1041A000FCF734F90B001A003B191A802E23FB1878
:1041B0001B88214AD31A1A00264B5A60254BA0228D
:1041C00012059A612C23FB181B88DAB2214B9A70D6
:1041D0002A23FB181B88DAB21E4B5A702823FB18BF
:1041E0001B88DAB21B4B1A702623FB181B88D9B226
:1041F000184B202299541023FB18DA78154BDA70EB
:10420000144B0022DA61134B00225A61114B8022B9
:1042100052005A620F4B0022DA600E4B00221A61E4
:104220000C490D4B0022180005F08CFBC046BD4622
:104230000DB0F0BDE8030020FF03000080AEFEFFDC
:104240007F510100F0F1FFFF00FCFFFF0CE60108C9
:1042500000E60108C00300206C15002080B586B080
:1042600000AF7860396000237B613968424B0022DF
:10427000180005F00FFA414B1800FFF7C7FC0300C8
:104280003B6179683C4B0022180005F00DFB396852
:10429000394B0022180005F0FDF9384B1800FFF7E4
:1042A000B5FC02003B699342E5D17B68DB781A00DC
:1042B000334B534303339B087B617B68DB780322DA
:1042C0001340DBB2002B01D12E4B00E02E4BFB60E4
:1042D0007B685B785A1E13001B019B1A9B009B187E
:1042E0000133002B00DA01335B1019007B685B7827
:1042F000013B5B00FA68DA40130003221340CB1A3B
:104300007A69D3187B617B689B781A007B69D31824
:10431000013B7B617A6913005B009B181A01D21A7A
:1043200013019B1ADB017B613B689B7819003B689A
:104330001B781A0013001B019B1A1A01D21A1301D1
:104340001A0010003B685B781A0013001B019B1ACF
:104350009B00C318CB187A69D3187B617B699A02DA
:104360003B685B68D31A094A944663447B617B6966
:104370001800BD4606B080BD6C1500200028004026
:10438000B505000050554400A0AA9900FF030000A5
:1043900080B500AFC046BD4680BD80B500AFC04609
:1043A000BD4680BD80B584B000AFEFF310837B6065
:1043B0007B68FB6072B6C04601F01EFB0B4B180019
:1043C000FFF77AF90A4B1A68094B04210A431A606D
:1043D000FB68BB60BB6883F31088C04601210120E5
:1043E00004F030F8C046BD4604B080BD98140020EB
:1043F0000070004080B584B000AFEFF31083BB6065
:10440000BB68FB6072B6C046194B1A68184B012195
:104410000A431A60C046164B1B6804221340FAD0A8
:10442000134B1A68124B802149040A431A60C04694
:104430000F4B1A6880239B041340F9D00C4BDA68A9
:104440000B4B03210A43DA60C046094BDB680C22A0
:1044500013400C2BF9D101F0C9F9FB687B607B6834
:1044600083F31088C046C046BD4604B080BDC04638
:104470000010024080B500AF0121002003F08AFF48
:10448000C046BD4680BD80B500AFC046BD4680BDBC
:1044900080B582B000AF78607B681B681B68012222
:1044A0001340012B0ED17B681B689B6801221340CF
:1044B000012B07D17B681B6801225A607B681800BA
:1044C00000F088F87B681B681B6802221340022BEF
:1044D0000ED17B681B689B6802221340022B07D118
:1044E0007B681B6802225A607B68180000F07AF82B
:1044F0007B681B681B6804221340042B0ED17B6869
:104500001B689B6804221340042B07D17B681B683F
:1045100004225A607B68180000F06CF87B681B6806
:104520001B6808221340082B0ED17B681B689B6810
:1045300008221340082B07D17B681B6808225A60A9
:104540007B68180000F05EF87B681B681B6810220F
:104550001340102B0ED17B681B689B681022134000
:10456000102B07D17B681B6810225A607B681800EB
:1045700000F050F87B681B681B6820221340202B3A
:104580000ED17B681B689B6820221340202B07D12B
:104590007B681B6820225A607B68180000F042F894
:1045A0007B681B681B6840221340402B0ED17B6840
:1045B0001B689B6840221340402B07D17B681B6817
:1045C00040225A607B68180000F034F8C046BD46AF
:1045D00002B080BD80B582B000AF7860C046BD46F5
:1045E00002B080BD80B582B000AF7860C046BD46E5
:1045F00002B080BD80B582B000AF7860C046BD46D5
:1046000002B080BD80B582B000AF7860C046BD46C4
:1046100002B080BD80B582B000AF7860C046BD46B4
:1046200002B080BD80B582B000AF7860C046BD46A4
:1046300002B080BD80B582B000AF7860C046BD4694
:1046400002B080BD80B500AF0D4B9A6B0C4B802142
:1046500049050A439A6303F08FFE03F05DFF094B9F
:104660001A68084B08210A431A60064B1A68054B62
:1046700008218A431A6003F041FFC046BD4680BD51
:10468000001002400020024080B500AFC046BD4689
:1046900080BD80B500AFC046FDE780B500AFC04625
:1046A000BD4680BD80B500AFC046BD4680BD80B56B
:1046B00000AF01F011FCC046BD4680BD80B500AF23
:1046C000054B180002F09CFD044B180002F098FD09
:1046D000C046BD4680BDC046141700200C17002000
:1046E00080B500AFC046BD4680BD000080B500AFBC
:1046F000054B180002F084FD044B180002F080FD09
:10470000C046BD4680BDC046041700201C170020CF
:1047100080B500AF034BDB6E180002F062FCC046B0
:10472000BD4680BDD815002080B500AF034B1800F2
:1047300006F0B4F8C046BD4680BDC046D81500207E
:1047400080B500AF034B1800FFF7A2FEC046BD4680
:1047500080BDC0463C15002080B500AF034B18005B
:1047600005F0DCFAC046BD4680BDC0466C15002091
:1047700080B500AF17F0A4FE00F0FAF800F0C6F91B
:1047800016F0FAFF0B4B180017F0AEF8022017F0E6
:10479000B9F8FEF7B7FF01F05DFA01F027F800F075
:1047A00059FA17F0B1FA0121012017F0EDFAC046CD
:1047B000BD4680BD2549000880B500AF17F046FB17
:1047C000C046BD4680BD000090B585B002AFFB1D60
:1047D00000221A703C1DFEF7F9FF030023803B1DE9
:1047E0001B881A4A934203D9FB1DFE221A701DE052
:1047F0003B1D1A88E123DB009A4203D2FB1D0022F5
:104800001A7013E03B1D1B88114A944663441A003A
:104810001300DB019B1A5B001A009623D9001000DD
:10482000FBF784FC03001A00FB1D1A70FB1D1B78AC
:10483000084A0093130001220021022016F0BCFF59
:10484000FB1D1B781800BD4603B090BDB80B0000DF
:10485000F8F8FFFF70E6010880B582B000AFBB1D1D
:1048600000221A80FEF75AFF031E00DAFF331B12E4
:104870001AB2BB1D1A80BB1D1B881800BD4602B0B2
:1048800080BD90B585B000AF786001F037FB0400C3
:1048900001F048FB0300E318FB6001F039FB030063
:1048A000BB60FB681A0E7B680733D2B21A70FB68D4
:1048B0001A0C7B680633D2B21A70FB681A0A7B683E
:1048C0000533D2B21A707B680433FA68D2B21A7018
:1048D000BB681A0E7B680333D2B21A70BB681A0C1D
:1048E0007B680233D2B21A70BB681A0A7B68013344
:1048F000D2B21A70BB68DAB27B681A70C046BD4685
:1049000005B090BDB0B500AF01F0F8FA040001F0B9
:10491000FFFA03005C4001F005FB03006340180050
:10492000BD46B0BD90B587B002AF7860396008244D
:104930003B19180017F062FD2200BB181968BB185C
:1049400004229B5E094A786800930B00102100F056
:10495000A9F87B681800FBF7D7FB03009AB23B6805
:104960001A80C046BD4605B090BDC0467CE6010831
:1049700090B58BB000AF14243B19180014231A0013
:10498000002119F002F8384BDA6A374B01210A434B
:10499000DA62354BDB6A012213403B613B69324BE3
:1049A000DA6A314B02210A43DA622F4BDB6A0222B8
:1049B0001340FB60FB682C4BDA6A2B4B04210A4343
:1049C000DA62294BDB6A04221340BB60BB68264BCA
:1049D000DA6A254B80210A43DA62234BDB6A8022A4
:1049E00013407B607B683B1903225A603B1900220D
:1049F0009A603B191D4A1A603A19A023DB05110081
:104A0000180002F021FC3B19194A1A603B19194A97
:104A10001900100002F018FC3B19174A1900100089
:104A200002F012FC3B19154A1900100002F00CFCB0
:104A30000D4BDA6A0C4B01218A43DA620A4BDA6ABF
:104A4000094B02218A43DA62074BDA6A064B0421DA
:104A50008A43DA62044BDA6A034B80218A43DA62C2
:104A6000C046BD460BB090BD00100240FF9F000045
:104A7000FFFF00000004005000080050001C005020
:104A800080B500AF0121042017F04EF9C046BD46A5
:104A900080BD80B500AF0021042017F045F9C04665
:104AA000BD4680BD0CB480B584B000AF786039607D
:104AB0001C23FB18FB603968FB68BA69786818F03A
:104AC000C9F8C046BD4604B080BC08BC02B0184757
:104AD00080B582B000AF786000231800BD4602B0F8
:104AE00080BD80B500AFFFF753F903001800BD4645
:104AF00080BD80B582B000AF78607B681800FFF79A
:104B0000B5F9C046BD4602B080BD000090B58BB07F
:104B100000AF14243B19180014231A00002118F0C8
:104B200034FF4A4BDA6A494B02210A43DA62474BA7
:104B3000DB6A022213403B613B69444BDA6A434B18
:104B400002210A43DA62414BDB6A02221340FB6016
:104B5000FB683E4BDA6A3D4B02210A43DA623B4B6B
:104B6000DB6A02221340BB60BB68384BDA6A374B02
:104B700002210A43DA62354BDB6A022213407B6072
:104B80007B6821007B1801225A607B1801229A6001
:104B90007B180322DA607B18802252011A600C0015
:104BA0007B182B4A1900100002F04EFB21007B18E5
:104BB000802292011A600C007B18254A190010000F
:104BC00002F042FB21007B188022D2011A600C0007
:104BD0007B181F4A1900100002F036FB21007B18D9
:104BE000802212021A607B18194A1900100002F084
:104BF0002BFB80235B0116480022190002F0A1FD67
:104C000080239B0112480022190002F09AFD8023A4
:104C1000DB010F480022190002F093FD80231B02E4
:104C20000B480022190002F08CFD084B5A6B074B11
:104C30008021C9030A435A6301F07EF901F08AF921
:104C400001F096F9C046BD460BB090BD0010024081
:104C50000004005080B500AFC046BD4680BD0000D6
:104C600080B500AF104B114A1A600F4BE12252027F
:104C70005A600D4B00229A600B4B0022DA600A4BFF
:104C800000221A61084B08225A61074B00229A61E0
:104C9000054B180005F0C4FC031E01D0FEF7D2FE40
:104CA000C046BD4680BDC046D81500200044004027
:104CB00090B595B000AF78603C23FB181800142322
:104CC0001A00002118F061FE18243B191800242353
:104CD0001A00002118F059FE7B681B68574A93425E
:104CE00000D0A6E0564BDA6A554B01210A43DA623E
:104CF000534BDB6A012213407B617B69504BDA6ABC
:104D00004F4B01210A43DA624D4BDB6A012213400B
:104D10003B613B694A4B9A6B494B802189020A43AC
:104D20009A63474B1A6B464B01210A431A63444B63
:104D30001B6B01221340FB60FB68414B9A6B404B9D
:104D4000802189020A439A633B1902221A603B19A7
:104D50000422DA603B19180004F0E4F9031E01D0C4
:104D6000FEF770FE3C243B1904221A603B19022214
:104D70005A603B1900229A603B190322DA603B1902
:104D800004221A613A19A023DB051100180002F071
:104D90005BFA21007B1808221A607B1802225A60F5
:104DA0007B1800229A607B180322DA607B180422A9
:104DB0001A617A18A023DB051100180002F044FAEA
:104DC000204B214A1A601F4B04225A601D4B1022AF
:104DD0009A601C4B0022DA601A4B80221A61194B30
:104DE00000225A61174B00229A61164B0022DA61A9
:104DF000144B00221A62134B180001F02FFF031E00
:104E000001D0FEF71FFE7B680E4ADA660D4B7A680A
:104E10009A62012200210B2001F0EAFE0B2001F032
:104E2000FCFE012200211C2001F0E2FE1C2001F00A
:104E3000F4FEC046BD4615B090BDC04600440040DB
:104E400000100240901500208000024080B582B022
:104E500000AF78607B681B680D4A934213D10D4BFD
:104E60009A6B0C4B0C490A409A63A023DB050C217A
:104E7000180002F067FB7B68DB6E180001F066FF2C
:104E80001C2001F0DAFEC046BD4602B080BDC0461F
:104E90000044004000100240FFFFFDFF80B582B0DB
:104EA00000AF7860054B7A681A60FEF733FDFFF7B4
:104EB000D7FE00231800BD4602B080BD04040020C8
:104EC00080B500AF0B4B9A6A0A4B802189020A43D6
:104ED0009A62084B9A6A074B07490A409A62074B45
:104EE0001800FFF7B3FF0B2001F0A7FE0023180006
:104EF000BD4680BD00100240FFFFFDFFD815002019
:104F000080B582B000AF78600A00BB1C1A80BB1C61
:104F10001A887968044B180005F02EFC002318004D
:104F2000BD4602B080BDC046D815002080B584B013
:104F300000AF78601D4B7A681A6008217B188022C8
:104F400092031A607B181A4819685A6806F06CFDBB
:104F5000C046174B1B68DA6980235B021A40802326
:104F60005B029A42F5D0C046114B1B68DA69802378
:104F7000DB031A408023DB039A42F5D10C4B1B68FC
:104F80009A680B4B1B688021C9030A439A60084B3F
:104F9000180006F0AFFD0749054B0122180005F087
:104FA00093FB00231800BD4604B080BD0804002018
:104FB000D81500205C16002080B582B000AF786064
:104FC000034B1B6800209847C046BD4602B080BD19
:104FD0000404002080B582B000AF78600C4B1B68E1
:104FE000002B0AD07B6880229B58002B05D1084BF0
:104FF0001B68084800220121984706497B68012266
:10500000180005F061FBC046BD4602B080BDC04639
:10501000080400205C1600200D4885460D480E4906
:105020000E4A002302E0D458C4500433C4188C4202
:10503000F9D30B4A0B4C002301E013600432A24267
:10504000FBD300F0EBFE18F073FCFEF781FCFEE7EB
:1050500000500020000000203C020020F8F601086B
:105060003C020020FC170020FEE7000080B584B061
:1050700000AF7860114B1B68002B02D10F4B104A18
:105080001A600E4B1B68FB600C4B1A687B68D218C9
:105090006B469A4207D918F045FC03000C221A60AF
:1050A00001235B4206E0054B1A687B68D218034B6C
:1050B0001A60FB681800BD4604B080BD10040020D3
:1050C0000018002080B582B000AF00237B600D4B3C
:1050D0000D4A1A600B4B180005F0C1F9031E0CD1E4
:1050E000084B180000F07EF8064B180000F030F86E
:1050F000031E02D008235B427B607B681800BD461C
:1051000002B080BDAC1600200030014090B589B0DF
:1051100002AFF860B960BB1D1A8006235B427B6159
:10512000BB1D1C88BA68F9680848FA239B000093E5
:10513000230004F0D9FF031E02D1BB1D1B887B6135
:105140007B691800BD4607B090BDC046AC16002074
:1051500090B585B000AF78600F243B1900221A701B
:105160007B681E4A1A607B68822252005A607B6804
:1051700000229A607B680022DA607B6800221A6154
:105180007B6800225A617B68802292009A6103F05A
:10519000B3FF0300124A1100180000F067F8020084
:1051A0007B68DA617B6800221A627B6800225A629F
:1051B0007B6800229A627B680722DA627B681800AB
:1051C00004F0F6FE031E02D03B1901221A700F23D1
:1051D000FB181B781800BD4605B090BD003001409B
:1051E0008096980090B589B000AF78601D4B5A6BDF
:1051F0001C4B802149010A435A630C243B190222AB
:105200005A603B1900229A603B190322DA603B196D
:1052100000221A613B1980221A603A19A023DB058B
:105220001100180002F010F83B1900221A613B1916
:1052300040221A603A19A023DB051100180002F081
:1052400003F83B1900221A613B1908221A603B1926
:10525000054A1900100001F0F7FFC046BD4609B02D
:1052600090BDC046001002400004005080B586B0DA
:1052700000AF7860396000237B617B683B6100236D
:10528000FB600DE00C4B7A699200D358FB607B69A0
:1052900001337B617B69072B07D83B695B083B6166
:1052A0003A693B689A42EDD800E0C046FB681800B6
:1052B000BD4606B080BDC04698E6010880B582B004
:1052C00000AF00237B60194B194A1A60194B1B6809
:1052D000591C184A1160002B23D1144B180002F0FE
:1052E00069FD031E1DD1114B180000F073F87B6897
:1052F000002B16D10D4B180000F01EF8031E03D032
:1053000008235B427B600CE0084B0021180002F090
:105310009BFF031E03D008235B427B6001E0002358
:105320007B607B681800BD4602B080BD601600201F
:10533000005400401404002090B585B000AF7860A0
:105340000F243B1900221A707B68204A1A607B6880
:105350001F4A5A607B6800229A607B680122DA60EB
:105360007B6800221A617B6800225A617B680022F8
:105370009A617B680022DA617B6800221A627B688E
:10538000180002F017FA031E02D03B1901221A700E
:105390007B680021180002F057FF031E03D00F2383
:1053A000FB1801221A707B680021180002F098FF98
:1053B000031E03D00F23FB1801221A700F23FB18C2
:1053C0001B781800BD4605B090BDC0460054004093
:1053D000BB7C700090B589B000AF7860224BDA6A70
:1053E000214B02210A43DA621F4BDB6A022213407F
:1053F000BB60BB680C217B18802252001A600C0035
:105400003B1912225A603B1901229A603B19032270
:10541000DA603B1904221A613B19144A1900100082
:1054200001F012FF21007B18802292001A607B1885
:1054300012225A607B1801229A607B180322DA60DC
:105440007B1804221A617B18084A1900100001F029
:10545000FBFE054B9A6B044B802189030A439A6338
:10546000C046BD4609B090BD001002400004005087
:1054700090B583B000AF02003960FB1D1A70FB1DB0
:105480001B787F2B28D82F4AFB1D1B785BB29B080B
:10549000C0339B009B58FA1D1278110003220A406A
:1054A000D200FF2191400A00D2431A4011003B680C
:1054B0009B01FF221A40FB1D1B78180003230340A9
:1054C000DB009A401F48FB1D1B785BB29B080A4318
:1054D000C0339B001A5031E01B4AFB1D1B7819009A
:1054E0000F230B40083B9B0806339B00D318043363
:1054F0001B68FA1D1278110003220A40D200FF2116
:1055000091400A00D2431A4011003B689B01FF22E0
:105510001A40FB1D1B78180003230340DB009A4050
:105520000948FB1D1B781C000F232340083B9B08E8
:105530000A4306339B00C31804331A60C046BD46B5
:1055400003B090BD00E100E000ED00E080B58CB05C
:1055500000AF0200FB1D1A70FB1D1B78032B2FD020
:105560003ADC022B1FD037DC002B02D0012B0DD0F0
:1055700032E02A4BDA6A294B02210A43DA62274BCE
:10558000DB6A02221340BB61BB6925E0234BDA6A68
:10559000224B01210A43DA62204BDB6A01221340CD
:1055A0007B617B6918E01D4BDA6A1C4B02210A43C0
:1055B000DA621A4BDB6A022213403B613B690BE063
:1055C000164BDA6A154B02210A43DA62134BDB6A87
:1055D00002221340FB60FB68C046FB1D1A78104B8B
:1055E0005200D35A1A001C217B181A607B18012222
:1055F0005A607B1800229A607B180322DA60FB1D38
:105600001A78084B9200D3587A181100180001F04C
:105610001BFEC046BD460CB080BDC0460010024017
:10562000B8E601084C00002080B582B000AF02004F
:10563000FB1D1A70FB1D1A78074B9200D058FB1DFA
:105640001A78064B5200D35A0122190002F079F859
:10565000C046BD4602B080BD4C000020B8E601083F
:1056600080B582B000AF0200FB1D1A70FB1D1A78D6
:10567000074B9200D058FB1D1A78064B5200D35AA4
:105680000022190002F05DF8C046BD4602B080BDA0
:105690004C000020B8E6010880B582B000AF0200DF
:1056A000FB1D1A70FB1D1A78074B9200D058FB1D8A
:1056B0001A78064B5200D35A190002F05FF8C04620
:1056C000BD4602B080BDC0464C000020B8E60108CF
:1056D00080B588B000AF0200FB1D1A70BB1D0A1C0C
:1056E0001A702B4BDA6A2A4B02210A43DA62284BE2
:1056F000DB6A02221340BB60BB68254B5A6B244B0C
:1057000001210A435A63BB1D1B78002B17D10423C8
:105710001A000C217B181A607B1800225A607B1833
:1057200002229A607B180322DA60FB1D1A78194B5B
:105730009200D3587A181100180001F085FDBB1DA6
:105740001B78012B1FD104231A000C217B181A602F
:105750007B1800229A607B180F4A5A60FB1D1A784A
:105760000C4B9200D3587A181100180001F06CFD10
:1057700006235BB203211800FFF77AFE06235BB213
:10578000180001F04AFAC046BD4608B080BDC046C8
:10579000001002405C0000200000111080B500AF36
:1057A00005231800BD4680BD80B582B000AF020061
:1057B000FB1D1A70FB1D1B78012B0BD18023590197
:1057C000A023DB050122180001F0BBFF0520FFF735
:1057D00090F907E080235901A023DB05002218007F
:1057E00001F0AFFFC046BD4602B080BD90B5A7B086
:1057F00000AF80243B19180014231A00002118F070
:10580000C4F8784BDA6A774B02210A43DA62754BA7
:10581000DB6A022213407B627B6A724BDA6A714B4D
:1058200002210A43DA626F4BDB6A022213403B62B9
:105830003B6A6C4BDA6A6B4B02210A43DA62694BB2
:10584000DB6A02221340FB61FB69664BDA6A654B37
:1058500004210A43DA62634BDB6A04221340BB6112
:10586000BB693B1902229A603B190322DA600023CC
:105870009422BA18136020E05B4B94217A181268C6
:105880009200D25880203B185A60584B7A18126800
:105890005200D35A1A003B181A60554B0C007A1864
:1058A00012689200D3583A181100180001F0CCFC8D
:1058B0003B191B6801333A1913609423FB181B68CA
:1058C000032BD9D92823FB18180000F007FA8024ED
:1058D0003B19802212021A603B1901225A603B19BF
:1058E00001229A603F4BDA6A3E4B01210A43DA6299
:1058F0003C4BDB6A012213407B617B693A19A02390
:10590000DB051100180001F09FFC80231902A02381
:10591000DB050122180001F014FF324BDA6A314B2B
:1059200001210A43DA622F4BDB6A012213403B61FB
:105930003B692C4BDA6A2B4B01210A43DA62294B73
:10594000DB6A01221340FB60FB68264BDA6A254BB9
:1059500004210A43DA62234BDB6A04221340BB6052
:10596000BB68204BDA6A1F4B04210A43DA621D4BE5
:10597000DB6A042213407B607B683B1901225A607A
:105980003B1900229A603B190322DA603B198022FE
:1059900052011A603A19A023DB051100180001F02A
:1059A00053FC3B1902221A603A19A023DB051100AF
:1059B000180001F049FC3B1902221A603B190D4AFC
:1059C0001900100001F040FC3B1904221A603B1939
:1059D000084A1900100001F037FCC046BD4627B048
:1059E00090BDC04600100240F4E60108ECE6010854
:1059F000600000200008005080B586B000AF3B007A
:105A0000180014231A00002117F0BFFF3B000222E8
:105A10009A6000237B6118E0104B7A699200D2589B
:105A20003B005A600E4B7A695200D35A1A003B0071
:105A30001A600C4B7A699200D3583A001100180092
:105A400001F002FC7B6901337B617B69032BE3D9A5
:105A500000F0A4F9C046BD4606B080BDF4E60108DA
:105A6000ECE601086000002080B586B000AF7860E9
:105A7000EFF31083FB60FB683B6172B6C046002306
:105A80007B612FE07B69DA001D4BD0181D4B7A69D2
:105A90009200D358190001F0A1FB7B69DA00184B82
:105AA000D0187B699B007A68D3181B681A00002104
:105AB00001F073FB144A7B69D31800201856134B6E
:105AC0007A699200D3580022190001F091F80E4A29
:105AD0007B69D3181B785BB2180001F09EF87B69D4
