:020000040800F2
:10000000005000202D4C0008A5420008AF42000817
:1000100000000000000000000000000000000000E0
:10002000000000000000000000000000B7420008CF
:100030000000000000000000C1420008CB420008A0
:100040007D4C00087D4C0008754300087D4C00087D
:100050007D4C0008D9420008FD4200080943000811
:100060007D4C00087D4C00087D4C00082D430008A5
:100070007D4C00085D4300087D4C00087D4C000865
:100080007D4C00087D4C00087D4C000800000000FD
:100090007D4C00087D4C00087D4C00087D4C00081C
:1000A0007D4C00087D4C00087D4C00087D4C00080C
:1000B000454300087D4C0008000000007D4C00080E
:1000C00010B5064C2378002B07D1054B002B02D02E
:1000D000044800E000BF0123237010BD1C02002073
:1000E0000000000090DA0108044B10B5002B03D08B
:1000F0000349044800E000BF10BDC04600000000F6
:100100002002002090DA01080023C25C0133002A9B
:10011000FBD1581E70470000002243088B4274D365
:1001200003098B425FD3030A8B4244D3030B8B42F8
:1001300028D3030C8B420DD3FF22090212BA030C01
:100140008B4202D31212090265D0030B8B4219D3E2
:1001500000E0090AC30B8B4201D3CB03C01A524102
:10016000830B8B4201D38B03C01A5241430B8B424A
:1001700001D34B03C01A5241030B8B4201D30B0333
:10018000C01A5241C30A8B4201D3CB02C01A52415A
:10019000830A8B4201D38B02C01A5241430A8B421D
:1001A00001D34B02C01A5241030A8B4201D30B0206
:1001B000C01A5241CDD2C3098B4201D3CB01C01A20
:1001C000524183098B4201D38B01C01A524143092A
:1001D0008B4201D34B01C01A524103098B4201D318
:1001E0000B01C01A5241C3088B4201D3CB00C01A85
:1001F000524183088B4201D38B00C01A52414308FD
:100200008B4201D34B00C01A5241411A00D2014621
:10021000524110467047FFE701B5002000F0F0F8AA
:1002200002BDC0460029F7D076E7704703460B436E
:100230007FD4002243088B4274D303098B425FD3DF
:10024000030A8B4244D3030B8B4228D3030C8B420B
:100250000DD3FF22090212BA030C8B4202D31212F1
:10026000090265D0030B8B4219D300E0090AC30BC6
:100270008B4201D3CB03C01A5241830B8B4201D373
:100280008B03C01A5241430B8B4201D34B03C01A5C
:100290005241030B8B4201D30B03C01A5241C30AD4
:1002A0008B4201D3CB02C01A5241830A8B4201D345
:1002B0008B02C01A5241430A8B4201D34B02C01A2F
:1002C0005241030A8B4201D30B02C01A5241CDD2D4
:1002D000C3098B4201D3CB01C01A524183098B421F
:1002E00001D38B01C01A524143098B4201D34B0108
:1002F000C01A524103098B4201D30B01C01A52416B
:10030000C3088B4201D3CB00C01A524183088B42F1
:1003100001D38B00C01A524143088B4201D34B00DA
:10032000C01A5241411A00D201465241104670474C
:100330005DE0CA0F00D04942031000D34042534051
:1003400000229C4603098B422DD3030A8B4212D311
:10035000FC22890112BA030A8B420CD38901921143
:100360008B4208D3890192118B4204D389013AD080
:10037000921100E08909C3098B4201D3CB01C01A55
:10038000524183098B4201D38B01C01A5241430968
:100390008B4201D34B01C01A524103098B4201D356
:1003A0000B01C01A5241C3088B4201D3CB00C01AC3
:1003B000524183088B4201D38B00C01A5241D9D2DB
:1003C00043088B4201D34B00C01A5241411A00D25C
:1003D0000146634652415B10104601D34042002B58
:1003E00000D54942704763465B1000D3404201B5D7
:1003F000002000F005F802BD0029F8D016E770478C
:100400007047C0468446100062468C461900634619
:1004100000E0C0461FB501F077FA002801D40021A2
:10042000C8421FBD10B501F0C7F94042013010BDF0
:1004300010B501F069FA002801DB002010BD012091
:1004400010BDC04610B501F05FFA002801DD0020A4
:1004500010BD012010BDC04610B501F0EFF9002815
:1004600001DC002010BD012010BDC04610B501F018
:10047000E5F9002801DA002010BD012010BDC046BA
:10048000002B15D1002A13D1002906DB01DC00283E
:1004900006D00020C043410802E080210906002068
:1004A00007B4024801A14018029003BD55FFFFFFA9
:1004B00003B4684601B5029800F03EF9019B9E46E0
:1004C00002B00CBC7047C046002B11D1002A0FD1DE
:1004D000002900D1002802D00021C943080007B438
:1004E000024802A14018029003BDC04615FFFFFF5D
:1004F00003B4684601B5029800F052F8019B9E468D
:1005000002B00CBC7047C046F0B5CE46474680B539
:10051000070099463B0C9C4613041B0C1D000E0063
:1005200061460004140C000C45434B436043614397
:10053000C0182C0C20188C46834203D980235B0200
:100540009846C444494679437243030C63442D04DE
:100550002D0CC918000440198918C0BCB946B04612
:10056000F0BDC04670B500220C4B04000D00FFF733
:100570007DFF002804D12000290002F027F870BD7B
:10058000064B00222000290001F08EFC02F01EF82C
:1005900080231B069C466044F1E7C0460000E04112
:1005A000F0B557464E464546DE46E0B504000D0020
:1005B0009246994683B08B4230D82DD0494650465A
:1005C00002F0F6F829000600200002F0F1F8331AD4
:1005D0009846203B9B4633D45A4653469340424666
:1005E0001F00534693401E00AF423AD8AF4200D19D
:1005F00078E05B46A41BBD41002B00DA75E00022C9
:1006000000230092019301235A4693400193012352
:1006100042469340009328E08242CFD90022002333
:10062000009201930C9B002B01D01C605D60009830
:10063000019903B0F0BCBB46B246A946A046F0BD46
:10064000424620239B1A5246DA40414613004A464E
:100650008A40170042461F43534693401E00AF4254
:10066000C4D900220023009201934346002BD9D025
:10067000FB0772081A4346467B080EE0AB4201D1E5
:10068000A2420CD8A41A9D41012024196D410021D9
:10069000013E24184D41002E06D0AB42EED9013E5A
:1006A00024196D41002EF8D1009801995B4600197C
:1006B0006941002B24DB2B005A464446D3402A00D4
:1006C000E2401C005B461500002B2ADB26009E4002
:1006D000330026004746BE403200801A9941009000
:1006E00001919FE7A342BCD883E742462023002123
:1006F0009B1A0022009101920122DA40019286E7C2
:10070000424620239B1A2A0046469A402300F34083
:10071000444613432A00E2401C005B461500002BB0
:10072000D4DA42462F002023260097409B1ADE4051
:100730003B003343CDE7C046F8B5CE46474680B5CB
:100740009146984604000D0002F03EF807000E00A6
:1007500002000B0048464146FFF7D6FE241A8D41A1
:10076000089B380031001C605D60C0BCB946B046D3
:10077000F8BDC046F8B5CE46474643025B0A4E0276
:10078000DA009446720A914645004A0080B52D0E63
:100790001F00C40F120EC90FB609FF2A5BD001203B
:1007A00041408C4239D0A81A00285ADD002A6AD06C
:1007B000FF2D00D1D9E08022D20416431B2800DC93
:1007C000E9E001206346181A430100D4B4E0800137
:1007D0008709380001F0CEFF05388740854200DCEC
:1007E000CCE02D1AB5483840430704D00F2303400E
:1007F000042B00D00430430100D4A0E06A1CFE2D7D
:1008000000D18DE08001470AD2B2D0053843E40719
:100810002043C0BCB946B046F8BDA81A804600289F
:1008200045DD002A70D0FF2D00D19EE08023DB043F
:100830001E4343461B2B00DCD2E0012060444301F1
:100840007AD50135FF2D6BD001239D4A0340400826
:1008500010401843C8E7002E20D08C4223D0280037
:10086000FF38002839D0571B002D00D09DE063468B
:10087000002B00D1DBE07B1E012F00D10DE1FF2F0B
:1008800071D01F0098E0002E00D1A7E0421E012881
:1008900000D1E6E0FF2868D010008FE7012041403A
:1008A000A14200D07FE7FF2040428046A844404656
:1008B000002838D0511B002D00D1AEE0FF2A00D116
:1008C000DFE080236046DB04184384461B2900DCFC
:1008D000D9E0012015008019B1E7FE206A1C104202
:1008E00071D1002D00D0A6E06346002B00D1D9E0E5
:1008F0000022002E00D188E7981B430100D4E1E0DC
:1009000063460C00F01A6FE7002E00D1B7E002003A
:10091000013A012800D19CE0FF2826D0904688E7C4
:10092000FF22002771E7FE206A1C104264D0FF2AD4
:10093000F6D0150066447008430700D056E7C30898
:10094000FF2D12D05B025F0AEAB25EE76246002A20
:1009500000D196E0002E08D08022D203134204D0AA
:100960004846104201D10C004B46002BD8D08027BE
:10097000FF031F437F02FF227F0A46E720233A003E
:10098000451B38000135EA405D1BA840431E9841D5
:100990000025104328E720231B1A32009E40C24046
:1009A0003000431E984110430CE7FF2ADBD0802320
:1009B0006046DB04184384461B2F56DD01200C00E3
:1009C0001500301A00E763469F1B7B013DD4002FC2
:1009D00000D0FEE600240022002716E70500AFE75E
:1009E000320043464146DA4020235B1A9E403000E5
:1009F000431E9841104321E7002DA7D16346002BE9
:100A000059D00022002E00D1FFE63000604443019F
:100A100092D52A4B013518408EE76346002B47D00C
:100A20004B1E012915D0FF292BD019004EE70C00D1
:100A30004B463D0084E76246002A8BD1002E92D1BE
:100A400080270024FF22FF03DFE663460C00F71A2D
:100A5000BFE6300060440125430100D46CE7022565
:100A6000F2E663460125981BAEE620236446604605
:100A7000FC40DF1BB840431E984120439FE7050020
:100A80005EE74B4671E7202365466046CD40591A24
:100A90008840431E984128431CE763460C0001250B
:100AA000F01A91E6002E95D00C004F460022ACE6DD
:100AB0004B460D0044E74F460022A6E6FFFFFFFB32
:100AC000FFFFFF7D002800D036E7002400279CE6CA
:100AD00070B5051E0ED001F04DFE9E2304001B1ABA
:100AE000962B0CDC082801DD083CA5406D026D0A40
:100AF000D8B201E000200025C005284370BD992B25
:100B000009DD020029001B3291404A1E9141052255
:100B1000121AD5400D43052C12DC29000C4E314031
:100B20006A0709D00F202840042805D004314A0163
:100B300002D59F2331401B1B89014D0AD8B2DBE748
:100B4000621F95402900024E31406A07F4D0E9E760
:100B5000FFFFFFFBF0B54F464646D6460D000400AA
:100B6000C0B51F0011002803620F400A10437A002D
:100B7000520DE3003C039146640AFA0F4F0F6E00DA
:100B800027439246B846760DED0FC900954200D135
:100B900099E04C46341BA446002C00DC7CE04A461D
:100BA000002A00D1B8E0C54A964200D11CE180225B
:100BB0003C0012041443A0466246382A00DD61E17D
:100BC0001F2A00DDCCE164462022121B44469440DB
:100BD0000F00A14664469140E7404C464A1E9141B1
:100BE0003C43424621436446E240801A5C1AA342D9
:100BF0009B415F42C71B3B0200D4D0E07F027F0ACB
:100C0000002F00D1FFE0380001F0B4FD01000839E9
:100C1000202322005B1A8F40DA408C401743B142F8
:100C200000DAFFE0891B4B1C1F2B00DDA8E020220F
:100C30003900D21A200094409140D840621E94415D
:100C4000DF40002601430C43630709D00F232340F4
:100C5000042B05D0231DA342A44164423F191C006C
:100C60003B0200D49EE0954B01369E4200D1B7E096
:100C7000934AE40817407B0771057F0223433F0B2B
:100C80004A0D12053A43ED072A4318001100E0BC53
:100C9000BA46B146A846F0BD002C4BD04C46A41B2A
:100CA000A446002E00D023E104001C4300D1AFE194
:100CB0006246541E012A00D115E2804DAC4500D198
:100CC000C8E1A4461BE14A46B21A9446002A00DC59
:100CD000ACE04A46002A43D0784A964200D1AFE1C0
:100CE00080223C0012041443A0466246382A67DC86
:100CF0001F2A00DC5FE14746203AD7406246202A9F
:100D000005D064464022121B4446944021434A1EAB
:100D100091410C003C4357E03A000A4300D105E101
:100D20002200013A012C00D182E1644CA4455BD041
:100D3000944641E7634C771C274200D0C4E004008E
:100D40001C43002E00D069E1002C00D1BFE14446D5
:100D50000C4300D0D0E14207DB081343C00829E070
:100D60003A000A4300D170E162466446013A012C20
:100D700000D1E0E0514CA44500D161E19446B4E7D4
:100D80003A001F39CA401100202B03D04022D31A49
:100D90009F403C43631E9C41002700260C43630791
:100DA00000D053E7B446E4087B072343F808434ADE
:100DB00094451DD06246070352053F0B520D60E774
:100DC00044460C43621E9441E4189C429B415F429E
:100DD0003F183B02E3D5394B01369E4200D0B5E0C7
:100DE0003200002700234CE74207DB081343C0080A
:100DF0001A00024300D1E1E180273F0307433F038C
:100E00002E4A3F0B3DE7200001F0B4FC01001831F1
:100E10001F2900DCFCE60838844027000024B1428A
:100E200000DBFFE6264A761A17400DE7002A2FD08E
:100E30004A46921B9446002E00D1ADE01F4A9145D0
:100E400000D10FE18022120410436246382A00DDEF
:100E50000FE11F2A00DD80E1644620221E00121BE4
:100E60006746040093409440FE405A1E9341F84068
:100E700034431C43804464188C42BF417F424E4639
:100E80004744A6E742460A4311004A1E9141ADE697
:100E90000C4C721C224200D0A1E002001A43002E2A
:100EA00000D0FAE0002A00D145E13A000A4300D020
:100EB00046E14207DB081343C0087BE7FF07000059
:100EC000FFFF7FFFFE07000047465C1AC21BA342DC
:100ED000BF417F42B94617004A46BF1A3A0200D5C1
:100EE0008DE023003B4300D08AE60020002561E727
:100EF000B44CA14500D1ADE08024240420436446D5
:100F0000382C3DDC62461F2C00DDB7E020251E009A
:100F10002D1B0400AB40AC40D640D04042465D1E85
:100F2000AB413443121A904623432CE04207DB08BE
:100F30001343C0083BE75C189C429B4140445B4222
:100F4000C71801263B0200D429E702269E4A6308FF
:100F50001740012214401C43FB071C437F0873E623
:100F60004446203AD4406246202A05D067464022B3
:100F7000D21B4746974039434A1E9141214335E6EB
:100F80000343581E8341CC1AA142BF4143467F42CE
:100F900055464E46DF1B2EE602001A4300D1BDE047
:100FA00062466446013A012C00D1E5E0854CA44537
:100FB00058D0944649E764462022121B4446944088
:100FC0000F00A14664469140E7404C464A1E9141BD
:100FD0003C4342460C436146CA408018F4E6794CD3
:100FE000A24200D1FDE6591899429B4140445F421C
:100FF000C719FC07490816000C437F08CFE6CC1A36
:10100000A142BF4143467F42181A5546C71BF7E528
:10101000C9087B0755460B43F808C8E6002C00D0EA
:1010200081E043460B4315D1802000250003E3E611
:101030005C1AA3429B41C71B5B420126FF1ADAE5FB
:101040004207DB081343C008D2E64207DB0813431C
:10105000C008ACE643464246C9085B0755460B4309
:10106000D008C5E6434642465B07C9080B43D00893
:10107000BEE603431C00631E9C41FCE60200203CCC
:10108000E24014006246202A03D04025AD1AA84051
:101090000343581E8341234375E7002AE2D03A00F8
:1010A0000A43CDD04207DB0813438022C008120355
:1010B000104206D0FC08144203D12000CB087A0766
:1010C00013435A0FDB005207DB08134390E64346F5
:1010D0000B4300D109E743464246C9085B07554622
:1010E0000B43D00866E6CC1AA14289413F1A494217
:1010F000554601267F1A7EE542465C1A871AA342AE
:1011000092415242BF1A3A023DD5CC1AA1428941BE
:10111000434649421F1A55467F1A95E57B07C90881
:101120000B43F80843E64446DB080C4330D1420742
:101130001343C0085CE67B07C9080B43F80839E68F
:101140005C189C429B4140445B42C7183B0200D460
:1011500025E61D4B01261F4021E60400203AD4401D
:101160006246202A04D040226646921B90400343E8
:101170005A1E93411C437EE65C188C4289414044D0
:1011800049424718DDE623003B4300D1ADE606E6C1
:10119000440723438024C0082403204208D0424649
:1011A000D608264204D155463000CB0851070B43E0
:1011B0005A0FDB00DB085207134319E60023014AEC
:1011C0001F005EE5FF070000FFFF7FFFF0B55746F9
:1011D0004E464546DE46E0B5814605000C03480014
:1011E00092461F0085B0240B400DCE0F002800D181
:1011F00056E1D44B984200D172E16B0FE4001C43DE
:1012000080231B0423439846CF4BED009B460023CD
:101210009946834400933C037B005046240B5B0DAE
:10122000FF0F002B00D11FE1C64A934200D162E1BB
:10123000C549420F8C46E40059461443802263445A
:101240001204CB1A14439B46C200002033007B409B
:101250009A464B460F2B27D8BC499B00CB589F463C
:10126000B246009B022B16D0032B00D18EE2012B3D
:1012700000D0D9E000230024002552461B0523435B
:10128000D20713432800190005B0F0BCBB46B24694
:10129000A946A046F0BD00240025AA4BEDE7BA46BA
:1012A000A04615000090DCE7444500D2C7E100D11C
:1012B000C2E101235B429C462E0040460025E344E8
:1012C0002302140E1C431B0C994623041F0C12020C
:1012D000494600920197FEF7A5FF02007A430B04EE
:1012E000310C804619438A4207D901235B429C4650
:1012F0000919E0448C4200D807E2881A4946FEF7F3
:1013000091FF09048C4631046646019A090C424358
:10131000030031438A4204D90919013B8C4200D8A9
:10132000EDE1881A424612041A4390464146009B5A
:101330000E041B0C1F000293009B360C1B04190C9F
:101340000B007343120C7E43039151437A431F0CED
:10135000BC4676186644B14203D9802149028C46C6
:101360006244310C8A1831041E04360C8E199042E6
:1013700002D312D1B54210D24346591E009B9C465F
:1013800065441F009D429B415B421B19C01884426B
:1013900000D2A0E100D19BE18846AE1BB542AD4131
:1013A000801A6D42401B844200D1D5E14946FEF7C8
:1013B00039FF019A0B044243310C050019438A425C
:1013C00000D96CE1881A4946FEF72CFF019A3604D1
:1013D00042430904360C03000E43B24200D953E1E4
:1013E0000398B61A02002D041D43029F2B041B0C08
:1013F0005A437B439C46290C4843130C8444634462
:101400007943984203D98020400284466144180CF5
:1014100012041B04120C41189B188E4200D2FFE0EC
:1014200000D1FAE001231D43494A5A44002A00DC56
:10143000AAE06B0700D03DE1ED084346DB0106D58D
:101440004246444B1A4090468022D2005A44424BB6
:101450009A4200DD1FE743465B071D4343465205A2
:101460005C02240B530D08E75246224300D17BE077
:10147000002C00D1FAE0200001F07CF902000B3AC8
:101480001D2301009B1A52460839DA408C40144350
:1014900052468A40314B58449B4683440020D5E64F
:1014A0004B462343984644D0002C00D1CEE0200088
:1014B00001F060F9010002000B391D235B1A494657
:1014C0001000D940083884400B004D46234398460D
:1014D00085402348831A9B460023994600939AE649
:1014E0004B46234398461DD108239946063B0025C9
:1014F000834600938FE65246224309D10223494690
:101500001943184B89469C4600240220E3449DE67B
:1015100003234A461A43134B91469C4652460320E6
:10152000E34493E60C239946093BA0468346009387
:1015300071E60423994600239B460133002500935E
:1015400069E6C046FF07000001FCFFFF58EF0108F5
:10155000FF030000FFFFFFFEFE070000F303000093
:101560000DFCFFFF01F8FFFF49460123194389469F
:10157000002401206AE6002380249A4600258A4B35
:1015800024037AE601256D4201239B1A382B00DDE6
:1015900070E61F2B00DCBFE01F2149428A1A41463A
:1015A000D1400A00202B04D04146804B5B44994037
:1015B0000D436B1E9D4107232A431D000024154047
:1015C000134200D1D4E00F2100231140042900D19F
:1015D000CBE0111D9142924152429B180A00190220
:1015E00000D4C2E001230024002546E680234146C2
:1015F0001B03194208D01C4206D11C432403BA46DF
:101600001500694B240B38E68024434624031C4311
:101610002403B246644B240B2FE6002B00D103E7D2
:10162000A619681EA64200D28DE08E4200D2A3E029
:1016300000D1B3E00500F5E6AA4200D939E64346F9
:10164000DE0758086B081E43ED0739E6484601F0EF
:1016500091F801000200153120321C2900DC2CE732
:101660004B46083883400025984632E701F082F85F
:1016700003001A00153220301C2A00DC00E7544613
:10168000083B00229C4005E73619013BB44200D9D3
:10169000A6E6B24200D8A3E6831E3619A0E60919D1
:1016A000013D8C4200D98DE68A4200D88AE6851E2B
:1016B000091987E60F232B40042B00D1BCE6052334
:1016C0005B42AB429B4104355B42ED089844B4E673
:1016D000AF4200D960E6824204D800D05CE6AE4258
:1016E00000D859E602235B429C46009BE0449C469E
:1016F00065449D429B415B421B19C0184DE68A42DE
:1017000000D80EE6831E09190BE68A4200D8F4E5DC
:10171000831E98460919F0E52549280059448D4053
:1017200042468A40691E8D414146D840D940024315
:101730002A430B00510700D151E70F211140042922
:1017400000D046E74BE705008E4200D06AE6009ADB
:10175000934200D066E667E6164A5A44002A00DC47
:1017600010E701230025984467E65D075B021C0B28
:10177000D2080023154380E50098023D42008242D2
:10178000BF417F423C1936190092DDE78024434671
:1017900024031C432403044B240B6EE5009A9A4255
:1017A000EAD30500D3E7C046FF0700003E0400006F
:1017B0001E040000FF030000F0B54E464546DE461D
:1017C00057469046E0B517001A03120B05008446F1
:1017D00019480E034C0091465A00DB0F9B46360B0E
:1017E000640DC90F520D844219D0824210D00120DD
:1017F00094420ED14E450CD10120C44509D1594522
:1018000017D0002C05D130002843431E984100E03A
:101810000120F0BCBB46B246A946A046F0BD33004D
:1018200001202B43F5D1A242F3D14B463B43F0D1EB
:10183000E2E70020EDE7C046FF070000F0B54746AD
:10184000CE460400180016001B031B0B2D4D4A004A
:10185000994680B543000F03A446B0463F0B520D96
:10186000C90F5B0DC00FAA4221D0AB4213D0002A92
:1018700022D13C43002B02D14D462E4322D0002CD6
:1018800010D0814222D00220013908400138C0BC6A
:10189000B946B046F0BD4D462E4329D1002AF0D1BD
:1018A0003C43EED10028F2D101204042EFE73D0059
:1018B00025431DD19342EED0002BE2D14C46264366
:1018C000DFD1E0E70020002CE1D0DCE79A420ADC1F
:1018D000E8DB4F45D7D80ED000204F45D7D200299E
:1018E000E2D00800D3E74342584140000138CEE738
:1018F00002204042CBE7C445C5D80020C445C6D22B
:10190000EDE7C046FF070000F0B54746CE460400AD
:10191000180016001B031B0B2C4D4A00994680B57E
:1019200043000F03A446B0463F0B520DC90F5B0D99
:10193000C00FAA420DD0AB4210D0002A27D13C43A1
:10194000002B11D14D462E430ED10020002C15D076
:101950000EE03D00254310D1934218D14D462E4351
:101960000BD1002A02D13C43002C0BD0814214D071
:10197000022001390840013800E00220C0BCB9460D
:10198000B046F0BD0028F9D101204042F6E7002B17
:10199000ECD14C462643E9D1EAE79A4204DD4342C2
:1019A000584140000138E9E79A42EBDB4F45DFD868
:1019B00006D000204F45E1D20029E5D00800DDE740
:1019C000C445D5D80020C445D8D2F5E7FF070000AC
:1019D000F0B557464E464546DE46E0B598460C0300
:1019E0004B000600924687B0240B5B0DCF0F002BF7
:1019F00000D15CE1D94A934200D175E1420FE40085
:101A00001443802212041443D54AC500944663440B
:101A10000093002399469B46434642461E03D20F3D
:101A20005B0050469046360B5B0D00D120E1CB4A5F
:101A3000934200D162E1CA49420F8C460099634447
:101A4000F6008C46164380229C44120463461643DB
:101A5000C200002000930099434601318C4649465C
:101A60007B4001930F2926D8BE4B890059588F46D9
:101A7000434601933400150083465B46022B16D083
:101A8000032B00D103E2012B00D0CDE00022002483
:101A90000025019B12052243DB071A432800110091
:101AA00007B0F0BCBB46B246A946A046F0BD002434
:101AB0000025AA4AEDE7280C2D042D0C2B00110C53
:101AC0001204120C5343984613002F0043439946C7
:101AD0004F434F44BB4647460B003F0CBA46434377
:101AE000DA440293D14504D980277F02B9464B449A
:101AF000029353461B0C9B4653461F0443461B044C
:101B00001B0C98463B0043440493330C3604360CBC
:101B10009846330043439946434643432F009A4631
:101B2000434677435D43380C4D444519A94503D9D5
:101B300080235B029946CA443F04280C3F0C2D04C5
:101B4000ED19270C2404240C0300200050437A4391
:101B500091463A0053440593030C9A464A43614325
:101B600049445144AB44894503D980235B029946DB
:101B70004A4400040B0C000C090409182000994683
:101B8000434670435C437E435F43030C9846A4196D
:101B900044444A440397A64204D980235B029846F2
:101BA000474403972304029E9A46059B5E44984649
:101BB000AE42AD4176188E4289410004000C50447B
:101BC00040446D424719B846934649428946C3444A
:101BD000D94498428041A845AD41934592418945F9
:101BE00089416D4240422843240C524249420A43F3
:101BF000039B00198018C7184B46DC0D049B750227
:101C00001D436A1E95414B46F60D7F0235435A022D
:101C10003C431543FB0100D41CE101216A080D403F
:101C20001543E207154364084F496144002900DC6D
:101C3000B0E06B0709D00F222A40042A05D02A1DE4
:101C4000AA42AD416D4264191500E30104D580211B
:101C5000464AC90014406144454A914200DD26E7E6
:101C60006207ED08640249051543240B4A0D10E78D
:101C70005246324300D17FE0002E00D1DCE030003C
:101C800000F078FD02000B3A1D2301009B1A52461A
:101C90000839DA408E40164352468A40009B354947
:101CA000181A03008C46634400200093D3E62500F5
:101CB00005434AD0002C00D1B0E0200000F05AFDCE
:101CC000010002000B391D2310005B1A31003500A2
:101CD00008388440D94085400C432648831A009335
:101CE000002399469B4697E60500254326D1082206
:101CF00000930223002491469B468DE65246009BAA
:101D0000324310D1154900268C466344494600935E
:101D100002231943894602209DE65B460197022B68
:101D200000D0ADE6C3E60D4A0320944663444A461C
:101D3000009303231A43914652468CE60C220093EB
:101D40000323050091469B4666E60423994600233B
:101D50000093013300249B465EE6C046FF07000067
:101D600001FCFFFF98EF0108FF030000FFFFFFFEEB
:101D7000FE0700000DFCFFFF494601231943894679
:101D80000026012067E6002380240025434A0193B2
:101D900024037EE60120401A382800DD76E61F285D
:101DA0005BDD1F2223005242511ACB40190020282C
:101DB00003D03B4A6244944025436A1E95412A0061
:101DC0000A4307210D000024154011425BD00F216A
:101DD00000241140042953D0111D914292415242D6
:101DE000A4180A0023024BD501220024002550E646
:101DF00080231B031C4209D01E4207D133431C031E
:101E000043461500240B254A019342E68022120323
:101E100014432403214A240B01973AE600F0AAFC5C
:101E200001000200153120321C2900DC4BE7340090
:101E300008380025844050E700F09CFC03001A009D
:101E4000153220301C2A00DC1EE75646083B0022D3
:101E50009E4023E7009B9C46E6E61249220061442F
:101E60002E008D408A40C640691E8D4132432A4370
:101E7000C4405307B6D00F2111400429ACD1B1E7BB
:101E800065076402240BD2081543002201E6802274
:101E9000120314432403014A240BFAE5FF07000050
:101EA0003E0400001E040000F8B557464E46454665
:101EB000DE46E0B51E0017004A000B03520D5B0A18
:101EC0009046420F1A43CD0FCD4C3103C3009446C8
:101ED00070007A0F490AFF009A46B946400DF60F86
:101EE0001143A04200D1B1E001225640B346B542B1
:101EF00000D188E04246121A002A00DCAEE0002839
:101F000000D1C1E0BE48804500D151E180200004ED
:101F10000143382A00DD7BE11F2A00DDEEE12020AD
:101F20003E00801A0C00D640D14087406246844073
:101F3000521A781E8741944634432743DC1BA34240
:101F40009B4162465B42D31A99464B461B0200D422
:101F500018E14B465802430A99464B46002B00D1E4
:101F600037E1484600F006FC010008392023220032
:101F700048465B1ADA4088408C4043461043884507
:101F800000DD36E1C91A4B1C1F2B00DDEAE02022E0
:101F90002600D21A01009440DE40D8400023914030
:101FA000621E94418146984631430C43630709D031
:101FB0000F232340042B05D0231DA342A4416442D8
:101FC000A1441C004B461B0200D4DEE041468C4B72
:101FD0000131994200D1E7E04B468A48E4080340CA
:101FE000180049055B07400223434A0D040B120504
:101FF000ED0722432A4318001100F0BCBB46B2464D
:10200000A946A046F8BD4246121A002A52DD002811
:1020100000D19CE0A04500D1CAE08020000401432B
:10202000382A00DD49E11F2A00DC97E110000E008C
:102030002038C640202A04D04020821A91400F4305
:10204000B9464C46621E944134433AE10A003A4391
:1020500028D0B346B5422BD06B4A4244002A5DD00B
:1020600042464446821A002C00D0F5E065461D43E6
:1020700000D19CE1551E012A00D1FBE1604CA24237
:1020800000D1BDE12A00F0E00800384300D1C3E0F0
:10209000501E012A00D1A8E1594CA24200D187E08C
:1020A000020036E701225640B346B54200D021E790
:1020B000554A4244002A00D1B5E042464446821ABD
:1020C000002C00D138E14E4EB04200D1DEE1802636
:1020D000644636043443A446382A00DD96E11F2ABC
:1020E00000DD24E22026B41AA24664465646B440D7
:1020F000A1461C004E46D440264334005646B34009
:102100005E1EB3411C436346D340C918E419BC4268
:10211000BF417F42B94680468944D8E040463B4CA7
:102120000130204200D0B4E04046002800D044E115
:102130006046184300D190E10800384300D0AAE17E
:102140006146DB0849070B436146CC0827E00800DD
:10215000384361D0501E012A00D139E1A24227D074
:1021600002005DE702001F39CA401100202B03D096
:102170004022D31A98400443631E9C410023994691
:1021800098460C43630700D012E74B464A46E408E2
:102190005B072343D408424619498A420ED02403E0
:1021A0005205240B520D22E70A00002400231EE7EB
:1021B000DB086246520713436246D4081A002243E2
:1021C00000D1FCE180221203144324030C4A240BA7
:1021D0000DE7200000F0CEFA010018311F2900DCC5
:1021E000C4E608388440434620000024884500DCCB
:1021F000C8E6044A5B1A104098468146D6E6C046B7
:10220000FF070000FFFF7FFF01F8FFFFFE07000050
:102210000F437A1E974191E66146DB0849070B435D
:102220006146CC08B8E74046D34C0130204200D08C
:10223000A2E04046002800D001E16046184300D1EA
:102240005EE10800384300D05FE16146DB084907E2
:102250000B436146CC08A2E7C84DA84200D1CFE0AD
:10226000802564462D042C43A446382A56DC1F2AB8
:1022700000DDD1E020251E00AD1A6446AB40AC4025
:10228000D6405D1EAB41344323436446D440091B12
:1022900049E06046DC1B461AA34280414042814629
:1022A00030004E46801B8146000276D44B462343C5
:1022B00000D052E60024002571E739430C00621E6D
:1022C0009441E4189C429B415B42634499464B46CF
:1022D0001B0200D456E701239C46A84BE0449845D6
:1022E00038D04B46A648012203401800630814402A
:1022F0001C43C3071C434308994657E610000E00D1
:102300002038C640202A04D04020821A91400F4332
:10231000B9464F467A1E974137430FE662461A4345
:1023200013005A1E9341FC1AA742BF417F42CB1BA8
:1023300099465D46804608E666461E4300D1BEE0EB
:10234000561E012A00D109E18C4CA24200D119E1AC
:102350003200C1E642460024002348E620200C005B
:10236000801A3E0087408440D640781E8741D14085
:1023700034433C438C44A4E7804A904200D1E9E0D6
:10238000DF199F429B4161445B42C918CC077F081B
:102390004B08994680463C43F4E6FC1AA742BF41ED
:1023A00063467F42C91ACB1B99465D46D5E5FF08B7
:1023B0004B075D463B43CC08EEE662461A4300D02D
:1023C00082E00B003B431BD1802400252403F9E667
:1023D000DC199C429B41614489465B4299444B46CF
:1023E0001B0244D401239846CCE6DC1B6246A34280
:1023F0009B41511A5B42CB1A994601239846A4E5AA
:10240000FF084B075D463B43CC08D7E662461A43BC
:102410001400631E9C4179E615006446203DEC40A3
:10242000A046202A05D040256446AA1A944023439A
:102430009A465446631E9C414346234373E76246D3
:102440001A4323D00A003A4300D0A0E06246DB08DA
:10245000520713436246D408B0E60B003B4300D159
:1024600028E7FF084B075D463B43CC0897E602236D
:10247000984636E7FC1AA742BF4163467F42C91A15
:10248000CB1B994601235D4698465EE54B07FF0846
:102490003B43CC0892E6DC1B6046A342B641401A9F
:1024A0007642801B8146000260D5FC1AA742BF41DC
:1024B00063467F42C91ACB1B99465D4676E5FF0805
:1024C0004B073B43CC0867E60A00DB083A4300D1E0
:1024D0006FE66246520713436246D4088022120315
:1024E000144207D0C808104204D15D460400FB081E
:1024F00049070B435A0FDB00DB08520713435DE625
:102500004B07FF083B43CC0849E6DC199C429B4142
:10251000614489465B4299444B461B0200D431E634
:102520004A46174B1A400123914698462AE6160060
:102530006446203EF440A046202A05D0402664464A
:10254000B21A944023439A465446631E9C41434624
:102550001C43DBE502000024002348E5DC19BC42F3
:10256000BF41614489467F42B94438E74B46234323
:1025700000D19FE606E6C046FE070000FF07000008
:10258000FFFF7FFFFF084B073B43CC0816E6624680
:10259000DB08520713436246D40880221203144218
:1025A00007D0C808104204D15D460400FB08490763
:1025B0000B435A0FDB005207DB081343FEE50023F1
:1025C000014A1C0013E5C046FF0700000A0030B5B1
:1025D000134C530009030500090B00205B0DD20FBB
:1025E000A34204DD0F48834202DD0F4BD01830BDFB
:1025F0008020400301430D48C01A1F2808DD0C4805
:10260000C31AD9400B005842002AF0D11800EEE757
:10261000084CC540A446634499400B002B43F2E7A5
:10262000FE0300001D040000FFFFFF7F33040000D5
:1026300013040000EDFBFFFF70B5002816D0C31790
:10264000C5185D40C40F280000F094F8114A121A12
:102650000A2816DC03002E0015339E400B23181A9F
:10266000C54052052D032D0B530D03E0002400231C
:10267000002500261B052B43E407234330001900E7
:1026800070BD0B38854052052D0300262D0B530DD0
:10269000F0E7C0461E04000010B5041E10D000F084
:1026A00069F80F4B1B1A0A2811DC0B222100121AA1
:1026B000D14015300A035B058440120B5B0D01E02D
:1026C000002300221B0513432000190010BD220027
:1026D0000B3882405B0512030024120B5B0DF1E7FF
:1026E0001E04000070B543004602C40FFE201B0EFE
:1026F000591C750A08420CD0E022920094466D07DE
:10270000360B63441B053343E407234328001900B9
:1027100070BD002B14D1002D1BD0280000F02AF82A
:102720000A281CDC0B232E001B1ADE400300153385
:102730009D400E4A3603121A5205360B530DE1E73F
:10274000002D09D08022360B1203094B6D0716436A
:10275000D8E700230026D5E70026054BD2E7030083
:102760000B3B9D402E000025E3E7C0468903000097
:10277000FF0700001C2101231B04984201D3000C19
:1027800010391B0A984201D3000A08391B099842E4
:1027900001D30009043902A2105C40187047C046FA
:1027A000040302020101010100000000000000001A
:1027B00010B5002903D1FFF7DDFF203002E008004B
:1027C000FFF7D8FF10BDC046F0B557464E46454608
:1027D000DE46E0B50F001900002306009846100001
:1027E00083B0002F07DA33003C0000275E42A74188
:1027F00001235B429846002907DA4346DB430C007D
:102800009846030000215842A14134003D00824611
:102810008946B9426AD867D049465046FFF7C8FF93
:10282000834639003000FFF7C3FF5B461B1A9C4606
:10283000203B9B466BD458465146814060460B0076
:10284000514681400A00BB4200D972E0BB4200D130
:1028500079E034003D005946A41A9D41002900DA70
:1028600074E00021002001260090019159468E401D
:102870000196614601268E406146009600295FD090
:10288000D90756080E435F086146012200230CE079
:10289000AF4201D1A6420AD8A41BBD4124196D4103
:1028A0000139A4185D41002906D0AF42F0D90139A1
:1028B00024196D410029F8D1009801995B4600194F
:1028C0006941002B4DDB2E002C00DE406346DC40CE
:1028D0005B46002B55DB34009C4023006446A64039
:1028E0003200801A994103E0B04295D900200021BE
:1028F0004346002B04D003000C0000215842A141A4
:1029000003B0F0BCBB46B246A946A046F0BD624645
:1029100048462023514690409B1AD940030000911D
:10292000009960460B43514681400A00BB4200D8E3
:102930008CE70021002000900191614600299FD181
:1029400000980199D4E7B142F3D882E76146202686
:102950000127761A00200021F7400090019101978D
:1029600087E7624620239B1A2A009A40260013001C
:102970006246D6402C001E436346DC405B46002B7B
:10298000A9DA62462023350094409B1ADD402300DB
:102990002B43A3E780B500AF01F0F8FC00F00EF880
:1029A000C046BD4680BD80B500AF01235B42180024
:1029B00019F010FBC046BD4680BD000080B586B052
:1029C00004AF022002F0A0FB012002F09DFB0320D7
:1029D00002F09AFB3E4B0022029200220192012259
:1029E000009200220021022018F032FF394B012210
:1029F0005142394800220092002219F0B3FD374BB2
:102A000001225142364800220092002219F0AAFD0C
:102A1000344B01225142344800220092012219F025
:102A2000A1FDFA235A002C4B1100180019F0C2FE28
:102A3000FA235A002A4B1100180019F0BBFEFA23A2
:102A40005A00294B1100180019F0B4FE274B1A0048
:102A50000021012019F0A0FB254B1A0000210220C3
:102A600019F09AFB00F046FB224B18000AF0A8FB75
:102A7000214B18000AF0EAFB1B4B180019F0AAFDC5
:102A80001E4B1B7818000AF025FD1D4B1B78002BF0
:102A900015D11C4B7B601C4B012251421B4800226C
:102AA0000092002219F05EFD7A68184B11001800A0
:102AB00019F080FE154B180019F08CFD03E0012180
:102AC000002002F0E3FBC046BD4602B080BDC04618
:102AD000B8DA0108592F0008440300206F2F0008BE
:102AE0005C030020852F00087403002019D400081F
:102AF000452C00080C0000202C00002008000020BD
:102B00002B03002010270000352F00082C03002085
:102B1000F0B589B006AF786039607B68002B00D1D2
:102B20007AE03B68002B00D176E0022002F05AFBED
:102B30003E4B00220021022018F08AFE3B689B6871
:102B40003A68127B52B21100394A89008A58796872
:102B5000097808003968897849B20C003968C97861
:102B600049B20D003968097949B20E00314905961C
:102B7000049503940290019200930B00002200211F
:102B8000032018F065FE7B681B78022B20D0032BF6
:102B900044D17B685B78012B16D17B685B681B781E
:102BA000022B0DD012DC002B02D0012B04D00DE043
:102BB00000200AF0E9FD0AE001200AF0E5FD06E048
:102BC00002200AF0E1FD02E0C0462AE0C04628E00B
:102BD0007B685B78012B23D17B685B681B780122C3
:102BE0001340DAB2144B1A70134B1B78002B09D127
:102BF000124B00220021032018F02AFE012002F0CF
:102C00000DFB0DE00E4B00220021032018F020FEEA
:102C1000012002F0E7FA03E0C04602E0C04600E00F
:102C2000C046C046BD4603B0F0BDC046ECDA010860
:102C30003400002020DB01082A03002064DB0108A7
:102C400070DB0108F0B5E1B004AFB7235B00FB18FF
:102C500000221A80B6235B00FB1800221A80002392
:102C6000BB639E4BB82252009B18DB1900221A80CE
:102C7000B5235B00FB1800221A800023B222520009
:102C8000BA1813600023B0225200BA181360002350
:102C9000AE225200BA181360AD235B00FB1800226D
:102CA0001A808F4B02221A7002F0E6F800F056FAF2
:102CB00000F012FA8B4B18001AF028F98A4B762292
:102CC0009A84894B894A9A62864A874B1100180078
:102CD0001AF0B0FAFA23DB00180001F014FD844B5F
:102CE000844A854980481AF0A5FD834B1B686421FE
:102CF0001800FDF781FB0B00AA225200BA181360DE
:102D0000794B1B88002B06D07C4B0022002102202F
:102D100018F09EFD05E07A4B00220021022018F0F9
:102D200097FD754B1B68632B0BDD734B1B68754A56
:102D3000934206DC744B00220021022018F088FD2B
:102D400005E0724B00220021022018F081FD704B3B
:102D500001221A606F4B01221A806F4B0A221A80DF
:102D60006E4B01221A606B4B0020185E5C4B5A6858
:102D7000B22464003B191B68591C3D192960D31803
:102D8000C2B21A705C4B1B6864211800FDF74EFA42
:102D9000030064211800FDF72FFB0B001800504BB7
:102DA0005A683B191B68591C3D192960D318C2B2D7
:102DB0001A704F4B1B68FA2291001800FDF736FA83
:102DC00003001800464B5A683B191B68591C3D19F3
:102DD0002960D318C2B21A704F4B0020185E404BC6
:102DE0005A683B191B68591C26003C192160D318EE
:102DF000C2B21A7001F0F6FA03001AB2484B1A80F8
:102E0000474B0020185E364B5A68BB191B68591C8B
:102E1000BC192160D318C2B21A70C82001F073FC2B
:102E20003C4B00229B5E1C00334B1B686421180046
:102E3000FDF7FCF903001D002D4B1B68FA229100E1
:102E40001800FDF7F3F90300364A0393AA235B0049
:102E5000FB181B68029301950094130000220021C7
:102E6000022018F0F5FC2C4B00229B5E1A002C4B24
:102E700000215B5E19002C4B019100920022002181
:102E8000022018F0E5FCBB191B68DAB2144B5A702B
:102E90003823FA181248002301210AF0A3FB031E6D
:102EA00006D1224B00220021012018F0D1FC11E0B4
:102EB000BB6B002B0ED0BB6BFA2291001800FDF704
:102EC0002BF903001A001A4B009200220021012066
:102ED00018F0BEFCC046BD465DB0F0BD92FEFFFFDF
:102EE00000000020B80300208C0300208807002089
:102EF000FC04002000050020F80400207CDB010811
:102F0000B4DB01081B0C00000CDC010858DC0108D4
:102F1000EC040020E8040020EA040020F004002073
:102F200004050020BCDC010848DD01089CDD010827
:102F3000E0DD010880B582B000AF7860002102209A
:102F400019F04EF9034B180019F044FBC046BD467A
:102F500002B080BD2C03002080B582B000AF786045
:102F6000032002F05BF9C046BD4602B080BD80B5CB
:102F700082B000AF7860022002F050F9C046BD4632
:102F800002B080BD80B582B000AF7860012002F051
:102F900061F9C046BD4602B080BD000080B586B074
:102FA00004AF78607B68002B42D07B681B78002BD5
:102FB0003ED0032002F016F91F4B180019F00AFB4F
:102FC0001E4B00220021022018F042FC7B689B6807
:102FD0007A68127B11007A68527D1000184A0290BC
:102FE00001910093130000220021022018F030FC10
:102FF000144B00220021032018F02AFC7B689B78E8
:10300000012B0FD17B68DB78002B01D00E4B00E049
:103010000E4B0F4A0093130000220021032018F0EA
:1030200017FC05E00B4B00220021032018F010FCD8
:10303000C046BD4602B080BD440300203CDE01080E
:1030400064DE0108B8DE0108C8DE0108CCDE010834
:10305000D4DE0108E8DE010880B582B000AF7860F8
:103060007B68002B29D07B685B785BB2002B1ED17C
:10307000144B180019F026FB012002F0CFF8124B78
:1030800000220021022018F0E3FB7B689B78022BD2
:1030900006D10E4B00220021022018F0D9FB0CE0D3
:1030A0000B4B00220021022018F0D2FB05E0094B57
:1030B00000220021022018F0CBFBC046BD4602B022
:1030C00080BDC04674030020FCDE010834DF010827
:1030D0005CDF010884DF010880B500AFC046BD4653
:1030E00080BD80B500AF0021012019F079F8C046FD
:1030F000BD4680BD80B500AF124B00221A60114B57
:1031000000225A600F4B00229A600E4B0022DA60B8
:103110000C4B5B6820221A430A4B5A60094B5B68D0
:10312000002B06D1084B00220021002018F090FB54
:10313000FEE7044B0022DA60024B03221A60C0460D
:10314000BD4680BD0805002020E0010880B500AF25
:10315000014B1800BD4680BD0805002080B500AFBA
:10316000224B234A1A60214B0022DA631F4B802234
:1031700012065A601D4B0022DA611C4B01225A6371
:103180001A4B00229A61194B00229A60174B0722B2
:103190009A63164B01221A61144B0022DA60134B1A
:1031A000202200219954114B2122002199540F4BC8
:1031B00000229A620D4B04225A610C4B2C220021F2
:1031C00099540A4B180002F0BFFC031E01D000F016
:1031D00047FA064B0021180003F0A8F9031E01D09E
:1031E00000F03EFAC046BD4680BDC046180500202E
:1031F0000024014090B589B000AF78607B681B68FF
:10320000124A93421ED10C243B19180014231A00B1
:1032100000211AF0AAFB0E4B5A6B0D4B802189003E
:103220000A435A633B1910221A603B1903225A6061
:103230003B1900229A603A19A023DB0511001800FF
:1032400003F0E0FDC046BD4609B090BD002401403A
:103250000010024080B582B000AF78607B681B68C8
:103260000F4A934218D10F4B5A6A0E4B80218900A6
:103270000A435A620B4B5A6A0A4B0B490A405A627C
:10328000084B5A6B074B08490A405A63A023DB05D9
:103290001021180003F034FFC046BD4602B080BDC7
:1032A0000024014000100240FFFDFFFF80B500AF89
:1032B000024B034A1A60C046BD4680BD1805002077
:1032C00000240140B0B584B000AF0E257B19002268
:1032D0001A800023BB60BC1D00F03CF80300238073
:1032E000184B180000F064F80300BB60BB1D1B887E
:1032F000BA68534314491800FCF70EFF03001A0084
:10330000124B1B88D21A13009B009B181B011B0237
:103310000F4A128811000D4A12888A1A11001800EB
:10332000FCF784FF03009BB2F022520194466344F1
:103330009AB27B191A807B1900229B5E1800BD4649
:1033400004B0B0BD00000448B80B00007A00F81FBC
:103350007E00F81F80B582B000AFBB1D00221A802E
:1033600000233B600F4B180000F022F803003B6085
:103370003B68002B03D1BB1D00221A800CE00A4BD6
:103380001B881A00094B534339681800FCF7C4FE28
:1033900003001A00BB1D1A80BB1D1B881800BD4608
:1033A00002B080BD000002447800F81FB80B000096
:1033B00090B587B000AF786000237B610C23FB18C9
:1033C000180008231A0000211AF0CFFAFFF7C6FEF2
:1033D000C0462C4B5B6808221340082BF9D12A4BBE
:1033E0005A6B294B802189000A435A63274B0021DD
:1033F000180003F09BF80C243B19254A1A603B196E
:10340000244A5A603A19214B1100180002F0E2FEDA
:1034100021007B187A681A607B18802252015A605A
:103420007A181A4B1100180002F0D4FE031E01D0C6
:1034300000F016F9154B180002F096FD031E01D09E
:1034400000F00EF901235A42104B1100180002F04F
:103450001FFE0E4B180002F0DBFD0C4B180002F0B3
:10346000ADFE03007B61094B180002F0E1FC064B46
:103470005A6B054B08490A405A637B691800BD46E0
:1034800007B090BD007000400010024018050020F9
:10349000FFFF070001100000FFFDFFFF80B582B0B5
:1034A00000AF0C4B1A6B0B4B01210A431A63094BFB
:1034B0001B6B012213407B607B68002200210B20E4
:1034C00003F074F90B2003F086F9C046BD4602B044
:1034D00080BDC0460010024080B582B000AF02F04F
:1034E000B9FA00F027F8FFF755FA3B00104A1188A7
:1034F000198092789A70FB1D0A221A70BB1D012256
:103500001A707B1D00221A703B1D02221A707A1D50
:10351000FB1D12781B789A4203D13B1D64221A705E
:1035200002E03B1D00221A70FFF73DFAFCE7C0469F
:1035300070E0010890B59DB000AF38243B19180029
:1035400038231A0000211AF010FA2423FB1818005F
:1035500014231A0000211AF008FA3B001800242353
:103560001A0000211AF001FA21007B1802221A60C9
:103570007B1800225A607B180122DA607B18012236
:103580005A617B1810221A617B1802229A627B18FA
:103590000022DA627B18802212031A637B188022D1
:1035A00012045A637B18180004F0A2FD031E01D018
:1035B00000F056F8274B9A6B264B802149050A43A9
:1035C0009A63254B1B68254A1A40234B8021090129
:1035D0000A431A60C046204B5B6810221340102B30
:1035E000F9D024217B180F221A607B1803225A601D
:1035F0007B1800229A607B180022DA607B18002278
:103600001A617B180121180005F046F9031E01D04C
:1036100000F026F83B00AB221A603B0000229A60C3
:103620003B000022DA603B0000225A613B0080220E
:1036300092025A603B000022DA613B00180005F05C
:103640004FFB031E01D000F00BF8C046BD461DB075
:1036500090BDC0460010024000700040FFE7FFFF31
:1036600080B500AFFEE7000080B590B000AF2C231E
:10367000FB18180014231A0000211AF076F92823E9
:10368000FB1800221A603B00180028231A000021B2
:103690001AF06BF9414B424A1A60404B00225A60C3
:1036A0003E4B1F229A603D4B3E4ADA603B4B002264
:1036B0001A613A4B00225A61384B00229A61374B0B
:1036C0000022DA61354B180005F060FC031E01D0C2
:1036D000FFF7C6FF2C217B1800221A707B180022EE
:1036E0005A707B1800229A707B180022DA607B18CF
:1036F00000221A617918294B0022180005F0E4FC19
:10370000031E01D0FFF7ACFF28217B1801221A709D
:103710007B1801225A707B1801229A707B180022B4
:10372000DA7079181D4B0022180005F0EDFD031E1C
:1037300001D0FFF795FF3B0000221A703B000022EA
:103740005A703B0000229A703B0000225A603B00F6
:103750000022DA603B0000221A613B0000225A611D
:103760003B00A02212059A613B000022DA613B0077
:1037700020221E2199543B00802252005A623900B7
:10378000064B0022180005F0BBFE031E01D0FFF718
:1037900067FFC046BD4610B080BDC046EC050020A6
:1037A00000280040FF03000090B591B000AF7860A2
:1037B00008243B19180038231A0000211AF0D5F804
:1037C0007B681B68164A934226D13B1904221A6073
:1037D0003B19802252009A603B1900225A613B1922
:1037E00000225A603B1900229A623B19180004F02B
:1037F0007FFC031E01D0FFF733FF0A4B1A6D094B04
:103800008021C9020A431A6500220021022002F029
:10381000CDFF022002F0DFFFC046BD4611B090BDD3
:10382000002800400010024080B582B000AF7860F0
:103830007B689B6A1B041B0C1800BD4602B080BD50
:1038400080B58AB000AF164B1B7801225340DBB223
:10385000002B1FD03B1D20221A603B1D80225202EC
:103860005A603B1D180005F03BFA031E00D0FEE72E
:10387000FFF7FAFE80235A000A4B1100180005F0EA
:103880008BFF084B180006F035F900F059F8044B8F
:1038900001221A7000231800BD460AB080BDC04640
:1038A00010060020EC05002090B583B000AF7860D2
:1038B000144B00229B5E03331C0000F061F80200F1
:1038C0007B689B1A9C4204D20021022018F078FAEF
:1038D00003E00121022018F073FA18F0D1FA030076
:1038E000012B06D1074B00229B5E1A007B689B1AB6
:1038F0007B607B68180000F059F900231800BD4672
:1039000003B090BD1206002080B500AF0A4B1B68C3
:10391000DB68FF221A40084B1B6808490A43DA603B
:1039200080235A00044B1100180005F035FF0023D6
:103930001800BD4680BDC046EC0500207FFEFFFF9D
:1039400080B500AF064A074B1100180000F094FA4A
:103950000200054B1A60044B1B681800BD4680BD71
:1039600040060020540600203C06002080B500AF31
:10397000024B1B681800BD4680BDC0463C060020B7
:1039800080B588B000AF0823FA183B1D110018005D
:1039900000F072FA0300FB61034B1B68FA69D31A4B
:1039A0001800BD4608B080BD3C06002080B588B038
:1039B00000AF0023FB61094B1B78002B08D00823C4
:1039C000FA183B1D1100180000F056FA0300FB61C5
:1039D000FB691800BD4608B080BDC0461006002037
:1039E00080B500AF03231800BD4680BDB0B582B0DE
:1039F00000AF786079680A0000210B00510EDD01EC
:103A00000D43D4017D22002320002900FCF75CFD3A
:103A100002000B0013001800BD4602B0B0BDF0B5A7
:103A200089B000AFF861FB693B6100237B613A69B3
:103A30007B69D10E5801F860F8680843F8605301BB
:103A4000BB60BB68FC6839697A695B1A94411A00EB
:103A50002300910F9800786078680843786093009D
:103A60003B603A697B693868796812184B4159069E
:103A7000D0090500280008430500DB091E002B00C3
:103A80001800BD4609B0F0BD80B584B000AF7860C5
:103A90000023FB600023BB607B681800FFF7A6FFD4
:103AA0000300FB60FFF782FF0300BB6000E0C0463D
:103AB000FFF77CFF0200BB68D31AFA689A42F6D877
:103AC000C046C046BD4604B080BD80B582B000AFE0
:103AD000786018F0A3FEC046BD4602B080BDB0B508
:103AE0008CB000AF78600C23FA180823FB18110083
:103AF000180000F0C1F90300BB620023FB62FB6AFF
:103B00009B05BA6A940A1C43FB6A9D0A23007B62E8
:103B1000BB6A9B059B0D3B623B6A1800FFF77FFF6A
:103B200003009AB27B681A807B6A1800BD460CB00D
:103B3000B0BD000080B582B000AF78607A68044BF9
:103B40000021180005F0ACFFC046BD4602B080BDA4
:103B5000EC05002080B582B000AF78607A68044B35
:103B60000121180005F09CFFC046BD4602B080BD93
:103B7000EC05002080B500AF044B0021180005F0D3
:103B8000A5FF03001800BD4680BDC046EC0500201F
:103B900080B500AF044B0121180005F097FF03002A
:103BA0001800BD4680BDC046EC050020F0B58DB0C4
:103BB00000AF78602E243B1900221A802C23FB18BA
:103BC00000221A802A23FB1800221A802823FB18BF
:103BD00000221A8026257B1900221A801026BA1985
:103BE0009B4B043323CB23C203CB03C20C231D0006
:103BF000FB18974A92691A60FFF786FEBB195B684B
:103C00009AB23B1993498A1A1A807B689BB29B052A
:103C10009B0D99B23B193A1912888A181A807B6851
:103C20009B0A7B602B00FB189A7826257B191A804B
:103C30000AE07B68884A944663447B6026217B18AF
:103C40001A887B1801321A807B68844A9342F0D824
:103C50001023FB181A782823FB181A800AE07B68C7
:103C60007F4A944663447B6028217B181A887B181E
:103C700001321A807A68E1231B019A42EFD21023A5
:103C8000FB185A782A23FB181A8008E07B683C3B13
:103C90007B602A217B181A887B1801321A807B6886
:103CA0003B2BF3D81023FB189B7899B27B689AB210
:103CB0002C23FB188A181A800DE02E22BB18BA1884
:103CC000128868498C4662441A802C217B181A8815
:103CD0007B1801321A802E23FB181A888023DB0000
:103CE0009A42EAD20BE02C22BB18BA1812883C3A4E
:103CF0001A802A217B181A887B1801321A802C23FB
:103D0000FB181B883B2BEED80BE02A22BB18BA18F5
:103D100012883C3A1A8028217B181A887B180132B5
:103D20001A802A23FB181B883B2BEED80BE0282295
:103D3000BB18BA181288183A1A8026217B181A88DC
:103D40007B1801321A802823FB181B88172BEED80A
:103D50000C217B18DB7803221340DBB2002B19D136
:103D60007B185B78013B404AD35C9BB226243A190E
:103D700012889A4228D93B1918887B185B78013B36
:103D8000394AD35C1900FCF737FB0B001A003B19CA
:103D90001A8019E00C217B185B78013B334AD35C15
:103DA0009BB226243A1912889A420DD93B191888D9
:103DB0007B185B78013B2D4AD35C1900FCF71CFB98
:103DC0000B001A003B191A802E23FB181B88214A6E
:103DD000D31A1A00264B5A60254BA02212059A616D
:103DE0002C23FB181B88DAB2214B9A702A23FB186C
:103DF0001B88DAB21E4B5A702823FB181B88DAB2D4
:103E00001B4B1A702623FB181B88D9B2184B202293
:103E100099541023FB18DA78154BDA70144B0022F2
:103E2000DA61134B00225A61114B802252005A6210
:103E30000F4B0022DA600E4B00221A610C490D4B29
:103E40000022180005F05CFBC046BD460DB0F0BD79
:103E50003C060020FF03000080AEFEFF7F51010002
:103E6000F0F1FFFF00FCFFFF80E0010874E00108B3
:103E700014060020EC05002080B586B000AF786005
:103E8000396000237B613968424B0022180005F03D
:103E9000DFF9414B1800FFF7C7FC03003B6179686D
:103EA0003C4B0022180005F0DDFA3968394B00223E
:103EB000180005F0CDF9384B1800FFF7B5FC0200EB
:103EC0003B699342E5D17B68DB781A00334B53435F
:103ED00003339B087B617B68DB7803221340DBB2F2
:103EE000002B01D12E4B00E02E4BFB607B685B78F2
:103EF0005A1E13001B019B1A9B009B180133002BB9
:103F000000DA01335B1019007B685B78013B5B00D2
:103F1000FA68DA40130003221340CB1A7A69D318E7
:103F20007B617B689B781A007B69D318013B7B61BE
:103F30007A6913005B009B181A01D21A13019B1AAD
:103F4000DB017B613B689B7819003B681B781A009A
:103F500013001B019B1A1A01D21A13011A00100038
:103F60003B685B781A0013001B019B1A9B00C31867
:103F7000CB187A69D3187B617B699A023B685B68CE
:103F8000D31A094A944663447B617B691800BD4695
:103F900006B080BDEC05002000280040B5050000FB
:103FA00050554400A0AA9900FF03000080B500AF5F
:103FB000C046BD4680BD80B500AFC046BD4680BD91
:103FC00080B584B000AFEFF310837B607B68FB604B
:103FD00072B6C04601F0EEFA0B4B1800FFF73AF943
:103FE0000A4B1A68094B04210A431A60FB68BB603C
:103FF000BB6883F31088C0460121012004F000F85B
:10400000C046BD4604B080BD1805002000700040C9
:1040100080B584B000AFEFF31083BB60BB68FB607A
:1040200072B6C046194B1A68184B01210A431A6030
:10403000C046164B1B6804221340FAD0134B1A6873
:10404000124B802149040A431A60C0460F4B1A687C
:1040500080239B041340F9D00C4BDA680B4B0321EF
:104060000A43DA60C046094BDB680C2213400C2B74
:10407000F9D101F099F9FB687B607B6883F31088C4
:10408000C046C046BD4604B080BDC04600100240D8
:1040900080B500AF0121002003F05AFFC046BD46A5
:1040A00080BD80B500AFC046BD4680BD80B582B042
:1040B00000AF78607B681B681B6801221340012BEE
:1040C0000ED17B681B689B6801221340012B07D12E
:1040D0007B681B6801225A607B68180000F088F832
:1040E0007B681B681B6802221340022B0ED17B6881
:1040F0001B689B6802221340022B07D17B681B6858
:1041000002225A607B68180000F07AF87B681B680E
:104110001B6804221340042B0ED17B681B689B682C
:1041200004221340042B07D17B681B6804225A60C9
:104130007B68180000F06CF87B681B681B6808221D
:104140001340082B0ED17B681B689B680822134024
:10415000082B07D17B681B6808225A607B6818000F
:1041600000F05EF87B681B681B6810221340102B60
:104170000ED17B681B689B6810221340102B07D15F
:104180007B681B6810225A607B68180000F050F8AA
:104190007B681B681B6820221340202B0ED17B6894
:1041A0001B689B6820221340202B07D17B681B686B
:1041B00020225A607B68180000F042F87B681B6878
:1041C0001B6840221340402B0ED17B681B689B6804
:1041D00040221340402B07D17B681B6840225A6065
:1041E0007B68180000F034F8C046BD4602B080BDC0
:1041F00080B582B000AF7860C046BD4602B080BDD9
:1042000080B582B000AF7860C046BD4602B080BDC8
:1042100080B582B000AF7860C046BD4602B080BDB8
:1042200080B582B000AF7860C046BD4602B080BDA8
:1042300080B582B000AF7860C046BD4602B080BD98
:1042400080B582B000AF7860C046BD4602B080BD88
:1042500080B582B000AF7860C046BD4602B080BD78
:1042600080B500AF0D4B9A6B0C4B802149050A437A
:104270009A6303F05FFE03F02DFF094B1A68084BA9
:1042800008210A431A60064B1A68054B08218A4325
:104290001A6003F011FFC046BD4680BD0010024009
:1042A0000020024080B500AFC046BD4680BD80B54D
:1042B00000AFC046FDE780B500AFC046BD4680BD3B
:1042C00080B500AFC046BD4680BD80B500AF01F0EF
:1042D000E1FBC046BD4680BD80B500AF054B180070
:1042E00002F06CFD044B180002F068FDC046BD46AC
:1042F00080BDC046E8070020E007002080B500AF81
:10430000C046BD4680BD000080B500AF054B18001B
:1043100002F054FD044B180002F050FDC046BD46AB
:1043200080BDC046D8070020F007002080B500AF50
:10433000034BDB6E180002F032FCC046BD4680BD68
:104340005806002080B500AF034B180006F084F833
:10435000C046BD4680BDC0465806002080B500AFAF
:10436000034B1800FFF7A2FEC046BD4680BDC04605
:10437000BC05002080B500AF034B180005F0ACFA77
:10438000C046BD4680BDC046EC05002080B500AFEC
:1043900018F0D8F800F0F6F800F0C2F917F038FA83
:1043A0000B4B180017F0ECFA022017F0F7FAFEF7A3
:1043B0007DFF01F02DFA00F0F7FF00F055FA17F03D
:1043C000EFFC0121012017F02BFDC046BD4680BD4A
:1043D0003945000880B500AF17F084FDC046BD46E2
:1043E00080BD0000F0B585B000AF0F257B1900221D
:1043F0001A700C26BC19FEF7ADFF03002380BB1911
:104400001B88184A934203D97B1964221A7021E051
:104410000C23FB181A88E123DB009A4204D20F23F5
:10442000FB1800221A7015E09623DB00BB600C23FA
:10443000FB181B880C4A944663447B607B686422AB
:104440005343B9681800FBF767FE03001A000F23F7
:10445000FB181A700F23FB181B781800BD4605B017
:10446000F0BDC046B80B0000F8F8FFFF80B582B081
:1044700000AFBB1D00221A80FEF724FF031E00DAE6
:10448000FF331B121AB2BB1D1A80BB1D1B881800FC
:10449000BD4602B080BD90B585B000AF786001F038
:1044A0000BFB040001F01CFB0300E318FB6001F0B0
:1044B0000DFB0300BB60FB681A0E7B680733D2B2AA
:1044C0001A70FB681A0C7B680633D2B21A70FB684C
:1044D0001A0A7B680533D2B21A707B680433FA6813
:1044E000D2B21A70BB681A0E7B680333D2B21A704C
:1044F000BB681A0C7B680233D2B21A70BB681A0A06
:104500007B680133D2B21A70BB68DAB27B681A706A
:10451000C046BD4605B090BDB0B500AF01F0CCFAC5
:10452000040001F0D3FA03005C4001F0D9FA030063
:1045300063401800BD46B0BD90B587B002AF78604B
:10454000396008243B19180017F09AFF2200BB18A5
:104550001968BB1804229B5E094A786800930B0017
:10456000102100F0A9F87B681800FBF7CDFD0300CF
:104570009AB23B681A80C046BD4605B090BDC046A1
:10458000E4E0010890B58BB000AF14243B1918008B
:1045900014231A00002119F0E8F9384BDA6A374B76
:1045A00001210A43DA62354BDB6A012213403B6189
:1045B0003B69324BDA6A314B02210A43DA622F4BF4
:1045C000DB6A02221340FB60FB682C4BDA6A2B4B40
:1045D00004210A43DA62294BDB6A04221340BB60E0
:1045E000BB68264BDA6A254B80210A43DA62234BEB
:1045F000DB6A802213407B607B683B1903225A6090
:104600003B1900229A603B191D4A1A603A19A023EF
:10461000DB051100180002F0F5FB3B19194A1A607E
:104620003B19194A1900100002F0ECFB3B19174A1C
:104630001900100002F0E6FB3B19154A19001000A2
:1046400002F0E0FB0D4BDA6A0C4B01218A43DA627F
:104650000A4BDA6A094B02218A43DA62074BDA6AAB
:10466000064B04218A43DA62044BDA6A034B802149
:104670008A43DA62C046BD460BB090BD00100240CE
:10468000FF9F0000FFFF00000004005000080050E2
:10469000001C005080B500AF0121042017F090FBF2
:1046A000C046BD4680BD80B500AF0021042017F094
:1046B00087FBC046BD4680BD0CB480B584B000AF5A
:1046C000786039601C23FB18FB603968FB68BA69A5
:1046D000786818F001FBC046BD4604B080BC08BC39
:1046E00002B0184780B582B000AF78600023180090
:1046F000BD4602B080BD80B500AFFFF757F903009B
:104700001800BD4680BD80B582B000AF78607B6880
:104710001800FFF7B9F9C046BD4602B080BD0000E1
:1047200090B58BB000AF14243B19180014231A0065
:10473000002119F01AF94A4BDA6A494B02210A435F
:10474000DA62474BDB6A022213403B613B69444B10
:10475000DA6A434B02210A43DA62414BDB6A0222E6
:104760001340FB60FB683E4BDA6A3D4B02210A4373
:10477000DA623B4BDB6A02221340BB60BB68384BFA
:10478000DA6A374B02210A43DA62354BDB6A0222CE
:1047900013407B607B6821007B1801225A607B18E4
:1047A00001229A607B180322DA607B188022520172
:1047B0001A600C007B182B4A1900100002F022FB33
:1047C00021007B18802292011A600C007B18254A78
:1047D0001900100002F016FB21007B188022D20184
:1047E0001A600C007B181F4A1900100002F00AFB27
:1047F00021007B18802212021A607B18194A1900C6
:10480000100002F0FFFA80235B0116480022190015
:1048100002F075FD80239B0112480022190002F06E
:104820006EFD8023DB010F480022190002F067FDB6
:1048300080231B020B480022190002F060FD084B88
:104840005A6B074B8021C9030A435A6301F052F99E
:1048500001F05EF901F06AF9C046BD460BB090BDAB
:10486000001002400004005080B500AFC046BD46B5
:1048700080BD000080B500AF104B114A1A600F4B8D
:10488000E12252025A600D4B00229A600B4B00222B
:10489000DA600A4B00221A61084B08225A61074B62
:1048A00000229A61054B180005F098FC031E01D008
:1048B000FEF7D6FEC046BD4680BDC0465806002065
:1048C0000044004090B595B000AF78603C23FB18E1
:1048D000180014231A00002119F047F818243B1976
:1048E000180024231A00002119F03FF87B681B6888
:1048F000574A934200D0A6E0564BDA6A554B012145
:104900000A43DA62534BDB6A012213407B617B6905
:10491000504BDA6A4F4B01210A43DA624D4BDB6A96
:10492000012213403B613B694A4B9A6B494B802102
:1049300089020A439A63474B1A6B464B01210A438B
:104940001A63444B1B6B01221340FB60FB68414B15
:104950009A6B404B802189020A439A633B190222D9
:104960001A603B190422DA603B19180004F0B8F908
:10497000031E01D0FEF774FE3C243B1904221A608A
:104980003B1902225A603B1900229A603B1903220C
:10499000DA603B1904221A613A19A023DB051100E1
:1049A000180002F02FFA21007B1808221A607B18E9
:1049B00002225A607B1800229A607B180322DA6078
:1049C0007B1804221A617A18A023DB051100180055
:1049D00002F018FA204B214A1A601F4B04225A6039
:1049E0001D4B10229A601C4B0022DA601A4B802269
:1049F0001A61194B00225A61174B00229A61164B1B
:104A00000022DA61144B00221A62134B180001F0E5
:104A100003FF031E01D0FEF723FE7B680E4ADA6611
:104A20000D4B7A689A62012200210B2001F0BEFE34
:104A30000B2001F0D0FE012200211C2001F0B6FE67
:104A40001C2001F0C8FEC046BD4615B090BDC04652
:104A50000044004000100240DC06002080000240BC
:104A600080B582B000AF78607B681B680D4A9342C6
:104A700013D10D4B9A6B0C4B0C490A409A63A0233F
:104A8000DB050C21180002F03BFB7B68DB6E180095
:104A900001F03AFF1C2001F0AEFEC046BD4602B058
:104AA00080BDC0460044004000100240FFFFFDFFF3
:104AB00080B582B000AF7860054B7A681A60FEF767
:104AC000EDFCFFF7D7FE00231800BD4602B080BD05
:104AD0002807002080B500AF0B4B9A6A0A4B802153
:104AE00089020A439A62084B9A6A074B07490A40AF
:104AF0009A62074B1800FFF7B3FF0B2001F07BFE13
:104B000000231800BD4680BD00100240FFFFFDFFDE
:104B10005806002080B582B000AF78600A00BB1C48
:104B20001A80BB1C1A887968044B180005F002FC37
:104B300000231800BD4602B080BDC04658060020C4
:104B400080B584B000AF78601D4B7A681A60082188
:104B50007B18802292031A607B181A4819685A68D9
:104B600006F022FDC046174B1B68DA6980235B0202
:104B70001A4080235B029A42F5D0C046114B1B6855
:104B8000DA698023DB031A408023DB039A42F5D1E4
:104B90000C4B1B689A680B4B1B688021C9030A43A6
:104BA0009A60084B180006F065FD0749054B012285
:104BB000180005F067FB00231800BD4604B080BD57
:104BC0002C070020580600202407002080B582B062
:104BD00000AF7860034B1B6800209847C046BD4675
:104BE00002B080BD2807002080B582B000AF786099
:104BF0000C4B1B68002B0AD07B6880229B58002B33
:104C000005D1084B1B680848002201219847064936
:104C10007B680122180005F035FBC046BD4602B096
:104C200080BDC0462C070020240700200D48854683
:104C30000D480E490E4A002302E0D458C4500433F4
:104C4000C4188C42F9D30B4A0B4C002301E01360CB
:104C50000432A242FBD300F0BFFE18F059FEFEF76B
:104C60003BFCFEE700500020000000201C0200205A
:104C7000E8EF01081C020020F8190020FEE7000000
:104C800080B582B000AF00237B600D4B0D4A1A60E7
:104C90000B4B180005F0C1F9031E0CD1084B18008E
:104CA00000F07EF8064B180000F030F8031E02D02A
:104CB00008235B427B607B681800BD4602B080BD64
:104CC000300700200030014090B589B002AFF86095
:104CD000B960BB1D1A8006235B427B61BB1D1C882B
:104CE000BA68F9680848FA239B000093230004F08F
:104CF000D9FF031E02D1BB1D1B887B617B69180095
:104D0000BD4607B090BDC0463007002090B585B0C5
:104D100000AF78600F243B1900221A707B681E4A8E
:104D20001A607B68822252005A607B6800229A6077
:104D30007B680022DA607B6800221A617B680022AF
:104D40005A617B68802292009A6103F0B3FF0300EE
:104D5000124A1100180000F067F802007B68DA615F
:104D60007B6800221A627B6800225A627B680022FC
:104D70009A627B680722DA627B68180004F0F6FE0C
:104D8000031E02D03B1901221A700F23FB181B7857
:104D90001800BD4605B090BD0030014080969800D7
:104DA00090B589B000AF78601D4B5A6B1C4B8021C9
:104DB00049010A435A630C243B1902225A603B19E9
:104DC00000229A603B190322DA603B1900221A6123
:104DD0003B1980221A603A19A023DB051100180044
:104DE00002F010F83B1900221A613B1940221A60A8
:104DF0003A19A023DB051100180002F003F83B1953
:104E000000221A613B1908221A603B19054A190051
:104E1000100001F0F7FFC046BD4609B090BDC04686
:104E2000001002400004005080B586B000AF7860EA
:104E3000396000237B617B683B610023FB600DE0F0
:104E40000C4B7A699200D358FB607B6901337B611C
:104E50007B69072B07D83B695B083B613A693B6874
:104E60009A42EDD800E0C046FB681800BD4606B087
:104E700080BDC04600E1010880B582B000AF0023CC
:104E80007B60194B194A1A60194B1B68591C184A48
:104E90001160002B23D1144B180002F069FD031E92
:104EA0001DD1114B180000F073F87B68002B16D150
:104EB0000D4B180000F01EF8031E03D008235B42C0
:104EC0007B600CE0084B0021180002F09BFF031EE2
:104ED00003D008235B427B6001E000237B607B689A
:104EE0001800BD4602B080BD880700200054004075
:104EF000D407002090B585B000AF78600F243B192F
:104F000000221A707B68204A1A607B681F4A5A6028
:104F10007B6800229A607B680122DA607B6800224D
:104F20001A617B6800225A617B6800229A617B6863
:104F30000022DA617B6800221A627B68180002F0A6
:104F400017FA031E02D03B1901221A707B68002158
:104F5000180002F057FF031E03D00F23FB18012295
:104F60001A707B680021180002F098FF031E03D01E
:104F70000F23FB1801221A700F23FB181B7818004F
:104F8000BD4605B090BDC04600540040BB7C7000DB
:104F900090B589B000AF7860224BDA6A214B0221CC
:104FA0000A43DA621F4BDB6A02221340BB60BB6814
:104FB0000C217B18802252001A600C003B1912222F
:104FC0005A603B1901229A603B190322DA603B19AF
:104FD00004221A613B19144A1900100001F012FF53
:104FE00021007B18802292001A607B1812225A60DE
:104FF0007B1801229A607B180322DA607B18042256
:105000001A617B18084A1900100001F0FBFE054BDD
:105010009A6B044B802189030A439A63C046BD46BC
:1050200009B090BD001002400004005090B583B05C
:1050300000AF02003960FB1D1A70FB1D1B787F2B2F
:1050400028D82F4AFB1D1B785BB29B08C0339B00FE
:105050009B58FA1D1278110003220A40D200FF214A
:1050600091400A00D2431A4011003B689B01FF2285
:105070001A40FB1D1B78180003230340DB009A40F5
:105080001F48FB1D1B785BB29B080A43C0339B0083
:105090001A5031E01B4AFB1D1B7819000F230B40EF
:1050A000083B9B0806339B00D31804331B68FA1D8A
:1050B0001278110003220A40D200FF2191400A0019
:1050C000D2431A4011003B689B01FF221A40FB1D8E
:1050D0001B78180003230340DB009A400948FB1D9E
:1050E0001B781C000F232340083B9B080A43063310
:1050F0009B00C31804331A60C046BD4603B090BD80
:1051000000E100E000ED00E080B58CB000AF0200EF
:10511000FB1D1A70FB1D1B78032B2FD03ADC022BD2
:105120001FD037DC002B02D0012B0DD032E02A4BF0
:10513000DA6A294B02210A43DA62274BDB6A022230
:105140001340BB61BB6925E0234BDA6A224B012186
:105150000A43DA62204BDB6A012213407B617B69E0
:1051600018E01D4BDA6A1C4B02210A43DA621A4B23
:10517000DB6A022213403B613B690BE0164BDA6AA3
:10518000154B02210A43DA62134BDB6A02221340F9
:10519000FB60FB68C046FB1D1A78104B5200D35AC7
:1051A0001A001C217B181A607B1801225A607B1898
:1051B00000229A607B180322DA60FB1D1A78084BE4
:1051C0009200D3587A181100180001F01BFEC04657
:1051D000BD460CB080BDC0460010024020E1010871
:1051E0004C00002080B582B000AF0200FB1D1A7099
:1051F000FB1D1A78074B9200D058FB1D1A78064BFE
:105200005200D35A0122190002F079F8C046BD4677
:1052100002B080BD4C00002020E1010880B582B0C2
:1052200000AF0200FB1D1A70FB1D1A78074B92009D
:10523000D058FB1D1A78064B5200D35A0022190091
:1052400002F05DF8C046BD4602B080BD4C000020B3
:1052500020E1010880B582B000AF0200FB1D1A708A
:10526000FB1D1A78074B9200D058FB1D1A78064B8D
:105270005200D35A190002F05FF8C046BD4602B092
:1052800080BDC0464C00002020E1010880B588B0F8
:1052900000AF0200FB1D1A70BB1D0A1C1A702B4BBD
:1052A000DA6A2A4B02210A43DA62284BDB6A0222BD
:1052B0001340BB60BB68254B5A6B244B01210A434A
:1052C0005A63BB1D1B78002B17D104231A000C2135
:1052D0007B181A607B1800225A607B1802229A60A1
:1052E0007B180322DA60FB1D1A78194B9200D35801
:1052F0007A181100180001F085FDBB1D1B78012BE9
:105300001FD104231A000C217B181A607B1800227D
:105310009A607B180F4A5A60FB1D1A780C4B92005A
:10532000D3587A181100180001F06CFD06235BB207
:1053300003211800FFF77AFE06235BB2180001F084
:105340004AFAC046BD4608B080BDC04600100240C3
:105350005C0000200000111080B500AF052318008C
:10536000BD4680BD80B582B000AF0200FB1D1A7043
:10537000FB1D1B78012B0BD180235901A023DB05DA
:105380000122180001F0BBFF0520FFF7BCF907E080
:1053900080235901A023DB050022180001F0AFFF94
:1053A000C046BD4602B080BD90B5A7B000AF802416
:1053B0003B19180014231A00002118F0D6FA784B74
:1053C000DA6A774B02210A43DA62754BDB6A022202
:1053D00013407B627B6A724BDA6A714B02210A438B
:1053E000DA626F4BDB6A022213403B623B6A6C4B12
:1053F000DA6A6B4B02210A43DA62694BDB6A0222EA
:105400001340FB61FB69664BDA6A654B04210A4372
:10541000DA62634BDB6A04221340BB61BB693B1950
:1054200002229A603B190322DA6000239422BA1800
:10543000136020E05B4B94217A1812689200D258D6
:1054400080203B185A60584B7A1812685200D35A81
:105450001A003B181A60554B0C007A18126892001B
:10546000D3583A181100180001F0CCFC3B191B6806
:1054700001333A1913609423FB181B68032BD9D905
:105480002823FB18180000F007FA80243B1980221B
:1054900012021A603B1901225A603B1901229A60DC
:1054A0003F4BDA6A3E4B01210A43DA623C4BDB6A2E
:1054B000012213407B617B693A19A023DB051100AF
:1054C000180001F09FFC80231902A023DB050122B4
:1054D000180001F014FF324BDA6A314B01210A4304
:1054E000DA622F4BDB6A012213403B613B692C4B94
:1054F000DA6A2B4B01210A43DA62294BDB6A01226B
:105500001340FB60FB68264BDA6A254B04210A43F3
:10551000DA62234BDB6A04221340BB60BB68204B7A
:10552000DA6A1F4B04210A43DA621D4BDB6A04224C
:1055300013407B607B683B1901225A603B190022B3
:105540009A603B190322DA603B19802252011A60EB
:105550003A19A023DB051100180001F053FC3B1998
:1055600002221A603A19A023DB051100180001F08D
:1055700049FC3B1902221A603B190D4A1900100020
:1055800001F040FC3B1904221A603B19084A19003B
:10559000100001F037FCC046BD4627B090BDC046A4
:1055A000001002405CE1010854E1010860000020A5
:1055B0000008005080B586B000AF3B0018001423EF
:1055C0001A00002118F0D1F93B0002229A60002352
:1055D0007B6118E0104B7A699200D2583B005A6008
:1055E0000E4B7A695200D35A1A003B001A600C4BDA
:1055F0007A699200D3583A001100180001F002FCB9
:105600007B6901337B617B69032BE3D900F0A4F94B
:10561000C046BD4606B080BD5CE1010854E101080A
:105620006000002080B586B000AF7860EFF3108393
:10563000FB60FB683B6172B6C04600237B612FE0D4
:105640007B69DA001D4BD0181D4B7A699200D35844
:10565000190001F0A1FB7B69DA00184BD0187B69B7
:105660009B007A68D3181B681A00002101F073FBB5
:10567000144A7B69D31800201856134B7A6992009C
:10568000D3580022190001F091F80E4A7B69D31813
:105690001B785BB2180001F09EF87B6901337B61D7
:1056A0007B69032BCCD93B69BB60BB6883F3108853
:1056B000C046C046BD4606B080BDC046D8070020E3
:1056C00030E1010850E1010840E1010880B582B0F5
:1056D00000AF786000231800BD4602B080BD000016
:1056E00080B582B000AF0200FB1D1A70FB1D1B7855
:1056F000042B2ED89A00234BD3181B689F46A02357
:10570000DB0501220221180001F0F9FD36E01E4BF5
:1057100001220421180001F0F2FD2FE01A4B0122B2
:105720000221180001F0EBFD28E0A023DB05002298
:105730000221180001F0E3FD134B002204211800A0
:1057400001F0DDFD104B00220221180001F0D7FD11
:1057500014E0A023DB0500220221180001F0CFFD98
:10576000094B00220421180001F0C9FD064B00225C
:105770000221180001F0C3FD00E0C046C046BD464E
:1057800002B080BD6CE101080008005080B582B015
:1057900000AF786001231800BD4602B080BD000054
:1057A00080B586B000AF3B1D180014231A000021FD
:1057B00018F0DBF83B1D01225A603B1D00229A6065
:1057C0003B1D0322DA603B1D01221A603B1D0F4A7C
:1057D0001900100001F016FB0C4B002201211800EB
:1057E00001F08DFD0120FEF78EFF3B1D00225A6067
:1057F0003B1D064A1900100001F004FB0620FEF7CD
:1058000082FFC046BD4606B080BDC04600080050BD
:1058100080B500AFFFF734FAC046BD4680BD90B5F5
:1058200085B000AF0200BB1D1A800E243919BB1DC4
:1058300001221800FFF748FA3B191B881800BD46E3
:1058400005B090BD80B582B000AF78607B68002B5A
:1058500008D180231902A023DB050022180001F0E3
:105860004EFD07E080231902A023DB05012218006A
:1058700001F045FDC046BD4602B080BD80B500AF19
:10588000044B0221180001F01DFD03001800BD4665
:1058900080BDC0460004005090B58BB000AF78606A
:1058A0002B4BDA6A2A4B02210A43DA62284BDB6A65
:1058B000022213403B613B69254BDA6A244B0121EC
:1058C0000A43DA62224BDB6A01221340FB60FB6869
:1058D0001F4BDA6A1E4B01210A43DA621C4BDB6A5A
:1058E00001221340BB60BB6814243B1902225A609A
:1058F0003B1902229A603B190322DA603B1900220D
:105900001A613B1980221A603A19A023DB051100A5
:10591000180001F077FA3B1900221A613B19402266
:105920001A603A19A023DB051100180001F06AFA89
:105930003B1900221A613B1908221A603B19054ADB
:105940001900100001F05EFAC046BD460BB090BDD4
:10595000001002400004005080B586B000AF3B1D2F
:1059600001225A603B1D02229A603B1D80221A6070
:105970003A1DA023DB051100180001F043FA3B1D7E
:1059800040221A603A1DA023DB051100180001F027
:1059900039FA3B1D08221A603B1D0E4A19001000FF
:1059A00001F030FAA023DB0500228021180001F06D
:1059B000A6FCA023DB0500224021180001F09FFC7B
:1059C000044B00220821180001F099FCC046BD4696
:1059D00006B080BD0004005080B500AF174B1A68B8
:1059E000164B802149000A431A60144BDA68134BA6
:1059F00013490A40DA60114B1A68104B11490A40EA
:105A00001A600E4B9A680D4B01218A439A600B4B2A
:105A10001A680A4B0C490A401A60084BDA68074BAF
:105A20000A490A40DA60054B00221A61084B8022BD
:105A300012059A60C046BD4680BDC04600100240B7
:105A40000C40FF88F6FFF6FEFFFFFBFFFFFF02FFA3
:105A500000ED00E080B582B000AFFB1D00221A709F
:105A60000B4B1A680A4B02210A431A600320FEF707
:105A700039FE031E03D0FB1D01221A7001E0FEF760
:105A8000EFFBFB1D1B781800BD4602B080BDC04671
:105A90000020024080B500AF054B1B781A00054B73
:105AA0001B68D218034B1A60C046BD4680BDC04675
:105AB00078000020F807002080B500AF024B1B687B
:105AC0001800BD4680BDC0465000F81F80B500AF2D
:105AD000024B1B681800BD4680BDC0465400F81F2D
